:020000040020DA
:10200000A87300208D222000EBCB2000E9CB20001C
:10201000E9CB2000E9CB2000E9CB20000000000044
:10202000000000000000000000000000E9CB2000DC
:10203000E9CB200000000000E9CB2000E5CE200025
:1020400007CF20000DCF200013CF200019CF200094
:1020500000000000EBCE2000F1CE2000E9CB2000F4
:10206000E9CB20000000000000000000000000009C
:102070000000000000000000E9CB2000000000008C
:102080000000000000000000E9CB2000E9CB2000A8
:10209000E9CB2000E9CB2000E9CB2000E9CB2000F0
:1020A000E9CB2000E9CB2000E9CB2000E9CB2000E0
:1020B000E9CB2000E9CB2000E9CB2000E9CB2000D0
:1020C000E9CB2000E9CB2000E9CB2000E9CB2000C0
:1020D000E9CB20000000000000000000000000002C
:1020E00000000000000000000000000000000000F0
:1020F0000000000000000000394720004947200090
:1021000000000000000000000000000000000000CF
:1021100000000000000000000000000000000000BF
:1021200000000000000000000000000000000000AF
:10213000000000000000000000000000000000009F
:10214000000000000000000000000000000000008F
:10215000000000000000000000000000000000007F
:10216000000000000000000000000000000000006F
:10217000000000000000000000000000000000005F
:10218000000000000000000000000000000000004F
:10219000000000000000000000000000000000003F
:1021A000000000000000000000000000000000002F
:1021B000000000000000000000000000000000001F
:1021C000000000000000000000000000000000000F
:1021D00000000000000000000000000000000000FF
:1021E00000000000000000000000000000000000EF
:1021F00000000000000000000000000000000000DF
:1022000000000000000000000000000000000000CE
:1022100000000000000000000000000000000000BE
:1022200000000000000000000000000000000000AE
:10223000000000000000000000000000000000009E
:10224000000000000000000000000000000000008E
:10225000000000000000000000000000000000007E
:10226000000000000000000000000000000000006E
:10227000E9CB20002146200045462000D13C20002B
:10228000A94820006D372000E9CB200008B5094B94
:10229000FF221A600848094A4824E3690849121ACB
:1022A00098470848084AA3690021121A984700F085
:1022B0003BFFFEE7B4200D40404000206D4200206F
:1022C00008EE200070420020A46B002010B50446E8
:1022D00000200146024606F0E3FC044B048218602D
:1022E00003F05AFC024B188010BD00BF8042002052
:1022F000D4560020024B1888013080B218807047F5
:10230000D4560020F7B50446012321600371002351
:102310000B700E46016800790A7842EA80120A7052
:10232000206862790178120102F030020A430270DB
:10233000A27A206802F00F0102780A430270226834
:10234000A179517022892168120A8A702268218934
:10235000D170A279002A00F04081224652F80A5B2F
:102360000435A17A8B4205D212F8011F013305F81A
:10237000011BF6E7E37C03F0020303F0FF015BB10E
:1023800094F86A30002100932A46012004F16B037F
:102390000AF0BDFC01210544E37C1A0708D5236C33
:1023A0002A4600930320636C0AF0B1FC0321054424
:1023B000E37CDB060AD594F824302A4600930420F7
:1023C00004F125030AF0A3FC04210544E37C9F06E5
:1023D00006D52A46052000230AF069FC052105449C
:1023E000E37C580606D52A460620636E0AF05FFC99
:1023F0000621054494F91330002B07DA2A460720FA
:10240000B4F850300AF053FC07210544237DDA0765
:102410000AD5A36C2A4600932F2301930820E36C6E
:102420000AF085FC08210544237D1B070AD5E36DCE
:102430002A4600932F2301930B20236E0AF077FC8A
:102440000B210544237DDF0606D52A460C20A38BED
:102450000AF02DFC0C210544237D580606D52A469A
:102460000E20236A0AF023FC0E21054494F914304F
:10247000002B0CDAD4F894302A46009326230193DB
:102480000F20D4F898300AF052FC0F210544637DE8
:102490009A0707D52A461120B4F868300AF007FCDD
:1024A00011210544637DDB060AD5636D2A4600933E
:1024B000262301931420A36D0AF039FC142105444E
:1024C00094F91530002B1CDA676F94F878303F01CF
:1024D0000BB147F00807B4F87A3000201B09421C02
:1024E0005B0892B201D01046F9E7002A18BF0246F5
:1024F00002F00F0317202A463B430AF0D8FB1721AE
:102500000544A37D1F071DD5D4F8807094F884304E
:102510003F010BB147F00807B4F8863000201B09D3
:10252000421C5B0892B201D01046F9E7002A18BF9E
:10253000024602F00F031B202A463B430AF0B7FB7A
:102540001B210544A37DD80607D52A461C20D4F8B4
:102550008C300AF0ACFB1C210544E37D1A0708D53A
:10256000236B2A4600932320636B0AF0D0FB2321C0
:10257000054494F91730002B08DAA36B2A46009320
:102580002720E36B0AF0C3FB27210544A37EDB066B
:1025900006D52A463C20D4F890300AF088FB054442
:1025A0002368EB1A3E2B11DCB4F89E3013B1FF23E5
:1025B00005F8013B2846D4F8A010B4F89E200AF094
:1025C00057F9B4F89E00AD1B284407E0044A054BB8
:1025D0000025256028461A6000E0042003B0F0BD05
:1025E000E0E62000404000202DE9F0418C461049F3
:1025F00004460F680D46BE4600F110087646206876
:102600006168083403C64445B646F7D11146A7F8B9
:1026100012C01A46384606F03FFA2C6800212046C0
:1026200010220AF089F900236382BDE8F08100BF1F
:10263000804200202DE9F743884606460021914656
:10264000A4220AF079F9C6F8008098F800309B09B6
:10265000337198F80020012BC2F30112727198F8BF
:10266000004004F00F07B77298F80120B27198F893
:10267000021098F8032042EA0122328101D0A14AD7
:1026800002E0082F04D9A04AA04B80201A6035E14F
:1026900008F1040421463A4606F10B000AF072F8EC
:1026A00006F11300002108220AF046F93C440027F5
:1026B00008EB09039C4280F02081257805F0F003A7
:1026C000F02B14D10134C4EB0808C1441FFA89F976
:1026D000B9F1400F8ABF4023A6F89E90A6F89E301D
:1026E000B6F89E300020C6F8A040E05406E12B0961
:1026F0000D2B05F00F0503D1637802340D330AE08A
:102700000E2B03BFA378627803F20D13013404BFCC
:1027100003EB022303340D2D03D114F8015B0D35B7
:1027200008E00E2D01BF657805F20D1214F8025B6A
:1027300002EB05251F4406EBD70107F00703012232
:1027400002FA03F0CB7C0E2F43EA0003CB746CD06B
:1027500029D8062F00F0AB8017D8032F00F0848013
:102760000BD8974240F0C0802A46082D28BF082287
:1027700086F86A2006F16B006DE0042F5BD0052F10
:1027800040F0B28086F89C20B5E0082F7DD06ED353
:102790000B2F73D00C2F40F0A780204629460AF05B
:1027A00027FAB083A7E01B2F00F0878026D8112FCF
:1027B0004AD009D80F2F40F097802623009306F1C6
:1027C000980006F1940166E0142F69D0172F40F0AD
:1027D0008B80204629460AF00BFAC0F3C00300F0B4
:1027E000070286F8783010239340A6F87A3020F05C
:1027F0000F0393400009F36770677CE0232F2ED00E
:1028000008D81C2F70D1204629460AF0F1F9C6F8E5
:102810008C0070E0272F22D03C2F65D1204629461E
:102820000AF0E6F9C6F8900065E0204629460AF06D
:10283000DFF930625FE02A46082D28BF082286F8BB
:10284000242006F1250006E0204629460AF0D0F9AA
:10285000A6F868004FE0214609F094FF4BE02C4AAF
:102860002A4BA5201A6049E07464356443E0204691
:1028700029460AF0BDF9A6F850003CE02F2300934A
:1028800006F1600006F15C0105E02F23009306F1DC
:102890004C0006F1480122462B460AF0B4F92AE022
:1028A0002623009306F1580006F15401F3E7204671
:1028B00029460AF09DF970661DE0204629460AF077
:1028C00097F9C0F3C00300F0070286F884301023A4
:1028D0009340A6F8863020F00F0393400009C6F815
:1028E0008830C6F8800006E0FB0704D5094A074B8C
:1028F00082201A6002E02C44DAE6002003B0BDE832
:10290000F08300BF0FE7200026E7200040400020B2
:102910004BE7200072E720002DE9F04F038887B0D5
:10292000814633B1B3F5AD7F13D00023038003207C
:102930009DE1A548A54900F0D9FB00F01FFA43F23C
:102940001630FFF7C3FC4FF4AD73A9F80030012037
:102950008DE19F4B1B788B4240F083819D4D00237E
:102960002B709D4B1B789907EDD59C4E9C4B9D4C35
:10297000316820461A88FFF75DFEB046074628708A
:10298000994E002840F00781A379013B032B00F208
:10299000DC80964B964A1B7802F108012833208987
:1029A000D25A00F0F5F93060002800F0C8804023CA
:1029B000ADF80A30637903970497059723B98D48DA
:1029C00002214522238905E0FFF794FC034689484C
:1029D000012145220AF0E6F9A27A1AB18548864912
:1029E0000AF0F3F904AB00937E4803A900220DF12D
:1029F0000A030AF00CFA40B1BDF80A30402B28BF98
:102A00004023ADF80A30049B05937C4BD3F800C0FB
:102A1000BCF1000F00F08F803268764FDFF8C4B150
:102A200005A90091BDF80A30584639467432E0478E
:102A3000BA4600286ED02B78002B6BD19BF816304D
:102A40001A070DD597F90630002B09DBBB7D1B0754
:102A500006D4604BA1221A70694A6A4B1A6059E089
:102A600094F91530059A002B41DA049B9A4223D140
:102A7000BAF89E105F4F8A4205D38223BB71384655
:102A800061490F2244E0BDF80A308A1A9A4294BF85
:102A900000220122039938460AF0D2F90499B7F8C6
:102AA0009E30BDF80A205B1AD7F8A0E09A4238465B
:102AB000714428BF1A462BE001320399BDF80A3051
:102AC00006D1BAF89E209A4294BF0022012200E06B
:102AD0000122484F38460AF0B3F9BDF80A20BAF887
:102AE0009E30934216D93846D7F8A01010E08AB12C
:102AF000013218BF012200213E4840230AF0A0F90C
:102B0000BAF89E203B483F2ADAF8A01088BF40223E
:102B10000AF0AFF92B78002B3DD13768354807F123
:102B20003601FFF7EFFB80B2B886002833D1294B7E
:102B3000C1221A702FE0A1232B70344A02E0A32394
:102B4000334A2B702F4B1A6025E0636823F07F43D4
:102B500023F0FF0313B9C3232B700CE06379032B1D
:102B600009D1224B224A1B7802F108002833D15A9E
:102B7000228900F0E3F9208900F08EF9306040B13D
:102B8000C76AD0F830A000F025F917B150461549B2
:102B9000B847002333602B780E4F30682BB90028DC
:102BA0003FF4D1AE00F02CF9CDE6C22B02D100F0FB
:102BB00011F9C8E600F00EF93B78C32B2AD10023A7
:102BC0003B7003212BE000BF6C4000208EE720000B
:102BD0009A6B00200A5B00208C660020986600201B
:102BE000786500203443002084420020575D002097
:102BF0008C650020884200203F43002030430020A5
:102C00009FE7200040400020AFE72000BFE7200002
:102C1000D0E72000BF2B84BFA0233B7002212A787D
:102C2000238914480AF0BEF8134B144D1C68204643
:102C300009F02EFF214602460E480AF01AF9104B01
:102C4000D8F800401B78214628330A485E5BFFF71E
:102C500059FB314683B2224605F10800FFF7C4FC58
:102C600071E688297FF46FAE00F024F96BE607B0B7
:102C7000BDE8F08F34430020404000208C650020E8
:102C8000575D00200148002102F048BE444000206A
:102C90002DE9F3411F46038804461646089D23B1DB
:102CA00040F2991293422DD04AE02F4A03611268F4
:102CB000C36042602D4A13702D4A13602D4A137071
:102CC000FFF718FB314628813A4600F061F8A06012
:102CD000E0B1294BC362A3681C63216921B1284676
:102CE000002240230AF0ACF8A668284606F1360117
:102CF000FFF708FBB086A06800F082F840F2991355
:102D0000238021E082291FD1E06818B900232380A5
:102D1000022025E0DFF8588000230093134A414643
:102D20000AF075F8D8F8002023699A420ED1099B61
:102D3000E06898472369013323610C4B1B7853B932
:102D40000023238003200BE0012009E0094A1378C7
:102D500001331370F1E7074B1B78032BF0D8AFE773
:102D600002B0BDE8F08100BFB84800200C5B002035
:102D70002C4300200B5B002085CE2000024B1A68FC
:102D8000024B1A60704700BFB8480020DC430020A7
:102D9000F8B507460D480D4616460AF028FA0446CF
:102DA00090B1294600230376878000F11A0305F1CC
:102DB000100251F8040B914243F8040BF9D16685D7
:102DC000034821460AF0E1F92046F8BD54400020AE
:102DD000D843002010B5044660B1083002F07CFCF6
:102DE000214605480AF0BDF92146BDE810400348D8
:102DF0000AF011BA10BD00BFD84300205440002093
:102E00002DE9F041044600F11A073846618D04F1BE
:102E10003602A38EFFF7E8FB94F83650C5F3011590
:102E200075BB237E032B1AD853B902F0B5FEC0231D
:102E3000B0FBF3F202FB130000F28110E06002E04D
:102E4000E3685B00E360124D124B2E681B6804F1CF
:102E500008002B600AF014F92E60BDE8F081E66AE4
:102E60003846618DD4F8308000F04AF82046FFF7EC
:102E7000B1FF56B1404629463346BDE8F0411847F8
:102E80002046BDE8F041FFF7A5BFBDE8F08100BFD7
:102E9000B8480020DC43002010B5044604480AF07E
:102EA00056F920B18388A34201D00068F9E710BD2C
:102EB000D843002010B509480AF049F9044664B126
:102EC00004F108000AF0E5F828B1237E204601331A
:102ED0002376FFF795FF2468F1E710BDD843002063
:102EE00010B50446044821460AF095F92146BDE88C
:102EF000104002480AF035B960400020B047002079
:102F0000F8B506460C480F460AF021F9044600259C
:102F10007CB104F118003146102209F001FC30B9EF
:102F2000238DBB4203D12046FFF7DAFF0135246829
:102F3000EEE72846F8BD00BFB04700202DE9F0417C
:102F400006460F480F4690460AF001F90446002550
:102F500094B104F118003146102209F0E1FB48B9A0
:102F6000238DBB4206D1A38E434503D12046FFF7F4
:102F7000B7FF01352468EBE72846BDE8F08100BFC4
:102F8000B04700202DE9F74F0C9F8B4690461E4618
:102F900000F0C6F80AF0DBF8002481462546B9F1B6
:102FA000000F7CD04DB13B689D4205D3B4423EBF7B
:102FB0002C2308F80430013401353B689D4205D3C9
:102FC000B4423EBF3C2308F8043001343A686B1C1D
:102FD000934205D3B4423EBF2F2308F80430013496
:102FE000D9F804C002356046CDF804C009F050FDA0
:102FF0003B6800EB050A9A45DDF804C00FD9711C47
:103000005B1B08EB0400091B002BACBF63440CF1F5
:103010000003344A0AF003F80444B4423FD23B6848
:103020009A4505D3B4423EBF3E2308F8043001342C
:10303000D9F80C300AF1010543B31B7833B33B6870
:103040009D4205D3B4423EBF3B2308F8043001340F
:10305000D9F80C300AF1020A1846019309F018FD5C
:103060003A6800EB0A059542019B0FD9CAEB020AA8
:10307000711C08EB0400091BBAF1000FA8BF5344F0
:10308000184A09F0CCFF0444B44204E0B44203D926
:103090003A682B1B934203D8D9F800907FE74CB1D4
:1030A00041465846224609F0E4FE5846282109F0D8
:1030B00097FE09E045B18221584609F080FE584646
:1030C00009490F2209F0D5FEB9F1000F03D14FF0E5
:1030D000FF333B6002E03B681E443E6003B0BDE846
:1030E000F08F00BFF4E72000AFE7200010B50446E2
:1030F0004160094821460AF048F894F90830002B4D
:1031000009DA216ACB6933B18B6823B1BDE810407D
:1031100002480AF03AB810BDB8470020B447002072
:1031200000487047B8470020F7B500F075FC00F084
:1031300069FD00F0C5FC00F077FA01F0A3FB09F08F
:10314000B6FF00F057FD00F0C9F8012009F09EFE1F
:1031500002F058FB00F04CFC002000F05DFB012069
:1031600000F05AFB4949002000F02CFC02F07CFCE6
:1031700009F0C1FE042009F089FE454809F0E8FE87
:10318000444809F0E5FE00F0F1F9002002F014FDDA
:1031900001F06CFA4048002102F0C0FB02F064F933
:1031A00009F09EFE00F0B6FD00F0D2FD07F040FEF3
:1031B0006846082101F0AAFB9DF807309DF80670CB
:1031C000364C43EA07276B4603CB206061603448E6
:1031D00001F058FD0025615D3248013501F052FDD6
:1031E000072D2E4EF7D1304DF179304801F04AFDD0
:1031F000EC6A4AF6CD310220A04739460320A047A9
:103200001A210120A047694608226B6B0B209847C2
:10321000274801F037FD274B186809F099FE26482A
:1032200001F030FD254B186809F092FE244801F0AA
:1032300029FD244B186809F08BFE234A336813607C
:103240007368536007F00EFB2048002102F066FB14
:103250001F48002102F062FB1E4B01219B68812068
:10326000984709F0F3FE1C4809F0E6FE00F0C6FBA3
:10327000022009F00BFE00F0C7FB02F0DBFA10F0B1
:10328000FF0FF8D101F096FAF5E700BF255A2000AC
:10329000FDE7200017E82000D84000209C6B0020AC
:1032A0003CE820005AE8200010E6200060E82000FA
:1032B00066E8200068E620006DE8200074E6200043
:1032C00074E820009CE62000846500206C4100200A
:1032D000F840002028E52000CCE6200008B500F0EA
:1032E000E5F8024B00221A7008BD00BF145B0020F5
:1032F000024A13781843107000F0FCB8145B0020E9
:10330000034A137823EA0000107000F0F3B800BFFE
:10331000145B0020024A13785840107000F0EAB89D
:10332000145B002020B1012805D1044B18787047A8
:10333000034B186870470020704700BF155B0020E2
:1033400020900D4010B5094A002013780133137006
:10335000074B197802F0BAFABDE81040054B064851
:103360001968064A002302F0B5B800BF155B0020BB
:10337000926B0020E4470020BC470020453320002A
:10338000812810B50C462AD0B0F5807F39D080282E
:1033900039D102F02FFA1D4B1D4A18701368002016
:1033A00023F00803136052F8203C032123F00803A4
:1033B00042F8203C52F81C3C23F0080342F81C3C25
:1033C00052F8183C43F0080342F8183C042200F07D
:1033D00027FC10480021032200F0C4FB13E00E4B31
:1033E0001A6831B142F008021A60002000F032FB86
:1033F00005E022F008021A60084600F037FB20467C
:1034000010BD064B1960012010BD00BF926B00205B
:1034100020940D402134200010940D40E4470020FA
:1034200008B50F4809F057FEC0B108210C4809F053
:1034300040FE0C4B196861B10B4B00221A700B4B0C
:103440000B481B681BB90B4A02F044F801E002F07C
:1034500083F8BDE80840084802F082BB08BD00BF01
:10346000DC470020E4470020155B002020900D4041
:10347000BC4700204533200028E52000084A136897
:1034800023F00403136052F8203C43F0040342F895
:10349000203C044B00221A60034B01221A70704733
:1034A00020C40D4010C00D40165B00200D4A0E498F
:1034B000136823F0C003136052F8203C43F0C003AC
:1034C00042F8203C094B00221A600B6823F01003DD
:1034D0000B6051F8203C43F0100341F8203C044BB2
:1034E0001A60704720A40D4020C40D4000A30D4079
:1034F00040C00D4000F0020202F0FF010B4B12B180
:10350000FF221A6000E0196000F0040202F0FF01DF
:10351000074B12B1FF221A6000E0196010F00100A1
:10352000044B1ABFFF221A601860704700A20D40BA
:1035300000A10D4040C00D40044B1868C0F30720A7
:10354000030904BF1030C0B2704700BF1C300D40EB
:10355000054B1868C0F3C21001289ABFC0F10200E1
:1035600040034FF40040704714300D402DE9F04700
:1035700088B0FFF7E1FF174B48251C68AB6807468A
:1035800098476B68804698470646FFF7E1FF054677
:1035900000F0D0FA824600F0D9FA814600F086FAAF
:1035A000B60AC4F34003AD0A04F001040293069086
:1035B000009601950394CDF810A0CDF814904146E3
:1035C000C7F3071207F00F03034801F05BFB08B0D5
:1035D000BDE8F0871C300D4082E82000F8B500F00F
:1035E00083F80F4B0024D3E900673A46B04238BF56
:1035F0007A1C15460443C3E90045DFF828E0DEE9FC
:103600000001821B61EB070312196B41CEE9002315
:1036100002F05AF818B1BDE8F84001F0E5BFF8BD76
:1036200070420020784200200F4B104A1A6053F875
:10363000042C42F0050243F8042C53F8042C42F009
:10364000020243F8042C0A4A136843F00103136092
:10365000084B00221A60042243F80C2C012243F884
:10366000082C0F22DA62704714E000E047E80100FE
:1036700008200D400C000340034BD3E90023100A3F
:1036800040EA0360704700BF70420020034BD3E95B
:103690000023D00B40EA4340704700BF784200202F
:1036A000054B18601C3B1A6842F001021A601A6848
:1036B000D207FCD4704700BF2800034010B5064C69
:1036C000236823F001032360FFF788FF236843F09A
:1036D0000103236010BD00BF10E000E0014B18683B
:1036E000704700BFE8470020074B084A19680433B9
:1036F0001B681268120442EA0323054A0B43106850
:1037000043EA0060704700BF40500D4048500D40F4
:103710004C500D4010B50446114B1B68DB07FBD520
:1037200009F0EDFBFFF7E0FF231A062BD8BFC41DFD
:103730000C4B220E1A60C4F3074243F8042CC4F366
:10374000072243F8082CE2B243F80C2C09F0D3FB13
:10375000054B91201C60BDE8104000F07BB900BF14
:1037600050500D404C500D40E847002008B501F086
:1037700007F8064B002291201A6000F083F991208F
:1037800000F074F9BDE8084002F0ECB8E84700200A
:10379000064B1B681B075FBF054B186880F00800CD
:1037A000C0F3C00048BF0020704700BF18C00040F1
:1037B00018D00040164A38B52C2303FB00234FF6DF
:1037C000BF72DC680546236C62649BB213F0500242
:1037D0000DD0A369DB0609D40E4B53F825301BB17D
:1037E0002068C0B29847F4E72368F2E738BD13F4C5
:1037F000D06F0BD04FF440732363FF236360E36A01
:10380000E262E362236B43F00103236338BD00BF30
:1038100038E52000EC4700202DE9F04F012885B065
:10382000064600F2BF802C244443604B1D1995F9D5
:1038300020A005F12007BAF1000F9946C0F2B2802E
:1038400095F92230002BC0F2AD80594801F00AF8FA
:10385000584A59F804301168EC680B4313605168FA
:103860006B6895F921B00B4353609168AB6895F88C
:1038700022800B4393600023C4F8C83F2B690BEBF5
:10388000CA021A6095F823305FFA88FC01939DF80C
:103890000430604619462A7DCDF80CC0029300F032
:1038A000C9F9029BDDF80CC019466046082200F0F9
:1038B000B7F94FFA88F840494FEA08389DF90420D3
:1038C00058F80100012303FA02F2024348F80120EC
:1038D0004FEA0A3A5AF8010003FA0BF202434AF897
:1038E00001205022A263A26B95F8240042F4D0621A
:1038F000A263022262634FF440722263AA69626289
:10390000EA69A2627022E26242B2002A0C4614DB2B
:1039100095F92510294D41EAC201296079791203F0
:1039200015594FB2BB402B431351002200F078F9D8
:10393000234A136843F4004313602C2303FB0693CC
:1039400093F8265020336FB2002F1CDB93F807A0AA
:10395000EDB25FFA8AF82846414601223F0300F0A3
:1039600069F94FFA8AFA3A59012303FA0AF3134321
:103970003B5108222846414600F052F9104A13688C
:1039800043F4804313602C2303FB0696F26896F8F9
:103990002800136B43F00103136305B0BDE8F04F3B
:1039A00000F058B805B0BDE8F08F00BF38E5200042
:1039B0009137200028200D4020940D4004410D40F7
:1039C00030D0004001289CBF014B43F820107047C5
:1039D000EC470020012808D8044B2C2202FB0030C1
:1039E000C3689A699206FCD41960704738E52000D4
:1039F000014B00221A60704700500D40014B082215
:103A00001A60704700500D40024BA0221A605022ED
:103A10001A60704700500D40074A084B1A60084B67
:103A200080321A60074B80321A60074B80321A606E
:103A3000064B074A1A60704700E100E0004800208A
:103A4000F4470020F8470020FC47002008ED00E084
:103A500000202000044B41091A6800F01F000123D8
:103A6000834042F82130704700480020044B410950
:103A70001A6800F01F000123834042F8213070478C
:103A8000F4470020044B41091A6800F01F0001238D
:103A9000834042F821307047FC470020024B1868F1
:103AA000C0F38150704700BF04200D4008B5FFF7F8
:103AB000F5FF024B53F8200008BD00BF90E5200041
:103AC00038B5164D164C2B68032023F040032B60AD
:103AD0002368062123F040032360012200F0A0F8B0
:103AE0002B68012223F080032B602368032023F03E
:103AF00080032360072100F093F80A4A0A4B1A60FA
:103B00000A4B0B4A19680A40002AF9D11A68510178
:103B1000FCD41A685201FCD538BD00BF20C40D404A
:103B200000C40D400101020000200D4004200D40A2
:103B300000000101034B04481B6803F00703184110
:103B4000704700BF04200D400048E801034B0448C3
:103B50001B68C3F302231841704700BF04200D40C7
:103B60000048E801024B02EBC10243F82200704713
:103B700004480020F8B507460E46094D002405EB21
:103B8000411547FA04F3DB07E1B204D555F82430B8
:103B90000BB1304698470134082CF2D1F8BD00BF74
:103BA000044800202DE9F04780464FEA0837DFF847
:103BB000409007F1804505F5592500F0E1FDD5F865
:103BC000186457F809404FEAC80A24FA0AF446EA8A
:103BD0000400E4B2C0B24146F6B204FA0AF4FFF7B8
:103BE000C9FFC5F81C6447F80940BDE8F08700BF6D
:103BF00018970D4002480021802208F09DBE00BFAA
:103C000004480020034A044B1A60044B803A1A60AF
:103C1000704700BF80400D40884800208448002045
:103C2000034B01EBC0011B6843F82120704700BF24
:103C300088480020034B01EBC0011B6843F821209A
:103C4000704700BF844800200E2870B50BD1164B7A
:103C5000164E1C6844F002051D60356825F03F03D0
:103C600043F001033360124E336823F0FF031A431D
:103C70001143014331600F4B1B681B06FBD50E4BF4
:103C80000E4A1B6812680E2803F0FC0343EA022365
:103C900008BF064A9BB204BF1560034A9BB208BF27
:103CA000146018B270BD00BF34000144F4860840AF
:103CB00008700D4000700D400C700D4010700D40EC
:103CC000024B1868B0FA80F04009704700B708400E
:103CD00010B58F20064CFFF7D5FE8F20FFF7C6FEEC
:103CE000206818B101F032FE0023236010BD00BF30
:103CF0008C480020064A136843F00203136053689F
:103D000043F002035360936843F0020393607047EB
:103D100048200D4007B50C4800F0A4FDFFF7EAFF6E
:103D20000A4B1A6842F002021A6000220192019ABC
:103D30000F2A02DC019A0132F8E71A6822F0020227
:103D40001A6003B05DF804FBC13C200054200D4014
:103D5000064A136823F002031360536823F002033A
:103D60005360936823F002039360704748200D402E
:103D7000084B93F90020002A09DB074AED21116066
:103D80001160E32111601A7862F07F021A7001203D
:103D9000704700BF1A5B0020388808400B4B1A6838
:103DA0009207FBD41B685B065FBF094BED221A60CC
:103DB0001A60084B1B6813B1054BEF221A60064AC4
:103DC0000120137803F07F03137070474C8608407E
:103DD000388808402C8608401A5B002038B5A0F1CE
:103DE0000B04E3B20F2B054613D80B4B1B6813F0E3
:103DF0003F0302D0FFF7D2FF012304EB8404074AFC
:103E00000B3414600BB1FFF7B3FF054BE8B21D7024
:103E100000E0FF2040B238BD488608403C8608409C
:103E20006B42002010B50B4B1B68990603D1FFF7BE
:103E30009FFF012300E00023074A1268D207FBD549
:103E4000064A1468C4F300140BB1FFF7A7FF20461D
:103E500010BD00BF48860840648608404C86084074
:103E6000044B186800F02200A0F12003584258418A
:103E7000704700BF4C860840024B186800F04000B5
:103E8000704700BF4C86084038B50C46002900F04A
:103E90008880102800F28780DFE800F0090F1A1CE4
:103EA00023394253586F738585787A7C7F003F4B66
:103EB0001B68003318BF012370E03D4B05221B68CF
:103EC00003F07F030B3B93FBF2F30B33DBB265E0B4
:103ED000384B00E0384B1A68043B1B6843EA022366
:103EE0005CE000230B60354B354A1B6803F001038F
:103EF0000B601268900644BF43F002030B60314B25
:103F00001B78002B4BD00B6843F0040346E02E4B8C
:103F100000201B780860002B41D001230B6038BDC6
:103F20002A4B1A680023D2B2294901EBC300007959
:103F3000904202D851F8333030E001330E2BF3D1E8
:103F400028E0244B1B685BB2493B27E0224B1B68EF
:103F5000990603D1FFF70CFF012300E000231F4A5D
:103F60001268D207FBD51E4A1568493DEDB20BB168
:103F7000FFF714FF6DB2256011E01A4B93F9003082
:103F80000CE0194B1B7803F07F0307E00B2305E0DF
:103F90001A2303E06FF0170300E0072323600020DB
:103FA00038BD022038BD012038BD00BF2C86084036
:103FB0003C860840CC850840D485084000860840EF
:103FC00024860840195B00206A4200204086084091
:103FD000A0E52000588608404886084064860840CE
:103FE00060860840185B0020175B002038B5054646
:103FF0000C46134B1B689B07FBD4124B93F9003004
:10400000002B01DBFFF7B4FE0F4BEE221A60691E96
:104010001A60A21C43F8102C2144022000F03EFB41
:10402000013C0A4924012143022000F049FB0220FF
:1040300000F050FB022000F065FB002038BD00BFFF
:104040004C8608401A5B00203888084002C001C036
:10405000F8B5214B93F90030002B0DDBFFF744FB43
:104060000446FFF785FEFFF73FFB6FF009031B1BBC
:10407000C342F8D4012600E00026184B1B7823B970
:10408000174D2B68990604D405E0FFF7CBFE0028F6
:10409000F6D10220F8BD134CE923236004272B68D6
:1040A0009A0707D4013F17F0FF0703D00620FFF758
:1040B000F7FAF4E72B689B0704D4EE232360236010
:1040C000012403E02C6814F00204FBD10EB1FFF7C9
:1040D00065FE2046F8BD00BF1A5B00206A42002042
:1040E0004C86084038880840044B1A6810B142F0EA
:1040F000010201E022F001021A60704700860840C8
:104100000B280DD1082A0DD161B1074B083111F8E8
:10411000012D43F8042F054A9342F8D1002070473F
:104120000120704702207047A4850840C4850840DC
:1041300070B5304E336813F0400308D02E4D2B6815
:10414000DCB21B0605D52D4BED221A601A6000204B
:1041500070BD042CF7D9023C8C42F4DCE4B2032C91
:1041600021D001190139032000F0A0FA631E24496F
:104170001B010320194300F0A3FA032000F0AAFA60
:10418000032000F0BFFA032000F0C8FA0028FAD19B
:1041900029681C4B4939C9B219702B681A4D180689
:1041A0002B70D0D506E02B6803702B6843702B680A
:1041B0008370EDE749B289B2042006F00FFE29783A
:1041C000032001F07F0106F009FE104B1B7873B944
:1041D00033685A060BD5074B1B681B0603D50C48E2
:1041E00001F0B4FB03E0054BED221A601A60204693
:1041F00070BD00BF4C8608402888084038880840B9
:1042000002C0010C185B0020175B0020195B002026
:10421000A04000201E4B1870002831D01D4B1B6899
:104220001B03FBD51C4B1A6842F002021A601A6885
:1042300042F001021A601A6817495007FBD50A6854
:1042400022F001020A601968134A4907FBD4116879
:1042500041F002011160116841F0010111601A681A
:104260005207FCD50D4A8D20136823F00403136018
:10427000D2F8A83123F00403C2F8A831FFF7F6BB47
:10428000064A8D20136843F004031360FFF7E2BB76
:10429000195B002004200D40048808408C860840EB
:1042A00010B50C4607285CD8DFE800F0040F1B1F90
:1042B000263C4256012903D1FFF75AFD002010BDCC
:1042C000002950D1FFF76AFDF8E7A1F10B030F2B8E
:1042D00049D8C8B2FFF782FD431C0CBF0320002061
:1042E00010BD8CB2E2B2214B02E08CB2204BE2B2A4
:1042F000240A1A605C60E1E731F0070333D101F072
:104300000100FFF7F1FE1B4B14F0020F1A68C4F313
:10431000800014BF42F0200222F020021A60FFF752
:1043200079FFCBE731F001001DD1134B197010BD9F
:1043300001F118031F2B16D80D231049DA0051F88C
:104340003300844204DC8B181A790D4B1A60B5E7F0
:1043500013F1FF33F1D2B1E7CCB20A4B49341C6000
:10436000ACE7012010BD022010BD00BFC885084089
:10437000D0850840248608406A420020A0E520003D
:104380004086084058860840F8B5294F3D7815F01A
:1043900001054AD1274B01241C605C609C60A3F599
:1043A0009323A3F51473F8221A600922C3F890210D
:1043B000152270331A6003F59B230B2203F59E73BD
:1043C0001A60A3F59B23A3F5F07340221A601A68C4
:1043D0007F2642F020021A60D52243F81C5CDE6280
:1043E000DA61154B1878FFF7F9FC144B8E201E602C
:1043F000FFF730FB022000F079F91149022000F0AC
:1044000055F9032000F072F90D49032000F046F938
:104410000C4B1878FFF7FEFE0B48294601F07EFA98
:104420003B78204623433B70F8BD0020F8BD00BF19
:104430001A5B0020A8200D406B42002094860840A3
:1044400028880840195B0020A040002038B5038868
:104450000446CBB140F20342934203D000230380D1
:10446000032038BD194B18781A4628B11B7873B150
:10447000174B1B7858060AD5822908D1137843B107
:10448000134B1A78520614D440F2034323800120C0
:1044900038BD06F049FC06F0DDFB8021FFF748FE41
:1044A0000028EDDD80B206F0B9FB0A4B1B69984786
:1044B000E6E700221A70084B1D68FFF76FFCFFF754
:1044C00063FFAB06E0D0FFF753FCDDE7195B00208C
:1044D0001A5B00209CE62000488608400B282DE946
:1044E000F84F8A4611D1082A40F0828000297FD0F7
:1044F000414B01F1FF3A53F8042D0AF8012F3F4ACE
:104500009342F8D10020BDE8F88F0C286DD1042A21
:104510006ED100296CD03A493A480B68DFF8EC902C
:1045200023F007030B600368DFF8E4B043F00803EF
:104530000360DBF80040D9F800200B68DFF8D4C036
:10454000DFF8D48023F070030B60D8F80050DCF85B
:104550000030E4B2120244EA036392B2DFF8BCE036
:104560001A43EBB242EA03430024DEF8002044EA97
:1045700003060B68D5B223F0070343F001030B6079
:1045800003682F4643F008030360DBF80000D9F806
:1045900000200B68120223F0700343F010030B603D
:1045A000D8F80050DCF80030C1B241EA036392B29F
:1045B0001A43EBB242EA0343DEF8002044EA030860
:1045C0005FFA82F9FFF790F8B6EB080667EB090788
:1045D000F903054641EA5641F0030B4A002307F070
:1045E000C7FD281ACAF800008CE70120BDE8F88F43
:1045F0000220BDE8F88F00BFC8850840A8850840A4
:1046000010880840048808400048E80118880840DD
:104610001488084020880840248808401C880840E6
:1046200008B5054B1B7813B9044801F08FF9044B0A
:1046300000221A6008BD00BF195B0020A0400020C6
:1046400034880840064B07481A68042A1FBF0649E9
:104650000A7842F040020A7000221A6001F076B92E
:104660002C880840A04000201A5B002010B5094C9F
:1046700000212046402208F05FF9074B01221A6012
:104680002E205C60FFF7E6F9BDE810402F20FFF711
:10469000E1B900BF0040002004F00F4003289EBF96
:1046A000014B0001195070470040002003289EBFB5
:1046B000024B03EB00104160704700BF0040002038
:1046C00003289EBF024B03EB00108160704700BFC0
:1046D0000040002003289FBF034901230A6883404C
:1046E0009CBF13430B60704728F00F4003289FBF07
:1046F000034901230A6883409CBF13430B60704742
:1047000020F00F4003289FBF034901230A6883401C
:104710009CBF13430B60704714F00F4003289FBFEA
:10472000044B03EB0010806800F0070088BF0020F6
:10473000704700BF00400020024B4FF0FF321A606C
:10474000704700BF04F50F40014B01221A6070470B
:104750004CF00F40094B1A6812F4801F1A46F9D129
:10476000043B196821F4803119601168C903FCD435
:104770001A6842F400321A60704700BF04200D40EE
:1047800010B50A4B1A681C4612F0030F0CD0084BE8
:104790001A685101FBD41A685201FCD5FEF78EFF4E
:1047A000FFF7D8FF0023236010BD00BF58200D4045
:1047B00004200D4038B5254B1C6814F03F0413D17C
:1047C000234B53F8243023B1984768B10134052CAA
:1047D000F6D1204D2B783BB1FEF780FF0446FEF763
:1047E00083FF201A092801D830BF38BD002CFBD028
:1047F000194B1A6822F400321A60184A1168C9026B
:10480000FBD4196841F4803119601368DB03FCD5CF
:10481000FEF76AFF201A092803D8BDE83840FFF7E1
:1048200099BF63280E4C02D92B78022B00D00123AC
:10483000236001F041F820B1FFF78CFF00232360D3
:1048400038BDFEF74BFF0028CED1F5E7488608407B
:10485000904800201B5B002000200D4004200D40EC
:1048600058200D400023064A52F82310814206D0FA
:1048700011B942F8230070470133052BF3D170477B
:1048800090480020054B00221A60054A136843F047
:1048900004031360034B02221A70704758200D4026
:1048A00010ED00E01B5B002010B59020064CFFF7D8
:1048B000E9F89020FFF7DAF8206818B101F046F81F
:1048C0000023236010BD00BFA448002070B50E4C2B
:1048D000054626784EB93046C021FFF77BF83046B2
:1048E0000D21FFF777F8012323700020E9B2FFF7CD
:1048F00071F80A2D05D10020C021FFF76BF80023C5
:104900002370284670BD00BF1C5B002013B56B46AA
:104910000A46044604490868496803C32046991AB0
:1049200007F030FF02B010BD54E92000002001491B
:10493000FFF748B8D14B20002DE9F74F0388064612
:1049400033B1B3F5A57F11D0002303800320EFE03E
:10495000794A1380794A1380794A1380794B01226E
:104960001A704FF4A57333800120E1E082294FF0E3
:10497000010AF9D1DFF8C8B17348BBF80050734B96
:10498000425D83F800A0432ADFF8AC81D946074690
:104990002AD16A4B1A88954226D2521B052A23DD5A
:1049A00000EB050C60466A490622CDF804C007F00A
:1049B000B7FEDDF804C00446B0B9604621460622C1
:1049C00007F0BAFF5D4BA8F800401C805D4BABF8C8
:1049D000004083F800A05F4B185D013408F0C8FA6E
:1049E0000D2CF8D1002497E0B8F800209542F9D0BA
:1049F00002D300231C462EE000247B5DDB2B04D079
:104A000055490B550134A4B201E0012300E0002315
:104A10000135ADB2954255D2B4F5807F01D900245D
:104A200050E0002BE9D07B5DDD2B01D1DB2102E0E2
:104A3000DC2BECD1C021484B1955E3E7B4F5807F5E
:104A40001DD863B9795DDB2917D04348015501347E
:104A5000A4B20135ADB2B5F5887FEFD310E07B5D30
:104A6000DD2B01D1DB2102E0DC2B04D1C0213A4B4C
:104A700019550134A4B20023EBE70123E9E7002430
:104A8000002188B290421DD2B4F5807FC7D863B1AF
:104A90007B5CDD2B01D1DB2002E0DC2B0DD1C020C3
:104AA0002D4B18550134A4B207E0785CDB2806D002
:104AB000294D28550134A4B202E0002300E001236F
:104AC0000131DEE7013292B2B2F5887F04BF0023E4
:104AD000A8F80030194B18BFA8F80020B8F800203B
:104AE00019888A4216D0104603468B4212D0F85CD1
:104AF000C02807D11948A8F80030A9F8002000F014
:104B000025FF09E001339BB2B3F5887F4FF0000029
:104B1000EBD1E9E7A9F80020114B1C80002C3FF4F1
:104B200020AF104B1B6803B1984704F0D9F818E781
:104B300003B0BDE8F08F00BFD8560020D656002045
:104B4000DA5600201D5B00201E5B0020976B0020C2
:104B50005CE9200063E920008C650020B040002063
:104B600078650020A8480020014B1860704700BFFE
:104B7000A848002038B5C02008F0FAF9114B0024ED
:104B80001149A2B20988914216D93C2A04BF0F4BA1
:104B90001B6818785D1CC02804D1DB2008F0E8F9F8
:104BA000DC2004E0DB2802D108F0E2F9DD2008F087
:104BB000DFF901342B46E3E7C02008F0D9F90020E3
:104BC00038BD00BF8C650020786500209866002005
:104BD00038B5264B1A781C46022A06D0032A12D171
:104BE000C02804BF01221A703DE000F12402D2B2B5
:104BF000012A06D903221A701D4B1A881D4B1A80F0
:104C000031E0012302E0DB2801D102232370194B9C
:104C1000184D1A88511C89B2B1F5887F08BF002150
:104C2000198015491B8809888B4205D103232370FD
:104C30000F4B1B882B8016E0104B5428985407D13B
:104C40005B5C432B0FD10E4800F080FE012038BD85
:104C5000C02808D1064B1888824203D08142F2D185
:104C60001A80F0E72A80002038BD00BF1D5B0020BD
:104C7000D8560020D6560020DA5600201E5B0020B1
:104C8000B04000200FB407B504AA52F8041B044832
:104C9000019200F035F803B05DF804EB04B0704702
:104CA000C04000201FB5084C8DE80300114602A843
:104CB0001A460294CDF80CD000F022F8009B002296
:104CC0001A7004B010BD00BFF7CF200070B50546C4
:104CD0000C46102C07D92B686868084910229847A1
:104CE00050B9103CF5E734B12B6868682246BDE83E
:104CF000704002491847204670BD00BFD9E9200026
:104D00002DE9F04F80468FB0069107920026069B52
:104D10001B78002B00F05F83069B1C4613F8012BC9
:104D20001AB9069B9C4203D10FE0252AF5D1F8E77A
:104D3000069BD8F80400E51A0699D8F800302A46F0
:104D40009847002840F02A832E442378002B00F057
:104D500042836378611C002B00F03D8300240A46E7
:104D600011F8013B2B2B11D006D8202B11D0232B6F
:104D700012D144F00804F2E72D2B04D0302B0BD1D4
:104D800044F01004EBE744F00104E8E744F00604C3
:104D9000E5E744F00204E2E7A3F1310108290DD868
:104DA000134600251A4613F8011BA1F1300009280B
:104DB00011D80A2202FB0515303DF3E72A2B09D151
:104DC000079B01321D68191D002D0791B8BF44F0E3
:104DD000010400E0002513782E2B1CD15178531CC0
:104DE000A1F1300009280ED8194600270A780B4691
:104DF000A2F13000092801F101010FD80A2303FBB9
:104E00000727303FF2E72A2906D1931C079A111D84
:104E10000791176802E013464FF0FF371A786C2AA3
:104E200009D15A786C2A02D144F080040AE0013397
:104E300044F060040BE0682A09D15A78682A03D14B
:104E400044F02004023302E0013344F040041A78B5
:104E5000642A3CD01FD8462A48D00DD8252A5AD0DB
:104E600003D8002A00F0B78257E0412A4AD0452AE9
:104E700053D144F4424450E0582A31D004D8472A50
:104E80004BD144F4A13448E0612A38D0632A44D19C
:104E900044F4A06441E06E2A3AD007D8662A22D0B2
:104EA00027D3672A28D0692A11D036E0732A2CD05C
:104EB00006D86F2A11D0702A2FD144F440742CE008
:104EC000752A07D0782A28D144F4C85425E044F440
:104ED000245422E044F410641FE044F488541CE09D
:104EE00044F4B24419E044F4007416E044F48444F9
:104EF00013E044F4024410E044F481340DE044F43F
:104F0000C1340AE044F4E13407E044F4806404E08E
:104F100044F4E06401E044F4C0640133069304F413
:104F2000E063B3F5806F00F0AA8116D8B3F5807FF7
:104F30002BD0B3F5407F7FF4EAAE079BA04914F471
:104F4000804F03F104029F4818BF08460DF133015A
:104F500007920F461A680023C5E1B3F5C06F08D069
:104F6000B3F5E06F00F03182B3F5A06F7FF4CFAE00
:104F700000E2D8F80030D8F804009349012298479D
:104F8000002840F00B820136C1E6002FACBF24F0B0
:104F90001004012714F40053039304F0E00337D006
:104FA000402B17D008D8DBB1202B2AD1079B1A1D24
:104FB000079293F9002017E0602B11D0802B20D1AD
:104FC000079B073323F0070303F108020792D3E995
:104FD00000230AE0079B1A1D0792B3F9002003E0A3
:104FE000079B1A1D07921A68D317002A73F1000154
:104FF00009DA524263EB4303CDE900234FF0010984
:1050000033E000220023CDE900234FF000092CE01B
:10501000402B16D007D8CBB1202B20D1079B1A1DCF
:1050200007921A78EEE7602B10D0802B17D1079BE0
:10503000073323F0070303F108020792D3E90023A3
:10504000E1E7079B1A1D07921A88DBE7079B0021FF
:105050001A1D07921B681846CDE90001D5E700220A
:105060000023CDE900234FF0000904F4C053B3F549
:10507000805F0CD0B3F5C05F33D0B3F5006F4FD174
:10508000DDE900230DF1360ACDE9042304E0DDE972
:1050900000230DF1360A15E0DDE9042313433AD06D
:1050A000DDE904010A22002307F062F8DDE90401CA
:1050B00030320AF8012D00230A2207F059F8CDE911
:1050C0000401E9E752EA030125D002F0070130317B
:1050D0000AF8011DD10841EA4371D8080A4603467F
:1050E000F0E7384B14F4804F0DF1360A344908BF0D
:1050F0001946DDE9002352EA03000CD002F00F004C
:10510000085C4FEA131E0AF8010D100940EA03700B
:1051100002467346EFE70DF1360BCAEB0B0B03E0CB
:105120000DF1360A4FF0000B41F6080241F2080378
:105130005F4502EA04028CBFCBEB070700279A42C7
:1051400002D1002F08BF012741F608018A4207EB70
:105150000B030DD1DDE9000150EA010208D01B4923
:1051600014F4804F1A4A4FF0020C18BF0A4602E0AE
:105170004FF0000C62460399A1B1B9F1000F0AD1BA
:1051800004F0060102290AD00629124904BF4FF093
:10519000010C0A4606E04FF0010C0F4A02E00F4AEC
:1051A0004FF0010C63449D428CBFED1A002514F0B2
:1051B000010922D1E30613D52F444D461DE000BF5F
:1051C000A6E92000B7E92000D7E92000CBE92000BC
:1051D000C8E92000CEE920000AEC2000E7EA200020
:1051E00040462946CDF80CC00092FFF76FFD009AAB
:1051F000DDF80CC0002840F0D180BCF1000F0DD0CC
:105200001146D8F800306246D8F80400CDF800C046
:105210009847DDF800C0002840F0C0803C465E445E
:10522000102CD8F800300DD9D8F804006C491022A1
:10523000CDF800C09847002840F0B080103CDDF861
:1052400000C0EDE75CB1D8F8040065492246CDF80E
:1052500000C09847DDF800C0002840F09F80D8F8D3
:105260000030D8F8040051465A4666449847002852
:1052700040F094803E44B9F1000F79D073E0079B71
:10528000D3F800A01A1D0792BAF1000F09D05346B7
:10529000994699F800200133002AF9D1CAEB09098F
:1052A00003E0DFF840A14FF00609002F02DBB9450B
:1052B00028BFB9464D458CBFC9EB0505002514F044
:1052C000010405D140462946FFF700FD002865D1BD
:1052D000D8F80030D8F8040051464A4698470028CC
:1052E0005CD14E443EE052EA030E0ED002F00F0EA7
:1052F00010F80EE04FEA131C01F801ED4FEA121E00
:105300004EEA037E72466346EDE70B467F1A01BF05
:105310003022012701F1FF3301F8012C03377822F5
:10532000BD4203F8012C4FF0300203F8022C88BF75
:10533000ED1B4FF0230298BF002514F00104A3F1E8
:10534000030903F8032C04D140462946FFF7BEFCAD
:1053500020BBD8F80030D8F8040049463A469847B0
:10536000E0B93E4424B140462946FFF7AFFCA8B956
:105370002E44CCE4079B012D03F104021B688CBF73
:1053800005F1FF35002514F0010407928DF8203057
:1053900008D140462946FFF799FC10B14FF0FF3085
:1053A0001AE02E44D8F80030D8F8040008A90122E9
:1053B00098470028F2D16F1C2CB140462946FFF7D0
:1053C00085FC0028EAD13E44A1E4079B1A1D1B6816
:1053D00007921E609BE430460FB0BDE8F08F00BF1F
:1053E00096E92000D0E92000F8B503880646154666
:1053F0002BB14A2B15D0002303800320F8BD17489A
:1054000007F0A5FE04462CB1201DA16807F026FE7A
:105410002468F8E7124B01221A704A2333800120D6
:10542000F8BD8829FBD10D4807F091FE0446002CF9
:10543000F3D0231D9D420ED10848214607F091FE6E
:10544000084B62691F681A60A2691D460AB1E069CB
:1054500090472F60E1E72468E9E700BFAC480020EF
:105460002E5C0020B848002010B5064B00240648EA
:105470001C7007F069FE2146BDE81040034800F0AB
:105480004DBA00BF2E5C0020AC480020C840002070
:1054900070B50446E3610B4B049D1B786561A26106
:1054A00043B1094D094B2E68201D2B6007F0D6FD36
:1054B0002E6000E0A1602146BDE87040044807F07E
:1054C00064BE00BF2E5C0020B8480020C840002009
:1054D000AC48002013B5034C24680094FFF7D8FFB4
:1054E00002B010BDB848002070B5094B05461B78C6
:1054F0003BB1084C084B26680430236007F0B7FD29
:1055000026602946BDE87040044807F03EBE00BF53
:105510002E5C0020B8480020C8400020AC48002085
:1055200070B5094B05461B783BB1084C084B266803
:105530000430236007F0A4FD26602946BDE87040D2
:10554000044807F022BE00BF2E5C0020B8480020AF
:10555000C8400020AC48002010B5084B04461B781A
:105560001BB1043000F0B8F801E0C36003612146CC
:10557000BDE81040024807F0F4BD00BF2E5C0020DB
:10558000AC48002010B50446FEF780F894E80C0003
:105590001344C01A024B98428CBF0020012010BD5A
:1055A000FEFFFF7F10B50E4C236813B90D4A136040
:1055B00010BDFEF761F8216891E80C001A44131A37
:1055C0008A6842B192E812002144091A8B4228BF2E
:1055D0000B469268F5E71844024B186010BD00BFF7
:1055E000B0480020B4480020014800F0AFB900BF27
:1055F000D8400020F8B5038805462BB1592B09D0B7
:10560000002303800320F8BD1E4A136059232B801A
:105610000120F8BD872920D08229F7D1194F002613
:105620003C68002CF2D0204607F055FD90B1E068B0
:105630008821224600F04AF950B9E060A3680EB113
:10564000B36000E03B600023A360FFF7ABFFE5E73A
:10565000FFF7CAFF2646A468E3E70A490B680BB9BF
:105660000B60D3E7D868904201D19B68F7E70B60E5
:1056700099680029CAD0C86890420ABF89680B4659
:105680009960F5E7B048002010B50446FFF7ACFF7D
:10569000E3680B4A4BB113683BB1A34203D1094AFB
:1056A0001268DA6007E09B68F6E7064B1B68E36068
:1056B00013681460A360BDE81040FFF773BF00BF1C
:1056C000B0480020B8480020024B1868003018BFCE
:1056D00001207047B048002010B50B4A04461368FB
:1056E000984206D18368136008E09A68A24203D00A
:1056F0001346002BF9D103E0A2689A60FFF752FF2E
:105700000023A360E36010BDB048002038B5836873
:1057100004460D469BB10A4804600220A07304F1C0
:105720000C0098470238012801D9832D05D1204665
:105730002146BDE8384000F005B80123A37338BD09
:10574000B84800202DE9F8431C4A044615688946EC
:105750002B4690461A4E3768A34204D00BB11B6803
:10576000FAE7BDE8F88334B3A37BABB10023A3739E
:1057700045B1AC4204D028468721224607F091FC6F
:105780002D68F5E7A3683BB14C4505D0346004F1C2
:105790000C0083212A469847D8F800309C4203D158
:1057A0002268064B05E0134623B11A68A242FAD1DB
:1057B00022681A603760BDE8F88300BFBC4800204B
:1057C000B848002010B5094B00221A70084B1C681D
:1057D0005CB1E37B3BB101230022A373E27320465B
:1057E0008221FFF793FF2468F2E710BD315C0020AF
:1057F000BC480020024B1878421C1A70704700BF4A
:10580000325C0020064B8A221A70064A002313706D
:10581000054A1370054A1360054A1360704700BFBC
:10582000325C00202F5C0020305C0020BC4800204F
:10583000B84800202DE9F0411A4D2B780BB1FFF745
:10584000C1FF194C22783AB3184E0C213378184F07
:105850005943781817F8018001334768806803F0CE
:105860001F03013A3370227068B9124B1E689EB153
:105870002B780BB1FFF7A6FF304641463A4607F0BA
:1058800010FC3668F3E7B8F1810F04BF012383737E
:1058900041463A4607F005FC2B7820781844BDE8CD
:1058A000F08100BF315C0020305C00202F5C0020C4
:1058B000C0480020BC480020024A034B10781B78E7
:1058C00018447047305C0020315C0020F0B50B4E6E
:1058D0003378202B0FD00A4C0C252478094F1C4418
:1058E00004F01F046C4301333D19A86039556A6008
:1058F00033700020F0BD0120F0BD00BF305C0020FF
:105900002F5C0020C048002038B5034C256807F004
:10591000C8FB256038BD00BFB848002010B50A4656
:1059200009490C68234683420DD00BB11B68FAE786
:1059300048B1046008600121817383818121BDE841
:105940001040FFF7E1BF10BDBC48002038B1837B99
:10595000013B012B9FBF024A0123C37313707047A1
:10596000315C002010B5084C206858B1002323603A
:10597000816843689847236823B1BDE810401868E0
:10598000FDF7C8BE10BD00BF404A002038B50588ED
:105990000446672D09D0792D2ED0002D32D1FFF786
:1059A00029FF1B4B18701B4B1D601B4807F0BCFBED
:1059B000431C01D167231DE00A28164B07D01A6843
:1059C0007E2AF2DC511C1960144B9854EDE71968DB
:1059D00000254A1C1A60114A0D4B55542846197867
:1059E000FFF774FF0E4B852118682A46FFF76EFFFC
:1059F00020B97923238009E0852907D1054B0022AE
:105A00001A60D2E700230380032038BD012038BD8F
:105A1000986B00204C4A0020444A0020B45C0020CF
:105A2000B84800200D2810B5014615D00B4C23783E
:105A30002BB90B4807F064FB48B9012306E00A289C
:105A400005D1074807F05CFB08B100232370054827
:105A5000FFF77CFF012010BD002010BD335C00204B
:105A6000444A0020E840002008B505480549802246
:105A700007F03FFBBDE8084003480021FFF74EBF99
:105A8000444A0020345C0020E840002070B50588BE
:105A90000446772D30D07E2D3FD0002D4DD1FFF71D
:105AA000A9FE294B1870294B1D601D462B68284AFA
:105AB000264E52F823204AB126480021C15493684B
:105AC00080209847336801333360EFE7224A137030
:105AD000772320E01F4AD256002A12DB1B4A1368A4
:105AE00001331360194B1C4A1B6812789342F1DB97
:105AF0001A4B1B68002BEBD0184A00231360134A83
:105B0000EFE7114A00201178114A52F82320FFF7DD
:105B1000DDFE30B97E23238013E00B4B1B788B42D4
:105B20000FD10A4B0B491A688B5C03F07F038B542F
:105B30000A4A136801331360D0E70023038003206F
:105B400070BD012070BD00BF996B0020504A00203D
:105B500090400020936B0020345D0020544A0020C8
:105B6000094B1A780023934204DA084951F82310AC
:105B7000814207D106490748CA5C62F07F02CA54D5
:105B8000FFF7E4BE0133EEE7345D002090400020D3
:105B9000936B0020F8400020054A136843F004038B
:105BA0001360044B1B68906943EA002080B2704781
:105BB00000700D4014700D40174A136823F00C0359
:105BC0001360164B01221A601A68012AFCD1144B8B
:105BD00008221A60E322C3F8142203F5057319465C
:105BE000104B1B68DB07FBD5102000230E4A013841
:105BF000126802F0010243EA02034FEA43039BB238
:105C0000F4D1002BF0D0094A180A03F0FE0310600B
:105C10001360EF230B60704700700D40A8200D400B
:105C200024860840648608409C86084014700D4015
:105C30002DE9FF411F4C204D04F108030FCB8DE8E7
:105C40000F0029786F4694F80780A1B13A23A37119
:105C50001A4B1A88521A92B21A80A2F1280318120B
:105C60002C312071214404F12C002C3A637106F090
:105C7000FFFD00232B70124807F069FA064690B129
:105C8000D6F804C0BCF1000F09D00C4B2A781B8851
:105C900038322C3B3846414622449BB2E0473046DE
:105CA00007F092FAEAE7054B2870188004B0BDE8C7
:105CB000F08100BF8C650020575D002078650020D2
:105CC000584A0020F8B52A4B2A4C1B7904F11806D3
:105CD000E371237E04F10805FF2B08D195E80F003E
:105CE00086E80F002846314600F0BEFA1BE02F463A
:105CF000B646214A3B4603CB7345106051601F46B0
:105D000002F10802F6D196E80F0085E80F001A4B61
:105D10001A4D03F110062A4618685968083303C261
:105D2000B3421546F7D1164D297899B13A23A3719C
:105D3000144B1A88521A92B21A80A2F12803181230
:105D40002C3120716371104821442C3A06F090FDEB
:105D500000232B702B7881222833E518E25400238E
:105D60006B706B8007F0F9FAC0436880F8BD00BF24
:105D70000C6400208C650020DC560020A465002007
:105D8000575D002078650020B865002038B50446CE
:105D90000B480D4607F0DBF978B10379A34209D12E
:105DA0004379AB4204D183683BB19847002038BDAA
:105DB000FF2BF8D007F008FAEEE7012038BD00BF4E
:105DC0005C4A00200146014807F0DFB95C4A002028
:105DD0002DE9F74F484D81462B7888469246474C2F
:105DE00043B12833E35C3A2B0BD1454A002313809F
:105DF0002B707EE0A3793A2B03D194F92830002B45
:105E0000F3DA03F05BFF3F4E3F4AB446934606F198
:105E1000100E334603CB7345106051601E4602F1ED
:105E20000802F6D1364E2F78338804EB4700303322
:105E30009BB2B3F5A06F88BF4FF4A0633380328864
:105E40002E4BD21B1946303A3030CDF804C00093A7
:105E500006F00EFD9DE8081060222270002262709C
:105E600062803A2217B183F8282000E09A71274A0D
:105E7000224B1279E271228972B95A8962B99A89E0
:105E800052B9DA8942B91A8A32B95A8A22B99A8A37
:105E900012B9DB8A002BA8D01D4B0FCB8CE80F006A
:105EA0009BF80030FF2B05D1B9F1040F9DD1B8F15B
:105EB000020F9AD11449164800F0D6F92F785046AF
:105EC00007F12803E21804F8039082F8018007F034
:105ED0004DFA33882C37283BE0511A1263712B7826
:105EE000227128331C440023638007F036FAC04334
:105EF000608003B0BDE8F08F575D00208C65002006
:105F000078650020A4650020DC5600200C64002089
:105F1000946500202DE9F0411E460F461B490546B9
:105F20000C4660230B7000234B704B803A238B711F
:105F3000174B90461B7900F1100ECB71331D1A12CE
:105F40000A714B7101F11802134628686968083517
:105F500003C375451A46F7D10E482C3600F11001DF
:105F600000F082F90C4B1B782833E518E754002326
:105F70006B8085F8018007F0F0F9C043074B68801B
:105F80001E80BDE8F04102F0BDBE00BF8C65002060
:105F90000C64002094650020575D00207865002087
:105FA00008B50448FFF70EFFBDE808400248FFF7B8
:105FB00009BF00BF08410020144100202DE9F34132
:105FC0000446154D00910E4690461F460195234606
:105FD00012480321202207F050F901282B4616D140
:105FE0002A6804F11001107020462A68023250F825
:105FF000044B884242F8044BF9D11868089B867418
:106000004361099B80F813800777836100E00020DB
:1060100002B0BDE8F08100BF644A0020086500209E
:1060200070B506460B4D0C4B2B602C680B4B9C42FD
:106030000BD2237833B1A27CA01C3146D20806F0E3
:106040006FFB20B120342C60EFE7002070BD0120F1
:1060500070BD00BF644A002008650020686500200C
:1060600013B5084C80220346009201940648032190
:10607000202207F002F908B9206800E0002002B0F1
:1060800010BD00BF684A00202464002010B50C4AEF
:106090000C4B136013680C498B420DD2197849B12F
:1060A000411C02D0997C814204D148F2FE015C88F7
:1060B0008C4202D02033ECE70023184610BD00BF0D
:1060C000684A0020246400208464002037B5044618
:1060D0000F4D80230093019523460E48052112227F
:1060E00007F0CBF801282B460ED12A6804F11001E5
:1060F000107020462A68023250F8044B884242F859
:10610000044BF9D1186800E0002003B030BD00BF97
:10611000604A0020A8640020F7B50546204C802383
:1061200000930E46174601941E48032120222B4659
:1061300007F0A3F8012830D12A46236805F11001A1
:1061400018702368023352F8040B8A4243F8040B98
:10615000F9D12068C77416B90123037505E000233F
:1061600003753146183006F072FF23680E4801218E
:10617000997402234370FF220023027043808380BE
:10618000C38003818372C17202736B7B4373EB899B
:10619000C381FFF79BFF206800E0002003B0F0BD43
:1061A000684A002024640020EC56002013B5084CF7
:1061B000802203460092019406480521122207F02E
:1061C0005CF808B9206800E0002002B010BD00BFF4
:1061D000604A0020A864002038B50546C8B10D48C3
:1061E000022200244270FF230122C2724480848074
:1061F000C4800481847203730370EB7B43732B8A26
:10620000C381FFF7D3FF044A106008B107F059F8C3
:106210002C7038BDEC560020604A002010B50E4BA3
:106220000E4C236020680E4B98420ED203784BB17F
:10623000037D3BB91830FFF7A5F918B1074B186873
:10624000FFF7CAFF23682033EBE700F0E9FABDE867
:106250001040044806F00BBF24640020684A002068
:1062600084640020686500202DE9F84348F2FE03AD
:106270000A8805469A42884621D00B78FF2B1ED00B
:106280001B4B0024A1461F461A4A1A603E681A4A50
:10629000964218D233787BB1B37C012B0CD148F2F3
:1062A000FE0372889A4207D04046B11C07F016F8E8
:1062B000484524BF3446814620363E60E6E701204B
:1062C000FFF7E4FE04464CB92C806C80AC80EC8077
:1062D0002C816C81AC81EC81BDE8F883A31C123465
:1062E00053F8042BA34245F8042BF9D1BDE8F883F9
:1062F000684A0020246400208464002010B5FFF761
:106300004BFC0446FFF748FC054B24029A68A4B2F4
:106310002044B0FBF2F302FB130000EB520010BD6F
:106320000C64002073B52F4C01F0EAFA00F08EF8EF
:10633000002160222C4806F0FFFA00212046F822B6
:1063400006F0FAFA294B20221A70294B18221A70EB
:106350004FF4A0632360274B40262671A360FFF70C
:10636000CDFF42F21073236148F2FE03314640F242
:10637000FF260025E06025751F4C2A462380658096
:106380002B46A580E580204600950195FFF716FE77
:1063900020461A4906F099FF294601222046FFF7B8
:1063A000BBFE4FF480732046E38126806580A58084
:1063B000E58025816581A581FFF788FE4FF4007394
:1063C000204626806580A580E58025816581A581A0
:1063D000E381FFF77BFE0A480C2102B0BDE8704064
:1063E00006F03CBE0C640020086500200565002016
:1063F00004650020C0270900EC56002084650020B9
:10640000686500202DE9F04105460D480F4690468D
:1064100006F09DFE044688B1012D04D8094806F017
:10642000CCFE034601E0084B1B68284666683946E7
:106430004246B047204606F0C7FEEBE7BDE8F081D4
:10644000384E0020B04A0020AC4A002008B50B4866
:1064500006F0BDFE0A4806F077FE0A4B0A491868A6
:1064600004F0E4FA094806F0B2FE094806F06CFEB2
:10647000BDE80840074806F067BE00BF4041002065
:10648000344B00203C4100201FD32000204100203D
:10649000B04A0020384E002008B5034640B1054AF6
:1064A0005968106807F02BFEBDE8084006F068BF89
:1064B00008BD00BF3C410020014806F048BE00BFB7
:1064C000344B002008B506F05DFF014638B1044B9F
:1064D000186807F0FBFD003018BF012008BD08BD9B
:1064E0003C4100202DE9F0418046FFF7E5FF002602
:1064F000044637469CB194F82450B5420AD340462E
:1065000004F10801EA0806F00BF918B9802D08D04B
:106510002E462746204606F0FEFE0446EAE73C46A5
:1065200067B1084806F013FE844207D005482146AB
:1065300006F017FE0348214606F036FE2046BDE869
:10654000F08100BF344B002038B5044600283ED00F
:106550004368002B3BD01E48214606F002FE6368CC
:10656000586806F0F4FD054630B14368A34207D0F1
:10657000284606F029FEF6E704F1080002F03CFA8E
:1065800063682946586806F0ECFD6368586806F0B1
:10659000DEFD28B963680F4A5968106804F0FEFAF6
:1065A00021460D4806F037FE29460C4806F033FE1A
:1065B0000B4A20461368013B1360FFF76DFF04F19F
:1065C00008010246BDE838400320FFF71BBF38BD75
:1065D000344B00203C410020404100204C41002031
:1065E000AC4A002010B5044680B1406870B106F096
:1065F000AEFD20B14068FFF7A7FF6068F7E7044BE6
:106600002146BDE81040186804F0C8BA10BD00BFAC
:106610003C4100202DE9F84F074610468946904638
:1066200006F0B0FE834610B90020BDE8F88F38466A
:10663000FFF758FF044660B1FFF72EFF014628B16F
:106640004046102206F06CF8002859D02046FFF78B
:106650007BFF2D4B1A689A46102AE5D02B4E5946DF
:10666000306807F033FD054668B92B463068594657
:10667000042204F009FA05460028D5D000236860FA
:10668000036006F061FD224806F0B1FD04460028D3
:10669000CAD02048214606F087FD1F4806F0A7FD16
:1066A000834620B921461A4806F0B5FDBCE7446090
:1066B0006868594606F069FDDAF800306560013314
:1066C00030682946CAF8003004F07EFA3B4604F1EF
:1066D000080507F110062A4618685968083303C2EE
:1066E000B3421546F7D100210C2284F8249004F11E
:1066F000180006F021F9022039464246FFF782FED3
:106700002046BDE8F88F00BFAC4A00203C41002085
:1067100040410020344B00204C41002038B5054654
:106720000D4806F014FD0446A0B1AC420ED121463E
:10673000094806F016FD2146084806F06CFD211DAB
:1067400001200A46BDE83840FFF75CBE204606F04F
:106750003BFDE8E738BD00BFB04A002020410020E3
:1067600038B50546084806F0F2FC044648B1201D3D
:106770002946102205F0D4FF18B1204606F024FD6A
:10678000F3E7204638BD00BFB04A0020F8B5054603
:106790000F46FFF7E5FF044640B9134806F027FD12
:1067A0000446F0B11148214606F0FEFC2B46261D9A
:1067B00005F1100E324618685968083303C2734554
:1067C0001646F7D137B104F11400394606F03FFC04
:1067D000002300E001232377002029462A46FFF703
:1067E00011FE2046F8BD00BF20410020B04A002025
:1067F00038B50A4806F0ABFC044600255CB1251DFF
:10680000284601F0B1F808B1437C23B9204606F0D0
:10681000DBFC0446F2E7284638BD00BFB04A002042
:1068200010B50A4806F093FC044670B1237F43B9C3
:1068300004F11400FEF7A6FE18B12046FFF76EFF24
:10684000EFE7204606F0C0FCEEE710BDB04A00209E
:1068500037B5124B124D1C782B796A79C4EB0323A0
:1068600013449BB2ADF80630BDF8063005F10801BF
:106870001844202280B206F054FDBDF8062004F131
:106880002801294492B206F04CFD10B140BA80B202
:1068900001E04FF6FF7003B030BD00BF575D002030
:1068A0008C6500202DE9F041264F274E3D78274882
:1068B0002835AB195C780223E40007349C423DDBA9
:1068C000E9187218715CDFF88080012931D002D399
:1068D000632902D011E001332EE0037018461B4CEF
:1068E00003F06CF9D0B13B78227828331344434449
:1068F0005B7813440233237021E001F0C00180294A
:1069000005D0C02905D0402913D1037006E00370DB
:1069100007E098F818200370FF2A02D10120BDE893
:10692000F08104200221EA18FFF752FA0220BDE8A4
:10693000F081527802321344DBB2BFE703700020CB
:10694000BDE8F081575D00208C6500205D5D002072
:10695000F0B5C578124A0D44EDB2D57083780F0AB0
:106960003B44DBB293704478BB4254700678167097
:1069700005D2601CC0B2507008B901361670C9B299
:106980008D420CDA0133DBB2054993703BB94B7889
:106990000133DBB24B7013B90B7801330B70F0BDD0
:1069A0008065002010B5084C014620681430FFF7C0
:1069B000CFFF064A23681178197551785975917877
:1069C000D2789975DA7510BD9C660020806500202C
:1069D00008B5FFF7A7FCFFF7E3FA06F0DCFC00239D
:1069E0000E49002221F813200133082BF8D10C495D
:1069F000002311443032B2F5F07F81F82530F6D112
:106A0000084A4FF480611180074A00211A4420335C
:106A1000B3F5A07F1182F7D108BD00BF88680020C0
:106A2000A0660020FC5600209C6800202DE9F04163
:106A3000124F3D7805B3DFF84C8005F12703B8F815
:106A40000040A34203DB0023A8F8003013E00C4E03
:106A5000A4F1280205F12801641BA4B206F1280064
:106A60003144521B05F004FFA8F80040283C2312D3
:106A70003371747100233B70BDE8F081575D0020D5
:106A80008C65002078650020F8B503461D48044653
:106A90000288013292B2B2F5FA4F28BF4FF4805209
:106AA00050BA80B20026184D77193F8A8742F0D03D
:106AB0002036B6F5A07FF6D1228000225601AC190F
:106AC000278A47B92082618253B92046194610228D
:106AD00005F032FF0FE001320A2AEFD10020F8BDA5
:106AE000274603F1100E3A4618685968083303C266
:106AF00073451746F7D1054B35441B7920462B7556
:106B0000F8BD00BFFC5600209C6800200C640020EB
:106B10000023064A32F81310814203D1002122F8E3
:106B2000131070470133082BF3D170478868002099
:106B30000023054A32F8131011B922F813007047E8
:106B40000133082BF5D17047886800202DE9F74FF5
:106B5000A24E04283468A24F00F06F82A149A24DD2
:106B6000A24A03280D6015608A4615D194F8253095
:106B700003F00F03032B08D1A38B002B40F0748686
:106B80009B4B08221A7000F065BD022B40F06C860A
:106B9000002305F8073CB3E302287AD1954A002385
:106BA0001370954A3B801380944AD3780133DBB24B
:106BB000D37063B993780133DBB293703BB95378E8
:106BC0000133DBB2537013B913780133137094F8A7
:106BD000253003F0FD02052A0DD194F8263001334B
:106BE000DBB2782B84F8263040F03E86002384F810
:106BF000253000F039BE002B00F03686A28B7C4891
:106C0000002A3DD094F82620511E84F82610002A30
:106C100040F02A8694F82720082A04D0591E01291A
:106C20000AD8052A08D1002384F825308023037070
:106C300002F0B4F900F01CBD042A9CBF032191406E
:106C400003F00F0394BFC9B230210132013B84F835
:106C5000261084F82720072B00F20686DFE813F0C1
:106C60004C0308000A00C3040406C3040406C3045A
:106C7000002242E30423037002F090F900F024BDE7
:106C800003F00F03032B40F0EF850823037000F09F
:106C9000E1BC052811D15A4B1B681B8A002B00F060
:106CA000E3850C3D1560544A0023138033603B801C
:106CB0004F4B08220D601A70BDE115F83C3C3C3D7D
:106CC00003F0F003602B40F0CF852B796A791B022B
:106CD00039889818884200F3C785283213443B80CE
:106CE0002B7AFF2B00F0C085464EAB1D3360464C1F
:106CF000404B00221A702270AA799846BAB9012333
:106D00002370FFF7CFFD012800F0AE8503D30228E2
:106D100000F0A6850BE098F8003003F128022A4421
:106D200032605278083303EBC20388F800303748EA
:106D3000FFF796F9002840F0B2803448FFF736FAA2
:106D4000002840F0AC802A7E304BFF2AA3F11803C4
:106D500060D048F2FE00198B81425BD019898142D4
:106D600058D079B9598969B9998959B9D98949B92D
:106D70001B8A3BB9698A264B21B9998A11B9DB8AEA
:106D8000002B47D0298B224B79B9598B69B9998B44
:106D900059B9D98B49B9198C39B9598C29B9998CF8
:106DA00019B9DB8CB3F5807F34D03B88B3F5A06F85
:106DB00004D9022000214FF4A06205E0EB79012BF9
:106DC00006D800210A460320FFF702F800F048BD6C
:106DD0000F4A013BD37100F043BD00BF9C66002009
:106DE0007865002098660020C86500207C6500203A
:106DF0008C660020575D002098680020595D0020B7
:106E00009466002090660020585D0020A465002054
:106E10008C65002048F2FE032989994240F02485C0
:106E2000298BA14B81B9598B71B9998B61B9D98BD8
:106E300051B9198C41B9598C31B9998C21B9DB8C74
:106E4000B3F5807F00F01085FF2A00F00D8597488C
:106E5000FFF7E6F80246002840F0068501200221EF
:106E6000B2E725D9B9F13A0F78D02CD9B9F13B0F57
:106E700000F0FA84B9F13C0F6CD123788C49980763
:106E80003BD5580666D443F040030B70FFF70AFD6C
:106E9000012800F0E98433D3022800F0E18432684D
:106EA000DFF83CB292F80090B9F12B0FD9D134E061
:106EB000B9F1060F00F01681B9F1110F6FD0B9F1D9
:106EC000000F47D104E0B9F12C0F00F0CD8441E070
:106ED0002378D9073ED4764A43F001031370FFF7B5
:106EE000E1FC012800F0C084D6D298F8003003F10C
:106EF00028022A44CBF8002008E043F00203C4E74C
:106F000098F8003003F128022A443260527808339E
:106F100003EBC20388F80030C1E7237803F00400D4
:106F200000F0FF01B0B9624A43F00403137098F80F
:106F3000002002F128032B44D87810B104202A3213
:106F400042E7CBF800305B78083202EBC302594BC2
:106F50001A70A4E704200121521B35E706F0FDF961
:106F60004FF6FF73984240F07F8498F80030283342
:106F7000E85C01F0A1FE98F800302833EA18E85CDC
:106F80005178FEF703FF012801BF0023494A3B80E7
:106F900013703B88002B00F0678400F061BCFFF7A2
:106FA00045FDEB8D85F8069053B96E8D002E00F0EF
:106FB0005B84414B414D2B603B4BB3F828800BE089
:106FC00006F0D1F94FF6FF73984240F04D84ECE79C
:106FD000238A33B920342C602C68394B9C42F7D378
:106FE00015E09E42F6D1638A0BB19845F2D1236831
:106FF0002BB963681BB9A3680BB9E3685BB131486F
:107000002146102205F08CFB0028E3D103E001208B
:1070100004210022D8E63B882B49303B3B800023EB
:107020000B602A4902202A4A08702A49CAF800201F
:107030000A60294A138001F0B1FF274B1A88002A01
:1070400000F0128402F13003174C9BB23B80283BC6
:1070500019126371194B08321B6852BA2171197DDC
:10706000A2850022E2851A8AE17122855A8A1121BD
:107070006285A17104F118050FCB85E80F0004F1BA
:1070800008002946FFF7F0F8144B04F13C021A609F
:1070900006F069F9C04380B208B1E085DAE34FF643
:1070A000FF73E385D6E300BF8C650020A465002054
:1070B000585D0020575D00209C68002094660020E9
:1070C000DC690020946500209C6600208C6600200E
:1070D000BC6500207C650020986800209866002030
:1070E00090660020FFF7A2FC85F8069006F038F9BC
:1070F0004FF6FF739842AE4C40F0B683B4F82AB016
:10710000BBF1000F00F0B083238D002B00F0AC83A7
:10711000A84EB44696F82590B9F1000F11D0328AE6
:107120005A450ED1728A9A420BD1A3483146102299
:107130008DE8081005F0F4FA9DE80810002800F02A
:10714000F5809E4A30369642E4D195F8352002F01B
:107150003F02022A08D10022994931F812105945FC
:1071600050D00132082AF7D195F83520904B5207BC
:1071700000F17A83142283F835203C223A80502291
:1071800083F8342093F8332093F8314093F82F009C
:1071900083F82F2093F8322093F82E1093F8306064
:1071A00083F82E20013093F82D2083F82D4093F89A
:1071B0002C40C0B283F8321083F8312083F82C6061
:1071C00083F8304083F8330060B90131C9B283F8E5
:1071D000321039B90132D2B283F8312012B9621CAF
:1071E00083F830202B8D6A8D734C2A856B8504F1D2
:1071F000100594E80F0085E80F0020462946FFF7A8
:1072000033F812E3002421466A4A92F8250018B99F
:10721000302404FB01C413E0072809D13CB192F8E3
:10722000266094F82600864288BF144600E0144683
:1072300001310A2902F13002E7D1002C00F0148359
:10724000604A638214605C4B032284F8262084F831
:107250002420042284F823200FCB84E80F005A4B0B
:1072600001201A78002622765A7884F82500627662
:107270009A78DB78A276E37695F82C30A083237594
:1072800095F82D3084F82260637595F82E3084F8D7
:107290002760A37595F82F30A4F810B0E375FFF7B9
:1072A00081FB95F8343003F0F002502A24D91A09F2
:1072B0003346053A9200E91891F83C00E0B1012804
:1072C00001D1013316E002280FD191F83D000428C6
:1072D0000BD191F83E2091F83F3043EA0223402B36
:1072E00028BF4023E383238406E0E91891F83D108A
:1072F00011B10B449342DEDB10222D4B83F8352075
:107300002B4B93F8352042F0020283F835200222FD
:1073100083F83C20042283F83D20002283F83E209D
:10732000402283F83F203A80602242E2254B95F8C4
:1073300035101E60254B11F0040F344618709B4623
:1073400003D086F825002022E1E13B8809F00F09EF
:10735000A3F12802164BB9F1020F93F834304FEA2B
:107360001313A2EB83039BB23B8003D101F03F02D6
:10737000122A05E0B9F1010F03D101F03F02022A00
:1073800026D00BB98B0723D0AA8DB38A9A4204D199
:10739000074BDA8DF38A9A421AD0880740F10282AD
:1073A000B9F1010FA8D0B9F1020F40F0FB81A7E7B6
:1073B0008C650020A0660020946500208068002075
:1073C000886800209C660020595D00208C660020A3
:1073D000C90654D5B18B002951D006F11800FFF72A
:1073E000B7FAB24B95F8301093F800E0B04A8E45EA
:1073F00045D192F8311093F801C08C453FD192F8F5
:107400003200997881423AD192F83320DB78934266
:1074100035D1F37696F8273086F818E086F819C04B
:10742000B1761BBB96F8243096F8261096F8220009
:10743000591AA1EBD001C9B25FFA81FE1EF0800F8C
:1074400096F82330084418BF4942A3EB930318BFB2
:107450005FFA81FE03EB0E02C0B2D3B286F823308E
:1074600003EBD00386F8220086F82430914B0122EA
:107470001A7096F8243086F826300023B38396F8E5
:107480002510DFF8309201F00F03013B072B00F2CB
:10749000EB81DFE813F00800250083004001620162
:1074A0007C018701320199F80020824BD2070FD569
:1074B000032286F82520388840221A700022B283E1
:1074C000002800F0C48042221A70FFF76BFABEE079
:1074D00095F8353003F03F03022B40F0C5810BE7F0
:1074E00099F80030DB074ED595F8353003F03F03AF
:1074F000122B48D16E4B93F8343003F0F002502A2F
:1075000024D91B09053B9B0000202A1892F83C1047
:10751000E1B1012901D1013016E002290FD192F821
:107520003D1004290BD192F83E1092F83F3043EA07
:107530000123402B28BF4023F383338406E02A181D
:1075400092F83D2012B110449842DEDB032386F806
:10755000253095F82C300120337595F82D30737552
:1075600095F82E30B37595F82F30F375FFF71AFAAA
:107570004223514A8BF800300023B3833B8088F8C4
:107580000030138066E020238BF8003001F006FD08
:107590004A4B00221B6883F82520E5E595F8353035
:1075A000D80725D5CA0623D4B38B002B40F05C81C5
:1075B0003888013080B2FFF7F5F99BF8003043F0CE
:1075C00010028BF800203A881AB13A4A43F01203AD
:1075D000137001F0E3FC0123B383082386F8253000
:1075E000002386F827301122314B83F83520DCE068
:1075F00098060DD595F83A2095F83B3043EA0223DA
:10760000DAF800201A44CAF800203A88D31A3B80DE
:10761000388848B1CA0607D499F8003043F002030D
:1076200089F80030FFF7BEF995F8362095F8373025
:1076300003EB0223328C9BB2934202D8002B18BF7B
:107640001A4699F80030F2839B0700F00D811A4B1F
:1076500000221A8001F0A2FC164B1A78164B02F099
:10766000200000F0FF0128B100221A8084F82520B4
:107670001422B9E702F0100000F0FF0540B11980B4
:107680000123A383042384F8253084F82710AAE774
:107690001988B1B1D60748BFA583A28B82B9E28B06
:1076A000914288BF1A801B88A3830AE0806500206E
:1076B0008C6500208C660020986800209C66002065
:1076C0001A80002384F827306D4B1B68CAF80030FD
:1076D0006C4B1B882BB1A38B1BB13C333B80182216
:1076E00007E0694B1B789D0740F1BE803C233B803F
:1076F0001022664B83F8352059E099F80030DC07FA
:1077000040F1B280002386F825305F4B10221A70BA
:1077100001F044FCA8E0388808B1FFF743F995F878
:10772000353013F001030FD099F80030D80745BF6A
:10773000072386F825300623002346BF86F8263027
:10774000B38386F8253016E099F80020D1071BD5C1
:10775000052286F82520B38386E0388808B1FFF734
:1077600021F995F83530DA070ED5072386F825304C
:10777000002386F826300120FFF714F9102389F83A
:10778000003001F00BFC0DE03B885BB96CE099F830
:107790000030DB0768D5072386F82530002386F8FC
:1077A000263061E0102385F835303C233B80374B91
:1077B000502283F83420237D344D85F83030637DAA
:1077C00005F1180685F83130A37D85F83230E37D68
:1077D00085F83330237E85F82C30637E85F82D3094
:1077E000A37E85F82E30E37E85F82F30238A2B8503
:1077F000638A6B8594E80F0086E80F0005F10800A6
:107800003146FEF731FD94F8253003F0100303F004
:10781000FF022BB1002385F8373085F8363004E0BD
:107820003C2385F8362085F83730184C0623A371A1
:10783000174B1B79E3713B88283B1A1263710023B5
:10784000227184F83B3084F83A30238705F088FDB4
:10785000C04320870D4B60221A7000225A705A8054
:10786000094B00221A7007E00A4A002313700A4AE3
:107870003B801370044A137003B0BDE8F08F00BF63
:107880007C650020986800208C6600208C650020B4
:107890000C640020575D0020585D00200C4A034610
:1078A000106828B10B4A121A9142A8BF114602E093
:1078B000C429A8BFC421002909DD074A83421180D9
:1078C00005D08AB200B90548194604F05BBF70477D
:1078D0007C6500208C66002098680020C865002028
:1078E00010B5044640B102F0BBFA044B2146BDE896
:1078F0001040186803F052B910BD00BF5841002075
:1079000008B503F02FFB034B03491868BDE8084096
:1079100003F08CB858410020E178200070B51E4675
:107920000C4B04469DF810201868059B03F0ACF83A
:10793000054668B120462B4604F1100250F8041B9E
:10794000904243F8041BF9D16E74284602F088FA7D
:10795000284670BD58410020024B0146186806F0C9
:10796000CEBB00BF5841002070B50C4D06462868BC
:1079700003F070F8044666B9002070BD2046314619
:10798000102204F0CDFE38B12146286806F07FFBB6
:107990000446002CF2D1EFE7204670BD584100208C
:1079A000024B0146186806F091BB00BF5841002009
:1079B00070B5054610200C4603F02AFA0849064621
:1079C00006F0B2FB58B930462946224603F068FA61
:1079D000304629462246BDE8704002F017BA70BD15
:1079E0006EEA20000C4AB82303FB0022002330B5C6
:1079F00053821A46094CE1188D782DB11C5D8442E2
:107A000002BF00248C70013240F24C5171338B4222
:107A1000F0D1104630BD00BF584E0020695D0020F7
:107A200008B5064801F01AF9054B01221A70FD212C
:107A300000225A709970DA7008BD00BF897C20005E
:107A40005F5D002010B513780446087A83F00203C6
:107A500098421DD1487A5378984219D1887A937800
:107A6000984215D1C87AD378984211D1087B1379FE
:107A700098420DD1487B5379984209D1887B9379FC
:107A8000984205D1C87BD379984201D103201BE0ED
:107A90000B890F4A6BB94B89B3F57F4F09D18B899D
:107AA000FE2B06D11368C989022023F8021B13603C
:107AB0000AE0136851F8080F083343F8080C4868C7
:107AC00043F8040C13600120A040C0B210BD00BFF9
:107AD000444E002010B50F4C0220A17903F07EF92E
