:020000040020DA
:1020000038440020C1312000C3212100C12121001A
:10201000C1212100C1212100C121210000000000B7
:10202000000000000000000000000000C1212100AD
:10203000C121210000000000C12121004B28210006
:102040006D28210073282100792821007F28210094
:10205000000000005128210057282100C121210043
:10206000C12121000000000000000000000000006D
:102070000000000000000000C1212100000000005D
:102080000000000000000000C1212100C12121004A
:10209000C1212100C1212100C1212100C121210034
:1020A000C1212100C1212100C1212100C121210024
:1020B000C1212100C1212100C1212100C121210014
:1020C000C1212100C1212100C1212100C121210004
:1020D000C1212100000000000000000000000000FD
:1020E00000000000000000000000000000000000F0
:1020F0000000000000000000557020006570200006
:1021000000000000000000000000000000000000CF
:1021100000000000000000000000000000000000BF
:1021200000000000000000000000000000000000AF
:10213000000000000000000000000000000000009F
:10214000000000000000000000000000000000008F
:10215000000000000000000000000000000000007F
:10216000000000000000000000000000000000006F
:10217000000000000000000000000000000000005F
:10218000000000000000000000000000000000004F
:10219000000000000000000000000000000000003F
:1021A000000000000000000000000000000000002F
:1021B000000000000000000000000000000000001F
:1021C000000000000000000000000000000000000F
:1021D00000000000000000000000000000000000FF
:1021E00000000000000000000000000000000000EF
:1021F00000000000000000000000000000000000DF
:1022000000000000000000000000000000000000CE
:1022100000000000000000000000000000000000BE
:1022200000000000000000000000000000000000AE
:10223000000000000000000000000000000000009E
:10224000000000000000000000000000000000008E
:10225000000000000000000000000000000000007E
:10226000000000000000000000000000000000006E
:10227000C12121003D6F2000616F2000F565200025
:1022800071702000DD602000C121210000000000ED
:102290002DE9F04F0F469FB083460B4600200021EA
:1022A000CDE904010392002219971A921C4613F8F3
:1022B000016B2D2E00F2F080DFE816F02E00EE000C
:1022C000EE00EE00EE00EE00EE00EE00EE00DD00AF
:1022D000DD00DD00DD00DD00EE00EE00EE00EE00D2
:1022E000EE00EE00EE00EE00EE00EE00EE00EE007E
:1022F000EE00EE00EE00EE00EE00EE00DD00EE007F
:10230000EE00EE00EE00EE00EE00EE00EE00EE005D
:10231000EE004400EE00DA00039B4FF000084FF09F
:10232000000953B100230693039B1F60069B23B152
:10233000414609F1004388469946404649461FB048
:10234000BDE8F08F00230693631C19936678002E76
:10235000E2D0302E1C4600F0A480002308940A939B
:10236000A6F130034FF0000A092B55462346544688
:1023700019D8082CC8BF0AEB8A0A05EB850203F1BD
:10238000010306EB42021993C4BF06EB4A06A6F10D
:10239000300A1E78D8BFA2F13005A6F13002092A12
:1023A00004F10104E5D9584607930EF0E9FDD0F891
:1023B000008058460EF0E4FD00680DF0AFFF079B6B
:1023C0000246414618460DF0D7FF8046002800F02F
:1023D000E480002084468646A146652E73D0452EB3
:1023E00071D00023B9F1000F47D0B9F1100FC846E2
:1023F000CCEB03032846A8BF4FF0100807930FF05B
:1024000087FB002C08BF4C46B8F1090FCDE9040149
:1024100013DD764B03EBC80353E912230FF0EEFBF9
:10242000064650460F460FF073FB02460B463046F9
:1024300039460FF031FACDE90401B9F10F0F00F37D
:10244000D780079B002B00F0A580079B40F3678592
:10245000162B00F3D284DDE904230798634901EBCE
:10246000C001D1E900010FF0C9FB804689460DE0AB
:102470000123069368E7199318E718B90A9B002B04
:1024800000F0A1824FF000084FF00009039B002BE1
:102490003FF44CAF199F47E70023302E06937FF49B
:1024A0005CAF6378582B00F0A483782B00F0A183F5
:1024B000013419942678302EFAD0002EE2D0012370
:1024C00008940A934CE7B9F1000F4ED0199F7B1C7A
:1024D00019937E782B2E00F06D822D2E00F06482F1
:1024E0004FF00008A6F13003092B324600F20282B9
:1024F000302E06D1199B013319931E78302EFAD055
:102500003246313A082A3FF66CAF199B19460A4603
:10251000013219920793A6F130034E78A6F13001EB
:1025200009290BD80132199203EB830306EB43030D
:102530001678303BA6F130010929F3D90799521AD0
:10254000082A00F3518444F61F629342A8BF134641
:10255000C8F1000253404344B9F1000F7FF445AF86
:102560008BE74FF0000C4FF0010E002840F028825E
:102570000A9B002B3FF4D0AE8146A7E76FF00043E3
:1025800005934FF0FF3304932B0742BF059B43F0A5
:1025900000430593DDE9048978E758460EF0F0FC26
:1025A00000680DF0BBFE199B1A1819921E5C002CD6
:1025B00040F0E881302E204605D10132199216787C
:1025C0000130302EF9D0A6F13103082B00F2A082A1
:1025D000199B303E089300F1010C4FF0010905EB07
:1025E000850506EB45050020DAE100BF58412100D2
:1025F000079BC8EB09089844B8F1000F40F39A8391
:1026000018F00F000AD0DDE90423C14901EBC00135
:10261000D1E900010FF0F2FACDE9040138F00F061C
:1026200040F0288200230A930095089922464B46E1
:1026300058460EF01DFD1090002800F03B83079ACD
:102640000021002AC2F10003A8BF0B460F460C93DD
:1026500022EAE27307910B93109C584661680EF0D2
:1026600093FC8246002800F0A582DDE90423214680
:102670009046994622690C31023292000C30CDE925
:1026800008890DF0C9FB1BA81CA98DE80300424670
:102690004B4658460EF0F8FF1A90002800F08B8247
:1026A000584601210EF07EFD0746002800F0828288
:1026B0001B9A002AC0F212810C9B0B9903EB0208B3
:1026C0000A981C9B121A1A446FF47F708242C3F15D
:1026D000360380F2EC80801A1F28A3EB000300F37E
:1026E0000281012500228540119208EB0309C145B2
:1026F0004A46A8BF4246CE180A9B1E44B242134621
:10270000A8BF3346002B04DDC3EB0909F61AC3EB5F
:1027100008080C9BB3B1394658461A460EF0ECFD3A
:102720000746002800F04682584639461A9A0EF0AD
:1027300043FD0446002800F03D8258461A990EF0E9
:102740004BFC1A94B9F1000F08DD4A4658461A9915
:102750000EF022FE1A90002800F02D820B9B43B150
:10276000514658460B9A0EF0C7FD8246002800F0ED
:102770002182002E08DD5146324658460EF00CFEEE
:102780008246002800F01682B8F1000F08DD3946B5
:10279000424658460EF000FE0746002800F00A8226
:1027A00058461A9952460EF073FE0790002800F022
:1027B0000182079A0026D3683946D6600D930EF041
:1027C00043FEB042C0F2208400F0DD830798394612
:1027D0000EF0AEFF00224FF0804304460D460FF08E
:1027E00089FC002867D00D9B002B00F0A280B14629
:1027F000484DDDF814C0DFF81C810024464E474BDD
:102800000CEA06069E4200F027820A9B23B3B6F12B
:10281000D46F21D83CA3D3E90023484641460FF0AA
:1028200069FCB0B1484641460FF0AAFC8146002839
:1028300000F026830FF06CF9814688460D9B002B33
:1028400040F0198308F10043CDF850901593DDE96D
:10285000144505F1D6639D1BDDE908010EF08AFEE3
:1028600002460B46204629460FF0C8F902460B46A1
:10287000DDE908010FF010F80C46CDE904010A9BD0
:1028800023B9254B23409E4200F01F8258461A99D7
:102890000EF0A2FB584651460EF09EFB58463946B4
:1028A0000EF09AFB584607990EF096FBD4E60022EC
:1028B0001192012519E71A4B2046294600220FF0F4
:1028C0009DF90D9B8146884673BB01F100430E9034
:1028D0000F93DDE90E45DDF814C08FE70B9BDDF8A3
:1028E0003080991AECE60F480125801A05FA00F2AB
:1028F0001192FAE619970023B9F1000F7FF475AD34
:10290000BBE500BFAFF300800000C0FFFFFFDF4169
:10291000584121000000F03F0000F07F0000E07F00
:102920000000E03FE3FBFFFF02460B46CDE90E232C
:10293000CFE7049BDDE90401002B40F0DE80C1F30A
:1029400013038C46002B40F0DC8011912046294671
:102950000022B54B0FF0C4FBDDF844C0002840F066
:102960009883B24B2046294600220FF047F9814652
:10297000884601F10043DDF844C016901793DDE965
:1029800016453BE74046A146C446A6F13002092A57
:1029900013D8431C1646002A40F04D821846199B56
:1029A0005A1C19925E78F0E74FF00108BB1C19938E
:1029B000BE7897E54FF00008F8E74FF0010E0CE500
:1029C0004FF0000982E5BEF1000F7FF4A5AC493E4F
:1029D000252E3FF6A1AC01A353F826F05B2B200077
:1029E0001923200019232000192320001923200077
:1029F000232B200019232000192320001923200055
:102A00001923200019232000192320001923200056
:102A10001923200019232000192320001923200046
:102A20001923200019232000192320001923200036
:102A30001923200019232000192320001923200026
:102A40001923200019232000192320001923200016
:102A50001923200019232000192320005B2B2000BC
:102A600019232000192320001923200019232000F6
:102A7000232B2000B6F59A7F00F31C813611012E1E
:102A8000DFF8D08140F32383DDE9040147464FF0AE
:102A9000000A16F0010F0AF1010A4FEA660603D098
:102AA000D7E900230FF0AAF8012E07F10807F0D1AB
:102AB000CDE90401059B08EBCA08A3F15473059303
:102AC000DDE90423D8E900010FF098F821F0004374
:102AD0001B0D574A1B059342CDE9040100F2EA8021
:102AE000A2F58012934240F2CF82524B059300230D
:102AF0000A934FF0FF33049396E5012800F0C38159
:102B00008C4600244C4D4FF00009DFF81C8175E61F
:102B1000652E3FF426AD4FF00009CC464FF0010E74
:102B20005DE41999454809E011F8013FA3F141041A
:102B3000192C98BF203393427FF4EEAB10F8012B91
:102B4000002AF1D14B1C19934B78282B00F0FD8201
:102B50003B4B0593002304931CE5199A394809E07F
:102B600012F8013FA3F14104192C98BF20338B4286
:102B70007FF4D2AB10F8011B0029F1D11992154650
:102B8000314809E012F8013FA3F14104192C98BF24
:102B900020338B4240F0988210F8011B0029F1D1BC
:102BA00001321992294B059300230493F2E4013179
:102BB00040F0B8821A98254B0022059322230492F4
:102BC000CBF80030DDE90489014658460EF004FADE
:102BD000584651460EF000FA584639460EF0FCF9B8
:102BE000584610990EF0F8F9584607990EF0F4F986
:102BF0004CE4069A1AAB01920093584619A9144A5C
:102C00001BAB0DF071FE10F0070605463FF43AAC21
:102C1000062E40F047810134002319944FF000083C
:102C20004FF00009069331E40000F03F0000E03F60
:102C30000000A07CFFFFEF7F0000F0BF30462100C6
:102C40000000F8FF24462100284621000000F07F04
:102C50003446210020422100ACF154730593DDE994
:102C60000423104619460EF085FC02460B4620460A
:102C700029460EF0C3FF02460B46DDE904010EF0C3
:102C80000BFE21F000431B0DB34A1B059342CDE917
:102C90000401DDE90801CDE9120140F2A980AF4B42
:102CA000139A9A4200F0EB81AC4B05934FF0FF333F
:102CB0000493EBE5AA4B0022059304922223DDE95D
:102CC0000489CBF80030FFF7E1BB414648460FF0DE
:102CD0002FFA0EF02DFF0B460246414648460EF0F5
:102CE000D9FD0D9B8046894683B9049B73B9C4F313
:102CF00013045CB992A3D3E900230FF0F1F9002883
:102D00003FF4C4ADDDE904891A985DE78EA3D3E9E9
:102D10000023404649460FF0E3F90028F2D18CA386
:102D2000D3E90023404649460FF0F8F900283FF464
:102D3000ADADE7E73FF476ACC8F1000717F00F023E
:102D40000AD0DDE90401874B03EBC203D3E900237A
:102D50000FF07EF8CDE904013F113FF463AC1F2F63
:102D600039DC17F0100300F0E7816A23002FD8BF89
:102D70000A9314DDDDE904017B4E0A9317F0010F7D
:102D80004FEA670703D0D6E900230EF037FF002F84
:102D900006F10806F2DC0A9BCDE9040193B1DDE9F6
:102DA0000401C1F30A53C3F16B03002B0ADD1F2B8F
:102DB00040F3E8810022342B049240F3EB814FF082
:102DC0005C730593DDE90401002200230FF07EF916
:102DD00000283FF429AC2223CBF800304FF0000844
:102DE0004FF00009FFF752BB44F61F63FFF7B0BB7B
:102DF000059B03F15474059441E5079AC9F1250335
:102E00009A423FF7F5ABDDE90423564CC9F10F09AF
:102E100004EBC901D1E900010EF0F0FE079BC9EBFC
:102E2000030904EBC904D4E900230EF0E7FE804651
:102E30008946FFF72BBB012B9C4414D0484402E089
:102E40005D00814510D009F1010909F1FF33082B1C
:102E500005EB8503F4DDB9F1100FDCBF0AEB8A0A3C
:102E60004FEA4A0AEDE74846082800F101097FDCED
:102E7000199BFFF7B4BB4A464346CDE91423E6E469
:102E8000DFF8E880DAE4DDE904239C46002B7FF4D8
:102E900038AE2223CBF800301A984FF000084FF0DC
:102EA000000991E61A9A3AB11CA835210EF06CFC83
:102EB00058461A990EF090F81B9B062E3FF664AB0D
:102EC00001A252F826F000BF152F2000FD2E200091
:102ED000F12E2000E52E20007D252000FD2E200073
:102EE000152F20001E4B059300230493FFF74CBBC6
:102EF0001C9B04931D9B0593FFF746BB1D9A1C99D1
:102F000003F2334322F4801242EA035304910593FF
:102F1000FFF73ABB002305930493FFF735BB163345
:102F2000FFF666ABDDE90401079A0E4BA3EBC20383
:102F3000D3E900230EF08CFF80468946FFF7A6BA3E
:102F40009535A094FFFFCF3F9535A094FFFFDF3F5D
:102F500035E5AF350000E03FFFFF9F7CFFFFEF7FCF
:102F60000000F07F58412100304121000000F03F77
:102F7000B9F1100FD7BF0AEB8A0A199B199B02EB14
:102F80004A0A00200CE50D9EAE46DDE90889002EB8
:102F900000F08880DDE90445824BC5F313019942B6
:102FA0002A4600F0A980119B002B00F08880059A2A
:102FB00013420DD0DDE904010A9A002E00F08A8048
:102FC0000DF058FA42464B460EF066FC80468946A4
:102FD0000A9BBBB1744B4046139300231293DDE967
:102FE000122349460EF00AFE02460B4680468946E9
:102FF000CDE9042331B9049B23B922231A98CBF8D5
:103000000030E1E51A98DFE50D9EDDE90889002E24
:10301000DED1049B002BDBD1DDE90401C1F31303F6
:103020000C46002BD4D1059B23F000431B0D1B0540
:10303000B3F1D66FCCD9079A536913B91369012B31
:10304000C6DD0799012258460EF0A6F939460790C9
:103050000EF0FAF90028BBDD0A9B002B40F08780B8
:10306000524B2340A3F580136FEA13536FEA0353C7
:1030700005934FF0FF330493DDE90489A8E7129B21
:1030800001337FF411AE95E501F154730593FFF719
:10309000C9BA474B0022CDE91623DDF83490DFF89A
:1030A0001C816CE4DDE90401C1F313030C46002B21
:1030B0007FF479AF049B002B7FF475AFCCE7049AC3
:1030C0001EEA020F84D075E76B1C19936AE54FF076
:1030D000000AEFE40DF0CEF902460B4640464946A1
:1030E0000EF0D8FB00220023804689460EF0EEFF4A
:1030F00000287FF4CEAE6BE70A9B049913B32B4BE9
:103100002B40B3F1D46F1DD81B0DC3F16B034FF0EF
:10311000FF3000FA03F399427FF445AF254B9A4202
:103120003FF445AD214B134003F580130593002375
:103130000493DDE904894BE7002FD8BF0A933FF7DA
:1031400019AE3FE64FF0FF33E5E719A81A491CAA6C
:103150000DF054FE05287FF4FBAC1D9B43F0FF43AC
:1031600043F4E00305931C9B0493FFF713BA0F4B42
:103170002340B3F1D66F3FF775AFB3F15C7F3FF7F4
:1031800029AF86E64FF0FF3202FA03F3049A1A40A1
:10319000049217E6203B4FF0FF3202FA03F30B4094
:1031A00005930FE6FFFF0F00000050390000F07F8D
:1031B0000000E0BFFFFFEF7F104621000000E03F6E
:1031C00008B5094BFF221A600848094A4824E369F8
:1031D0000849121A98470848084AA3690021121A98
:1031E000984702F07FFCFEE7B4200D40400000202D
:1031F000EE0B0020AC512100F00B0020313C0020F0
:1032000010B5044600200146024608F0CBFA044BF4
:103210000482186005F0B8F8024B188010BD00BF9A
:10322000000C002048270020024B1888013080B293
:103230001880704748270020F7B504460123216015
:10324000037100230B700E46016800790A7842EA88
:1032500080120A70206862790178120102F030024F
:103260000A430270A27A206802F00F0102780A4332
:1032700002702268A179517022892168120A8A702D
:1032800022682189D170A279002A00F0408122466B
:1032900052F80A5B0435A17A8B4205D212F8011F5D
:1032A000013305F8011BF6E7E37C03F0020303F0AA
:1032B000FF015BB194F86A30002100932A46012097
:1032C00004F16B030FF044F801210544E37C1A0775
:1032D00008D5236C2A4600930320636C0FF038F85E
:1032E00003210544E37CDB060AD594F824302A4602
:1032F0000093042004F125030FF02AF8042105446B
:10330000E37C9F0606D52A46052000230EF0F0FF39
:1033100005210544E37C580606D52A460620636E3F
:103320000EF0E6FF0621054494F91330002B07DA6E
:103330002A460720B4F850300EF0DAFF0721054482
:10334000237DDA070AD5A36C2A4600932F23019325
:103350000820E36C0FF00CF808210544237D1B07BF
:103360000AD5E36D2A4600932F2301930B20236E89
:103370000EF0FEFF0B210544237DDF0606D52A460D
:103380000C20A38B0EF0B4FF0C210544237D5806BE
:1033900006D52A460E20236A0EF0AAFF0E21054408
:1033A00094F91430002B0CDAD4F894302A460093A8
:1033B000262301930F20D4F898300EF0D9FF0F2167
:1033C0000544637D9A0707D52A461120B4F8683072
:1033D0000EF08EFF11210544637DDB060AD5636D77
:1033E0002A460093262301931420A36D0EF0C0FFFC
:1033F0001421054494F91530002B1CDA676F94F8FA
:1034000078303F010BB147F00807B4F87A3000205C
:103410001B09421C5B0892B201D01046F9E7002A52
:1034200018BF024602F00F0317202A463B430EF056
:103430005FFF17210544A37D1F071DD5D4F88070B9
:1034400094F884303F010BB147F00807B4F8863098
:1034500000201B09421C5B0892B201D01046F9E71C
:10346000002A18BF024602F00F031B202A463B43E6
:103470000EF03EFF1B210544A37DD80607D52A4642
:103480001C20D4F88C300EF033FF1C210544E37D62
:103490001A0708D5236B2A4600932320636B0EF08E
:1034A00057FF2321054494F91730002B08DAA36B4A
:1034B0002A4600932720E36B0EF04AFF272105449C
:1034C000A37EDB0606D52A463C20D4F890300EF0C9
:1034D0000FFF05442368EB1A3E2B11DCB4F89E3035
:1034E00013B1FF2305F8013B2846D4F8A010B4F827
:1034F0009E200CF007FDB4F89E00AD1B284407E0A9
:10350000044A054B0025256028461A6000E0042087
:1035100003B0F0BD68472100680400202DE9F041A8
:103520008C46104904460F680D46BE4600F110084F
:10353000764620686168083403C64445B646F7D12C
:103540001146A7F812C01A46384608F0D3F82C687E
:103550000021204610220CF039FD00236382BDE8D3
:10356000F08100BF000C00202DE9F7438846064695
:1035700000219146A4220CF029FDC6F8008098F89D
:1035800000309B09337198F80020012BC2F301121F
:10359000727198F8004004F00F07B77298F8012094
:1035A000B27198F8021098F8032042EA01223281A1
:1035B00001D0A14A02E0082F04D9A04AA04B8020E4
:1035C0001A6035E108F1040421463A4606F10B0081
:1035D0000CF022FC06F11300002108220CF0F6FC8E
:1035E0003C44002708EB09039C4280F020812578A9
:1035F00005F0F003F02B14D10134C4EB0808C144EA
:103600001FFA89F9B9F1400F8ABF4023A6F89E90AE
:10361000A6F89E30B6F89E300020C6F8A040E054D0
:1036200006E12B090D2B05F00F0503D16378023459
:103630000D330AE00E2B03BFA378627803F20D135B
:10364000013404BF03EB022303340D2D03D114F81E
:10365000015B0D3508E00E2D01BF657805F20D12F6
:1036600014F8025B02EB05251F4406EBD70107F0B7
:103670000703012202FA03F0CB7C0E2F43EA00037A
:10368000CB746CD029D8062F00F0AB8017D8032F4D
:1036900000F084800BD8974240F0C0802A46082D65
:1036A00028BF082286F86A2006F16B006DE0042F1F
:1036B0005BD0052F40F0B28086F89C20B5E0082F43
:1036C0007DD06ED30B2F73D00C2F40F0A7802046F7
:1036D00029460EF079FDB083A7E01B2F00F087800C
:1036E00026D8112F4AD009D80F2F40F097802623D3
:1036F000009306F1980006F1940166E0142F69D05A
:10370000172F40F08B80204629460EF05DFDC0F358
:10371000C00300F0070286F8783010239340A6F823
:103720007A3020F00F0393400009F36770677CE064
:10373000232F2ED008D81C2F70D1204629460EF0FA
:1037400043FDC6F88C0070E0272F22D03C2F65D1B6
:10375000204629460EF038FDC6F8900065E0204668
:1037600029460EF031FD30625FE02A46082D28BF61
:10377000082286F8242006F1250006E02046294686
:103780000EF022FDA6F868004FE021460CF044FB45
:103790004BE02C4A2A4BA5201A6049E0746435643A
:1037A00043E0204629460EF00FFDA6F850003CE00D
:1037B0002F23009306F1600006F15C0105E02F2342
:1037C000009306F14C0006F1480122462B460EF00C
:1037D00006FD2AE02623009306F1580006F1540165
:1037E000F3E7204629460EF0EFFC70661DE0204608
:1037F00029460EF0E9FCC0F3C00300F0070286F88A
:10380000843010239340A6F8863020F00F039340B5
:103810000009C6F88830C6F8800006E0FB0704D52A
:10382000094A074B82201A6002E02C44DAE60020A5
:1038300003B0BDE8F08300BF97472100AE472100E9
:1038400068040020D3472100FA472100014B18608B
:10385000704700BFAC0C00202DE9F04F038887B003
:10386000814633B1B3F5AD7F13D00023038003202D
:103870009DE1A548A54900F0B1FD00F0A9F943F28A
:103880001630FFF7BDFC4FF4AD73A9F800300120EE
:103890008DE19F4B1B788B4240F083819D4D00232F
:1038A0002B709D4B1B789907EDD59C4E9C4B9D4CE6
:1038B000316820461A88FFF757FEB0460746287041
:1038C000994E002840F00781A379013B032B00F2B9
:1038D000DC80964B964A1B7802F108012833208938
:1038E000D25A00F07FF93060002800F0C8804023F1
:1038F000ADF80A30637903970497059723B98D488B
:1039000002214522238905E0FFF78EFC0346894802
:10391000012145220EF067FDA27A1AB18548864939
:103920000EF096FD04AB00937E4803A900220DF132
:103930000A030EF054FE40B1BDF80A30402B28BFF8
:103940004023ADF80A30049B05937C4BD3F800C0AC
:10395000BCF1000F00F08F803268764FDFF8C4B101
:1039600005A90091BDF80A30584639467432E0473F
:10397000BA4600286ED02B78002B6BD19BF81630FE
:103980001A070DD597F90630002B09DBBB7D1B0705
:1039900006D4604BA1221A70694A6A4B1A6059E03A
:1039A00094F91530059A002B41DA049B9A4223D1F1
:1039B000BAF89E105F4F8A4205D38223BB71384606
:1039C00061490F2244E0BDF80A308A1A9A4294BF36
:1039D00000220122039938460EF01AFE0499B7F826
:1039E0009E30BDF80A205B1AD7F8A0E09A4238460C
:1039F000714428BF1A462BE001320399BDF80A3002
:103A000006D1BAF89E209A4294BF0022012200E01B
:103A10000122484F38460EF0FBFDBDF80A20BAF8E7
:103A20009E30934216D93846D7F8A01010E08AB1DC
:103A3000013218BF012200213E4840230EF0E8FD6C
:103A4000BAF89E203B483F2ADAF8A01088BF4022EF
:103A50000EF015FE2B78002B3DD13768354807F165
:103A60003601FFF7E9FB80B2B886002833D1294B35
:103A7000C1221A702FE0A1232B70344A02E0A32345
:103A8000334A2B702F4B1A6025E0636823F07F4385
:103A900023F0FF0313B9C3232B700CE06379032BCE
:103AA00009D1224B224A1B7802F108002833D15A4F
:103AB000228900F0C7F9208900F018F9306040B180
:103AC000C76AD0F830A000F0AFF817B150461549DA
:103AD000B847002333602B780E4F30682BB900288D
:103AE0003FF4D1AE00F0B6F8CDE6C22B02D100F023
:103AF0009BF8C8E600F098F83B78C32B2AD1002346
:103B00003B7003212BE000BF9404002016482100E5
:103B1000273C00207E2B0020203700202C3700205F
:103B20000C360020B00C0020040C0020D52D002005
:103B300020360020080C0020BB0C0020AC0C00201C
:103B40002748210068040020374821004748210009
:103B500058482100BF2B84BFA0233B7002212A7844
:103B6000238914480EF03FFC134B144D1C6820466B
:103B70000CF0D4FB214602460E480EF080FD104B9F
:103B8000D8F800401B78214628330A485E5BFFF7CF
:103B900053FB314683B2224605F10800FFF7BEFC15
:103BA00071E688297FF46FAE00F0AEF86BE607B0DF
:103BB000BDE8F08FB00C0020680400202036002003
:103BC000D52D00200148002104F0A0BA6C0400208B
:103BD000024B1A68024B1A60704700BF281200207F
:103BE000580D0020F8B507460D480D4616460EF054
:103BF000C1FF044690B1294600230376878000F177
:103C00001A0305F1100251F8040B914243F8040B1A
:103C1000F9D16685034821460EF07AFF2046F8BDAB
:103C20007C040020540D002010B5044660B108301B
:103C300004F04EF9214605480EF056FF2146BDE836
:103C4000104003480EF0AABF10BD00BF540D002065
:103C50007C0400202DE9F041044600F11A073846A3
:103C6000618D04F13602A38EFFF758FC94F83650AC
:103C7000C5F3011575BB237E032B1AD853B904F085
:103C800083FBC023B0FBF3F202FB130000F28110B0
:103C9000E06002E0E3685B00E360124D124B2E68C7
:103CA0001B6804F108002B600EF0A8FE2E60BDE832
:103CB000F081E66A3846618DD4F8308000F04AF829
:103CC0002046FFF7B1FF56B1404629463346BDE8CE
:103CD000F04118472046BDE8F041FFF7A5BFBDE819
:103CE000F08100BF28120020580D002010B50446B6
:103CF00004480EF0EFFE20B18388A34201D0006893
:103D0000F9E710BD540D002010B509480EF0E2FE91
:103D1000044664B104F108000EF079FE28B1237E58
:103D2000204601332376FFF795FF2468F1E710BDA5
:103D3000540D002010B50446044821460EF02EFF15
:103D40002146BDE8104002480EF0CEBE8804002097
:103D50002C110020F8B506460C480F460EF0BAFEAE
:103D6000044600257CB104F11800314610220CF005
:103D700021F830B9238DBB4203D12046FFF7DAFF8B
:103D800001352468EEE72846F8BD00BF2C1100205D
:103D90002DE9F84307461348884691461E460EF023
:103DA00099FE04460025D4B104F1180039461022CA
:103DB0000CF000F888B9238D43450ED194F82A30D1
:103DC000B3420AD104F12B00494632460BF0F2FF10
:103DD00018B92046FFF7AEFF01352468E3E728460F
:103DE000BDE8F8832C1100202DE9F843074614485C
:103DF000894690460EF06EFE04460025E4B14FB1B0
:103E000004F11800394610220BF0D4FF90B9238D2D
:103E10004B450FD1261D464508D030460CF07EFAA2
:103E20004146024630460BF0C5FF18B92046FFF761
:103E300081FF01352468E1E72846BDE8F88300BF2B
:103E40002C1100202DE9F04106460F480F46904600
:103E50000EF040FE0446002594B104F118003146EE
:103E600010220BF0A7FF48B9238DBB4206D1A38EC9
:103E7000434503D12046FFF75DFF01352468EBE79A
:103E80002846BDE8F08100BF2C1100202DE9F0414B
:103E90004668DAB0804630460D460CF03FFA0446DC
:103EA000314603A813220CF0B1FA122C07DC35B10D
:103EB00003AB18192946C4F113020CF0A7FA002429
:103EC000234608A8012145228DF81F400EF08BFAE9
:103ED00023460122214631A80EF085FA03A931A814
:103EE0000EF02BFB03A80CF019FA06462D480EF035
:103EF000F1FD0446002C52D0251D28460CF00EFA88
:103F0000B04208D049DD98F80830DB0645D5A31942
:103F10001B792F2B41D103A8294632460CF02CFAED
:103F200000283AD1FFF780F904F11801228DFFF73C
:103F300059FE054688B3A16B142391FBF3F203FBF2
:103F400012130BB98DF82530AB8831A8A386AB8846
:103F5000D8F81070ADF828300023009308A940234A
:103F600005F17402B8479DF92630002B05DBA16BE3
:103F700008A84B1CA3630EF02BFB04F12B0194F853
:103F80002A2008A80EF064FA08A805F13601FFF708
:103F900053F9A8862846FFF75DFE2468AAE75AB0C1
:103FA000BDE8F0812C1100202DE9F74F92468A7967
:103FB0000B46012A6ED19AF90620002A6ADBCA7CD8
:103FC000520667D54E6E002E48D1344A344D1278D1
:103FD000D1F860C0283232F805808F7AD1F85CB011
:103FE000624601F10B0905F108004146CDF804C015
:103FF000FFF7FAFE2B480EF0BDFD044600283ED028
:10400000BBF1130FDDF804C0A8BF4FF0130B6146DE
:104010005A460430A3440BF0FFFE8BF8046004F111
:10402000180E05F108030FCB8EE80F0049463A46FB
:10403000A4F8288084F82A7004F12B000BF0ECFE21
:104040002146A68618480EF063FD5046A16B4B1C16
:10405000A36303B0BDE8F04F0EF0BABA012E19D138
:104060000E4A1249127801F108002832895A03F1E8
:104070000B029B7A03B0BDE8F04FFFF789BE5046B4
:104080000B49A32310228AF8063003B0BDE8F04F95
:104090000EF0F5BA03B0BDE8F08F00BFD52D0020BB
:1040A00020360020880400202C110020203600201B
:1040B0007C4821002DE9F74F0C9F8B4690461E4609
:1040C00000F0A6F90EF006FD002481462546B9F160
:1040D000000F7CD04DB13B689D4205D3B4423EBF3A
:1040E0002C2308F80430013401353B689D4205D388
:1040F000B4423EBF3C2308F8043001343A686B1CDC
:10410000934205D3B4423EBF2F2308F80430013454
:10411000D9F804C002356046CDF804C00CF0FEF8B2
:104120003B6800EB050A9A45DDF804C00FD9711C05
:104130005B1B08EB0400091B002BACBF63440CF1B4
:104140000003344A0EF01EFC0444B4423FD23B68E4
:104150009A4505D3B4423EBF3E2308F804300134EB
:10416000D9F80C300AF1010543B31B7833B33B682F
:104170009D4205D3B4423EBF3B2308F804300134CE
:10418000D9F80C300AF1020A184601930CF0C6F86F
:104190003A6800EB0A059542019B0FD9CAEB020A67
:1041A000711C08EB0400091BBAF1000FA8BF5344AF
:1041B000184A0EF0E7FB0444B44204E0B44203D9C9
:1041C0003A682B1B934203D8D9F800907FE74CB193
:1041D0004146584622460EF052FA584628210EF023
:1041E0004EF909E045B1822158460EF02BF95846A8
:1041F00009490F220EF043FAB9F1000F03D14FF035
:10420000FF333B6002E03B681E443E6003B0BDE804
:10421000F08F00BF8D4821003748210070B502881B
:104220000546C02A09D0D02A21D082B91B4B85214E
:10423000186803F043FFC02307E085290BD1184815
:104240000EF048FC044644B9D0232B8003E0002341
:104250000380032070BD012070BDE3692BB1A1680C
:1042600019B104F10C000EF0B7FB2468EBE78829C4
:10427000EAD10B480EF02EFC0446002CE4D0A368D3
:1042800053B104F10C0630460EF0C1FB20B1E369D6
:10429000984730460EF0A9FB2468EEE7281200206C
:1042A000301100202DE9F04F3A4D87B00E46994667
:1042B00006A9002341F8043DEB6890460746DDF867
:1042C00040A09847029034480EF004FC0446DDF804
:1042D00014B0002C51D06368184603930CF01EF8FC
:1042E000029B02468342039B07D044DD217AC90624
:1042F00041D51BF800102F293DD1184659460CF026
:104300003BF8002837D12B6938469847C20704D5B7
:10431000D4F810C0BCF1000F14D1830704D5D4F831
:1043200014C0BCF1000F0DD1410704D5D4F818C05A
:10433000BCF1000F06D1020715D5D4F81CC0BCF1A2
:10434000000F10D04B46CDF800A03846314642460B
:10435000E047237A5B0617D520462B6E3946324656
:104360009847012005E06B693046D5F88C109847D6
:10437000002001240AE02468ABE76B693046D5F8D9
:1043800088109847012001E001200446204007B032
:10439000BDE8F08F484221003411002038B50A4BA7
:1043A0001C7884B9094D012209481A700EF08FFB60
:1043B000AB68084898476B6898472146BDE8384085
:1043C000054803F0A3BE38BD862B002048422100DB
:1043D00034110020A5422000B804002010B5044686
:1043E0004160094821460EF093FB94F90830002BF8
:1043F00009DA216ACB6933B18B6823B1BDE810407B
:1044000002480EF085BB10BD341100203011002091
:10441000004870473411002010B50446436E984799
:10442000034BE06E19780022BDE8104003F046BE51
:104430001E3C00202DE9F3470C4617461E46002B74
:1044400000F0698191F8B0341BB101F595600EF070
:104450003BF994F8B1346BB93B78012E84F8B13450
:10446000D4F8AC3403F10103C4F8AC3400F0538148
:10447000012500E0002594F8B7345BBB7819B542FC
:1044800080F04981D4F8AC3494F8B8240133013277
:10449000052B10F8011B05F10105C4F8AC3484F8B4
:1044A000B82405D9204680210022FFF7B5FF32E16C
:1044B00094F8B634B4F8B2E401F07F0202FB03E2F0
:1044C000DB0184F8B6340B06A4F8B224D7D4012358
:1044D00084F8B734B4F8B224B2F5007F36D994F832
:1044E000B13403F0F003302B30D0D4F8AC340132C7
:1044F0001E449642C4F8AC64C0F00D8108E102F09D
:10450000F002302A2CD094F8B904C5EB0608C0F5A7
:104510000073984528BF984620447919424600F216
:10452000BA400BF079FCD4F8AC3494F8B924434485
:10453000424484F8B924C4F8AC3445440022D1B2D2
:10454000414502F10102FAD3B54262D2B4F8B22475
:10455000D4F8AC340132934294F8B124CFD35EE066
:1045600094F8BF26002ACED194F8BE26A2B97A5D6F
:10457000691C1202581CB142A4F8BA26C4F8AC0453
:1045800045D2795C02330A43C4F8AC3401230235C6
:10459000A4F8BA2684F8BE36B4F8BEA6BAF1010F64
:1045A000B1D1B4F8BC06B4F8BA36C5EB06081A1A8D
:1045B000904528BF904620441FFA88F979194A4649
:1045C00000F2C4600BF028FCB4F8BC26D4F8AC347C
:1045D0004244B4F8BA1692B24B4491424D44C4F8E6
:1045E000AC34A4F8BC260ED16318002284F8BFA610
:1045F00083F8C426B4F8B234023B5B1A9BB2A4F829
:104600001037A4F81237012384F80E377BE70D46E4
:1046100079E7B4F8B2240132934297D27BE002F0FA
:10462000F003502B6FD006D8302B38D0402B45D01C
:10463000202B6DD118E0702B65D002D8602B62D092
:1046400066E0902B4FF0010246D0B02B60D184F889
:10465000992294F8BB3494F8BA24204643EA022302
:10466000A4F8B43403214BE094F8BB342BB12046BA
:10467000822104F2BB42FFF7CFFEE18A012384F8D6
:10468000993204F11800C901254A234603F01EFBA4
:104690000823002184F8603020460A4636E004F200
:1046A000BA43C4F8083794F8B9342046A4F80C3754
:1046B0000023A4F812370EF011F829E0012384F842
:1046C000993294F8BA2494F8BB34204643EA022382
:1046D000A4F8B434052113E084F8992294F8BB348B
:1046E00094F8BA24204643EA022394F8BC24ADF897
:1046F00004308DF80620A4F8B434022101AA05E0A4
:1047000004F2B44202E0204684210022FFF784FE36
:10471000012384F8B034002002B0BDE8F08700BF68
:104720002547200010B590F8383002468BB100F2D2
:104730002C74022380F8603020460EF01FFB2046C8
:1047400006F072FF2046BDE81040002134220BF035
:104750003DBC034B03481978BDE8104003F0AEBCE4
:10476000872B0020C804002030B50446052300250F
:1047700080F86030012385B0A0F86830A0F89C5222
:1047800080F8385000F595600DF09EFF0E4A04F158
:10479000740302920D4A84F87452009304F22C754B
:1047A0004FF400730392214604F2A6220193284697
:1047B00006F0C0FE2846B4F8282704F5E36105B0EA
:1047C000BDE8304006F0ECBE35442000D147200063
:1047D00013B50C468DF80720042A3BD8DFE802F019
:1047E000200303032D001C4B224619781B4803F0BD
:1047F00065FC032384F8603004F1180003F0A8FA84
:10480000204601210DF10702FFF706FE20460DF0BC
:104810007DFF637D012B1DD12046FFF7A5FF19E029
:10482000062381F86030012381F874320C4B224654
:1048300019780A4803F042FC0CE0B1F84E372BB966
:10484000012381F8743201F174030B6704F118003D
:1048500003F062FA02B010BD8F2B0020C8040020C4
:104860008A2B002038B51D4C2578002D34D103F05B
:10487000BDFB1B4B18701B4B187003F0B7FB1A4B9A
:10488000187003F0B3FB194B187003F0AFFB184B13
:10489000187003F0ABFB174B187003F0A7FB164B17
:1048A000187003F0A3FB154B187003F09FFB144B1B
:1048B000187003F09BFB134B1870134B187003F028
:1048C00095FB124B187012480EF001F91148294659
:1048D00003F01CFC0123237038BD00BF8E2B002089
:1048E000922B0020882B00208A2B00208D2B00206B
:1048F000902B0020912B00208B2B0020872B002059
:104900001E3C00208F2B0020892B00208C2B0020A8
:104910003C110020C8040020F8B51F461378044657
:104920000E46154633B34FF4EC6200210BF04EFBFC
:10493000294604F10C000DF050FFBDF818200123AA
:1049400000256375A4F8A422A4F8683004F59560E6
:104950006766E666A4F89C5284F838500DF0B4FE01
:1049600084F87452FFF77EFF034821460EF0D0F81A
:104970002846F8BD8220F8BD3C1100207FB50446D2
:1049800090F8600003281ED8E38204F174032367C3
:10499000002384F89932237DC4F8141743F00203EE
:1049A000A4F828272375084604F5E36669460EF047
:1049B000F1F99DE80F0086E80F00044B04481978D0
:1049C000224603F07BFB002004B070BD922B002038
:1049D000C804002090F860300246082B07D1092354
:1049E00080F86030024B0348197803F067BB7047CA
:1049F0008D2B0020C80400202DE9F3418DF807100D
:104A000040F2A741038806468B42154600F0128308
:104A1000B3F5956F0CD240F282418B421ED040F22A
:104A200099418B4200F03687002B40F09D8057E083
:104A300040F2C6418B4200F0E58305D840F2B9410F
:104A40008B4200F06A838FE040F2D3418B4200F04A
:104A5000F284B3F59C6F00F0F08585E0C44B9DF8BF
:104A600007201B789A4207D1C24B28461D600A23B3
:104A700085F860300DF04AFEBF4B9DF807201B788B
:104A80009A4204D1BB4B28461D60FFF76DFEBB4B1D
:104A90009DF807201B789A4225D0B94A9DF8073027
:104AA0001178994200F0B782B64B9DF807201B7829
:104AB0009A4200F02283B44B9DF807201B789A425B
:104AC00000F09083B14B9DF807201B789A4200F0CC
:104AD000A284AF4B9DF807201B789A4200F09D8579
:104AE00040F282433CE0A34B1D60B5F8A432A5F828
:104AF000543795F87432012BCFD10023A5F89C329E
:104B00009C4F3C68B4F89C32B3F5D17F00F08B81A8
:104B100057D8B3F5CD7F00F00A8132D840F2971212
:104B2000934200F0D980B3F5CC7F22D2002B00F065
:104B30008E80B3F5CA7F40F06A8294F87432002BFD
:104B400040F0B3803B6893F860300A2BA5D0914BBE
:104B500000221868904B197803F0B0FA40F299439C
:104B60003380012000F040BF00233380032000F099
:104B70003BBF00F0BF8040F29912934200F0C88022
:104B800045E240F29D12934200F01481B3F5CF7FCD
:104B900009D240F29B12934200F0D780B3F5CE7F4A
:104BA00000F0E18033E240F29F12934200F01E8158
:104BB000B3F5CF7F40F20C81B3F5D07F00F02481B4
:104BC00025E240F2B312934200F0A281B3F5DA7FFE
:104BD00020D240F2A712934200F05A81B3F5D47F5D
:104BE00009D2B3F5D27F00F0348140F2A51293428E
:104BF00000F03E810BE240F2A912934200F0658181
:104C0000B3F5D47F40F2528140F2AB12934200F0F0
:104C10006D81FCE1B3F5DD7F00F0BC8109D8B3F50F
:104C2000DA7F00F0848140F2B712934200F0908165
:104C3000EDE1B3F5DF7F00F0CD81B3F5E57F00F066
:104C4000CE8140F2BB12934240F0E181B1E1228A71
:104C5000102384F8783202B1023202F10C03B4F866
:104C6000542002B102321344B4F85C2002B1023283
:104C70001344B4F8402002B102321344B4F848207F
:104C800002B102321A44C4F87C2204F5207004F503
:104C900021710DF006FD94F88432042B05D92046CD
:104CA00081210022FFF7B8FBB1E1204694F8781289
:104CB0000DF05CFD20B14FF4CA73A4F89C323CE7C0
:104CC000204604F5207194F884220DF05FFD40B178
:104CD00040F29713A4F89C3294F87432002BEFD171
:104CE00030E7204600210DF041FD40B14FF4CC7378
:104CF000A4F89C3294F87432002BF2D122E72046BB
:104D000006210DF033FD40B140F29913A4F89C3216
:104D100094F87432002BF2D114E720461F49062282
:104D20000DF034FD40B14FF4CD73A4F89C3294F8EB
:104D30007432002BF1D105E7204603210DF016FD5A
:104D400040B140F29B13A4F89C3294F87432002BCB
:104D5000F2D1F7E62046217D0DF008FD00B34FF4B7
:104D6000CE73A4F89C3294F87432002BF2D1E9E6A9
:104D70008F2B002038110020922B00208A2B00203E
:104D80008D2B0020872B0020902B0020912B0020C2
:104D90008B2B0020281200208C2B0020A248210001
:104DA000E18A2046090A0DF0E1FC40B140F29D1372
:104DB000A4F89C3294F87432002BF1D1C2E620465C
:104DC000A17D0DF0D3FC40B14FF4CF73A4F89C3219
:104DD00094F87432002BF2D1B4E6204600210DF095
:104DE000C5FC40B140F29F13A4F89C3294F8743291
:104DF000002BF2D1A6E62046217C0DF0B7FC40B195
:104E00004FF4D073A4F89C3294F87432002BF2D192
:104E100098E62046E168228A0DF0B8FC40B14FF4D4
:104E2000D173A4F89C3294F87432002BF1D189E646
:104E3000237D5A0704D494F91430002B5BDA5EE02A
:104E4000204600210DF092FC40B14FF4D273A4F83B
:104E50009C3294F87432002BF2D173E6204694F819
:104E600040100DF083FC40B140F2A513A4F89C3231
:104E700094F87432002BF1D164E62046E16BB4F86B
:104E800040200DF083FC40B140F2A713A4F89C32FF
:104E900094F87432002BF0D154E6204600210DF036
:104EA00065FC40B14FF4D473A4F89C3294F874328A
:104EB000002BF2D146E6204694F848100DF056FC3F
:104EC00040B140F2A913A4F89C3294F87432002B3C
:104ED000F1D137E62046616CB4F848200DF056FC5D
:104EE0000028A8D040F2AB13A4F89C3294F8743296
:104EF000002BEFD126E6237D5B0642D42DE0204631
:104F000000210DF033FC40B140F2B313A4F89C3201
:104F100094F87432002BF2D114E6204694F8541021
:104F20000DF024FC40B14FF4DA73A4F89C3294F8ED
:104F30007432002BF1D105E62046216DB4F85420DF
:104F40000DF024FC0028D6D040F2B713A4F89C3210
:104F500094F87432002BEFD1F4E520460DF0F5FB08
:104F6000072384F86030201D4FF4A0610DF064FD2C
:104F700004F595600DF0A8FB4FF4E573A4F89C329E
:104F80002DE0204600210DF0F1FB40B14FF4DD7320
:104F9000A4F89C3294F87432002BF2D1D2E520466A
:104FA00094F85C100DF0E2FB40B140F2BB13A4F8A2
:104FB0009C3294F87432002BF1D1C3E52046A16DE8
:104FC000B4F85C200DF0E2FB0028C6D04FF4DF738C
:104FD000A4F89C3294F87432002BEFD1B2E594F827
:104FE000993204F10408012B07D140460DF036FD3B
:104FF00048B12046FFF7EEFC05E040460DF02EFDDF
:105000000028F2D19EE504F595600DF05DFB0023CC
:10501000A4F89C3241E5BF4B1D6095F86030092B28
:105020007FF442AD95F87432012B61D10023A5F8CD
:105030009C320BE0B84B9DF807101B788B4200F0B8
:105040003F84B64B1B788B4240F2448440F2E51219
:10505000B04F3C68B4F89C32934212D0B3F5F37F62
:1050600001D22BB137E01BD0B3F5F87F2AD032E064
:105070002046E0210DF07AFB48B140F2E513A4F898
:105080009C3294F87432002BF2D100F02EBC2046F2
:1050900000210DF06BFB48B14FF4F373A4F89C3280
:1050A00094F87432002BF2D100F01FBC20460DF0B2
:1050B0004CFB201D4FF480710DF0BEFC4FF4F873D3
:1050C000A4F89C3294F874322BB9201D0DF0C6FC64
:1050D000002800F00A840023A4F89C3238680DF000
:1050E00015FB386801210DF10702FFF795F9DBE4A4
:1050F0002A468B4802F0E2FFD6E4864B1D6095F805
:105100007432012B7FF4D7AC95F86030082B7FF414
:10511000D2AC0023A5F89C320BE07F4B9DF8071022
:105120001B788B4200F0CC837C4B1B788B4240F287
:10513000ED8340F2D221774A14681746B4F89C32C6
:105140008B4214D001D84BB148E040F2D3229342B5
:105150001BD040F2DE2293422FD03FE02046C021F8
:105160000DF004FB40B140F2D223A4F89C3294F835
:105170007432002BF2D1D3E3204600210DF0F6FA71
:1051800040B140F2D323A4F89C3294F87432002B3F
:10519000F2D1C5E320460DF0D8FA012384F8383067
:1051A00004F595600DF090FA201D4FF4A0610DF00C
:1051B00043FC40F2DE23A4F89C3294F8B0343BB1B7
:1051C00004F595600DF080FA002384F8383005E08E
:1051D000201D0DF043FC0028F2D1A1E30023A4F828
:1051E0009C3268E44B4B1D6095F87432012B7FF4C0
:1051F00069AC95F86030082B7FF464AC0023A5F807
:105200009C320BE0444B9DF807101B788B4200F05A
:105210005783424B1B788B4240F2938340F2162215
:105220003C4B1C689846B4F89C72974200F084800E
:105230000ED8B7F5047F48D001D817B3E6E040F2A6
:1052400013239F4252D040F215239F425CD0DDE0F1
:1052500040F21B239F4200F09F80B7F5077F08D2E2
:10526000B7F5067F78D040F219239F4200F0838083
:10527000CCE000F0A08040F225239F4200F0B080F7
:10528000C4E0B4F88C228223053284F87832C4F862
:105290007C2204F5207004F521710DF002FA94F8D7
:1052A0008432042B07D9204681213A46FFF7B4F80F
:1052B000A4F89C7206E4204694F878120DF056FA91
:1052C00040B14FF40473A4F89C3294F87432002B6C
:1052D000F1D140E3204604F5207194F884220DF0CA
:1052E00055FA40B140F21323A4F89C3294F874327A
:1052F000002BEFD12FE3204600210DF037FA88B1C3
:1053000040F21523A4F89C3294F87432002BF2D1A9
:1053100021E300BF381100208F2B0020882B0020B4
:10532000C8040020204694F886120DF01FFA40B100
:1053300040F21623A4F89C3294F87432002BF1D179
:1053400009E3B4F88C122046090A0DF00FFA40B1B7
:105350004FF40673A4F89C3294F87432002BF0D109
:10536000F9E2204694F88C120DF000FA40B140F2B8
:105370001923A4F89C3294F87432002BF1D1EAE29C
:105380002046D4F88812B4F88C220DF0FFF940B111
:1053900040F21B23A4F89C3294F87432002BEFD116
:1053A000D9E2204694F898120DF0E0F940B14FF49C
:1053B0000773A4F89C3294F87432002BF1D1CAE23E
:1053C00020460DF0C2F9201D4FF4A0610DF034FB12
:1053D00004F595600DF078F940F22523A4F89C328D
:1053E00094F89932271D012B0AD138460DF036FB6F
:1053F00004F595600DF068F9002384F86A3005E043
:1054000038460DF02BFB0028EFD1A4E20023A4F8CE
:105410009C32FFF757BBC84B1D6095F87432012BC7
:105420007FF457AB95F86030082B7FF452AB002324
:10543000A5F89C320BE0C14B9DF807101B788B42FE
:1054400000F03E82BE4B1B788B4240F29682BA4BF4
:105450001C689846B4F89C72B7F5157F7DD011D8BA
:1054600040F24F239F424AD0B7F5147F01D20FB3C9
:10547000CEE040F251239F4252D040F253239F424C
:105480005CD0C5E040F257239F4200F08580B7F51D
:10549000167F04D240F256239F426ED0B8E040F20D
:1054A00059239F4200F0898040F262239F4200F01E
:1054B0009980ADE0B4F88C22A223043284F87832CB
:1054C000C4F87C2204F5207004F521710DF0E9F890
:1054D00094F88432042B08D9204681213A46FEF7FD
:1054E0009BFFA4F89C72FFF7F4BA204694F8781258
:1054F0000DF03CF940B140F24F23A4F89C3294F8EF
:105500007432002BF1D142E2204604F5207194F868
:1055100084220DF03BF940B140F25123A4F89C32B3
:1055200094F87432002BEFD131E2204600210DF0C7
:105530001DF940B140F25323A4F89C3294F8743220
:10554000002BF2D123E2204694F886120DF00EF9DA
:1055500040B14FF41573A4F89C3294F87432002BC8
:10556000F1D114E2B4F88C122046090A0DF0FEF8CD
:1055700040B140F25623A4F89C3294F87432002BC8
:10558000F0D104E2204694F88C120DF0EFF840B10F
:1055900040F25723A4F89C3294F87432002BF1D1D6
:1055A000F5E12046D4F88812B4F88C220DF0EEF81C
:1055B00040B140F25923A4F89C3294F87432002B85
:1055C000EFD1E4E120460DF0C0F8201D4FF4A061BA
:1055D0000DF032FA04F595600DF076F840F2622392
:1055E000A4F89C3294F89932271D012B0AD1384631
:1055F0000DF034FA04F595600DF066F8002384F898
:105600006A3005E038460DF029FA0028EFD1BEE1F6
:105610000023A4F89C32FFF75CBA474B1D6095F855
:105620007432012B7FF45CAA95F86030082B7FF46C
:1056300057AA0023A5F89C320BE0404B9DF80710B9
:105640001B788B4200F03C813D4B1B788B4240F233
:10565000B081394D2C68B4F89C32B3F5267F00F048
:105660009C8011D840F2932293425FD0B3F5257FFE
:1056700001D223B309E140F2952293426ED040F269
:10568000972293427AD000E140F29D22934200F0AB
:10569000B58009D840F29A22934200F08F80B3F58A
:1056A000277F00F09C80F0E040F2A222934200F0BD
:1056B000B68040F2B322934200F0D180E5E094F846
:1056C000982294F89A12530043F03003DBB2012978
:1056D00084F8783204BF43F0010384F87832B4F8D8
:1056E0008C12D4F894320B440AB9023300E004332C
:1056F000C4F87C3204F5207004F52171D4F87C22C2
:105700000CF0CFFF94F88432042B05D92046812178
:105710000022FEF781FEB8E0204694F878120DF0E2
:1057200025F878B140F29323A4F89C3294F87432AF
:10573000002BF1D147E100BF381100208F2B002052
:10574000882B0020204604F5207194F884220DF067
:105750001DF840B140F29523A4F89C3294F87432BD
:10576000002BEFD12FE1B4F88C122046090A0CF07F
:10577000FDFF40B140F29723A4F89C3294F87432B4
:10578000002BF0D11FE1204694F88C120CF0EEFFB4
:1057900040B14FF42673A4F89C3294F87432002B75
:1057A000F1D110E12046D4F88812B4F88C220CF024
:1057B000EDFF40B140F29A23A4F89C3294F8743281
:1057C000002BEFD1FFE094F89832E3B1204600219E
:1057D0000CF0CCFF40B14FF42773A4F89C3294F83E
:1057E0007432002BF2D1EEE0204694F886120CF0D1
:1057F000BDFF40B140F29D23A4F89C3294F874326E
:10580000002BF1D1DFE02046D4F89012B4F89422B6
:105810000CF0BCFF40B140F2A223A4F89C3294F8F3
:105820007432002BEFD1CEE020460CF08EFF201D0D
:105830004FF4A0610DF000F994F898222AB96C4B4E
:10584000E06E197802F03AFC18E0012A16D104F54E
:1058500095600CF039FF40F2B323A4F89C3294F821
:105860009932271D012B03D138460DF0F7F805E0DA
:1058700038460DF0F3F80028F6D1A4E004F5956061
:105880000CF022FF002384F86A300023A4F89C3235
:10589000FFF726B9574B9DF807101B788B420FD0A6
:1058A000554B1B788B423FF62BA9544B1B788B42F0
:1058B000FFF426A9524B186802F000FCFFF720B94C
:1058C000504B0A221B68022083F860200022A3F8B4
:1058D0009C2289E0494B1B788B42FFF4B7AB484BC5
:1058E000186802F0EBFBFFF7B1BB3B6893F8603040
:1058F0000A2B3FF4F3AB424B00221868424B197855
:1059000002F0DCFB40F2A743FFF72AB93B4B1B78C0
:105910008B42FFF40EAC3A4B186802F0CFFB08E460
:105920003B6893F86030082B7FF4C5A8344B002205
:105930001868354B197802F0C1FB40F2B943FFF704
:105940000FB92E4B1B788B42FFF468AC2C4B1868B8
:1059500002F0B4FB62E4D8F8003093F86030082B12
:105960007FF4B0A8264B00221868274B197802F064
:10597000A5FB40F2C643FFF7F3B8204B1B788B42E0
:10598000FFF465AD1E4B186802F098FB5FE5D8F890
:10599000003093F86030082B7FF49BA8184B00224E
:1059A0001868194B197802F089FB40F2D343FFF7CE
:1059B000D7B8124B1B788B42FFF44BAE104B1868D4
:1059C00002F07CFB45E62B6893F86030082B7FF4EF
:1059D00087A80B4B002218680B4B197802F06EFB5E
:1059E0004FF49C63FFF7BCB802B0BDE8F08100BF84
:1059F0001E3C00208F2B0020882B0020892B0020AC
:105A000028120020381100208C2B002070B51E4673
:105A100090F860300446082B20D190F86A5001219C
:105A2000F5B980F86A10B0F86810C0F88822023121
:105A300089B2A0F86810A0F8861210460AF06EFC31
:105A4000084BA4F88C0284F8986284F8995219786B
:105A50002246054802F032FB284670BD812070BD09
:105A6000084670BD902B0020C804002070B51E466B
:105A700090F860300446082B2BD190F86A50012131
:105A80004DBB80F86A10B0F868109DF818300231EC
:105A900089B2A0F86810A0F8861280F89A32C0F88F
:105AA000882210460AF03AFC049BA4F88C02C4F841
:105AB00094329DF81430C4F8906284F89832074B01
:105AC00084F8995219782246054802F0F7FA2846D8
:105AD00070BD812070BD084670BD00BF8B2B0020BB
:105AE000C8040020F7B500F035FC00F025FD00F0FB
:105AF00085FC00F067FA0CF09DFF00F015FD00F04A
:105B0000C3F801200CF075FE02F07EFA00F00EFCE6
:105B1000002000F025FB012000F022FB4649002078
:105B200000F0EEFB02F098FB0CF098FE04200CF065
:105B300060FE42480CF0BFFE41480CF0BCFE00F095
:105B4000E3F9002002F030FC01F01EFA3D4800218C
:105B500002F0DCFA02F084F80CF075FE00F06CFD47
:105B600000F084FD07F014FF6846082101F0B2FA46
:105B70009DF807309DF80670334C43EA07276B46C3
:105B800003CB20606160314801F060FC0025615D5D
:105B90002F48013501F05AFC072D2B4EF7D12D4D22
:105BA000F1792D4801F052FCEC6A4AF6CD31022021
:105BB000A04739460320A0471A210120A047694683
:105BC00008226B6B0B209847244801F03FFC244BC4
:105BD00018680CF070FE234801F038FC224B18685E
:105BE0000CF069FE214801F031FC214B18680CF0E3
:105BF00062FE204A336813607368536007F0E2FB6B
:105C00001D48002102F082FA1C48002102F07EFAB1
:105C10001B4B01219B68812098470CF0D5FE194849
:105C20000CF0C8FE00F088FB02200CF0E2FD00F052
:105C300089FB02F001FAFAE715822000B64821003C
:105C4000D048210020050020293C0020F5482100F3
:105C5000134921003C4421008A51210019492100A7
:105C60009444210020492100A0442100274921001B
:105C7000C844210018360020C4050020400500203B
:105C800054432100F844210008B500F0DDF8024B30
:105C900000221A7008BD00BF932B0020024A13781F
:105CA0001843107000F0F4B8932B0020034A1378C7
:105CB00023EA0000107000F0EBB800BF932B002027
:105CC00020B1012805D1044B18787047034B1868A0
:105CD00070470020704700BF942B002020900D409B
:105CE00010B5094A0020137801331370074B197857
:105CF00002F0E4F9BDE81040054B06481968064A71
:105D0000002301F0E3BF00BF942B00201F3C0020C4
:105D10006811002040110020E15C2000812810B5AE
:105D20000C462AD0B0F5807F39D0802839D102F0D6
:105D30005DF91D4B1D4A18701368002023F00803FD
:105D4000136052F8203C032123F0080342F8203C62
:105D500052F81C3C23F0080342F81C3C52F8183C53
:105D600043F0080342F8183C042200F0F3FB10480B
:105D70000021032200F094FB13E00E4B1A6831B1AE
:105D800042F008021A60002000F002FB05E022F059
:105D900008021A60084600F007FB204610BD064BBB
:105DA0001960012010BD00BF1F3C002020940D4051
:105DB000BD5D200010940D406811002008B50F480B
:105DC0000CF04CFEC0B108210C480CF035FE0C4B19
:105DD000196861B10B4B00221A700B4B0B481B6802
:105DE0001BB90B4A01F072FF01E001F0B1FFBDE801
:105DF0000840084802F0ACBA08BD00BF601100209E
:105E000068110020942B002020900D4040110020AC
:105E1000E15C200054432100084A136823F0040386
:105E2000136052F8203C43F0040342F8203C044B3A
:105E300000221A60034B01221A70704720C40D40E3
:105E400010C00D40952B00200D4A0E49136823F019
:105E5000C003136052F8203C43F0C00342F8203CDA
:105E6000094B00221A600B6823F010030B6051F8F5
:105E7000203C43F0100341F8203C044B1A6070476B
:105E800020A40D4020C40D4000A30D4040C00D4093
:105E900000F0020202F0FF010B4B12B1FF221A6068
:105EA00000E0196000F0040202F0FF01074B12B19C
:105EB000FF221A6000E0196010F00100044B1ABFC5
:105EC000FF221A601860704700A20D4000A10D402B
:105ED00040C00D40044B1868C0F30720030904BFFD
:105EE0001030C0B2704700BF1C300D40054B186821
:105EF000C0F3C21001289ABFC0F1020040034FF462
:105F00000040704714300D402DE9F04788B0FFF78E
:105F1000E1FF174B48251C68AB68074698476B683C
:105F2000804698470646FFF7E1FF054600F0A0FAD5
:105F3000824600F0A9FA814600F056FAB60AC4F388
:105F40004003AD0A04F00104029306900096019507
:105F50000394CDF810A0CDF814904146C7F3071272
:105F600007F00F03034801F071FA08B0BDE8F087AD
:105F70001C300D4035492100F8B500F06DF80F4B8D
:105F80000024D3E900673A46B04238BF7A1C154670
:105F90000443C3E90045DFF828E0DEE90001821B85
:105FA00061EB070312196B41CEE9002301F088FF72
:105FB00018B1BDE8F84001F013BFF8BDF00B0020A8
:105FC000F80B00200F4B104A1A6053F8042C42F0D3
:105FD000050243F8042C53F8042C42F0020243F863
:105FE000042C0A4A136843F001031360084B002293
:105FF0001A60042243F80C2C012243F8082C0F22CB
:10600000DA62704714E000E047E8010008200D4024
:106010000C000340034BD3E90023100A40EA03605D
:10602000704700BFF00B0020034BD3E90023D00BD7
:1060300040EA4340704700BFF80B0020054B186052
:106040001C3B1A6842F001021A601A68D207FCD49D
:10605000704700BF28000340074B084A1968043303
:106060001B681268120442EA0323054A0B431068B6
:1060700043EA0060704700BF40500D4048500D405B
:106080004C500D4010B50446114B1B68DB07FBD587
:106090000CF0E8FBFFF7E0FF231A062BD8BFC41D66
:1060A0000C4B220E1A60C4F3074243F8042CC4F3CD
:1060B000072243F8082CE2B243F80C2C0CF0CEFB7C
:1060C000054B91201C60BDE8104000F061B900BF95
:1060D00050500D404C500D406C11002008B5064B3F
:1060E000002291201A6000F06BF9912000F05CF919
:1060F000BDE8084002F02EB86C110020164A38B5F1
:106100002C2303FB00234FF6BF72DC680546236C8B
:1061100062649BB213F050020DD0A369DB0609D470
:106120000E4B53F825301BB12068C0B29847F4E7F6
:106130002368F2E738BD13F4D06F0BD04FF44073EF
:106140002363FF236360E36AE262E362236B43F04D
:106150000103236338BD00BF644321007011002098
:106160002DE9F04F012885B0064600F2BC802C23B3
:1061700043435E4AD51895F920A005F12007BAF1EE
:10618000000F9146C0F2AF8095F92220002AC0F29C
:10619000AA80574A59F803301168EC680B43136022
:1061A00051686B6895F921B00B4353609168AB68F7
:1061B00095F822800B4393600023C4F8C83F2B69F5
:1061C0000BEBCA021A6095F823305FFA88FC019342
:1061D0009DF80430604619462A7DCDF80CC0029324
:1061E00000F0C2F9029BDDF80CC019466046082297
:1061F00000F0B0F94FFA88F83E494FEA08389DF9A7
:10620000042058F80100012303FA02F2024348F87F
:1062100001204FEA0A3A5AF8010003FA0BF202434E
:106220004AF801205022A263A26B95F8240042F4A0
:10623000D062A263022262634FF440722263AA69B1
:106240006262EA69A2627022E26242B2002A0C46ED
:1062500014DB95F92510284D41EAC20129607979AE
:10626000120315594FB2BB402B431351002200F0CB
:1062700071F9224A136843F4004313602C2303FB93
:10628000069393F8265020336FB2002F1CDB93F84F
:1062900007A0EDB25FFA8AF82846414601223F0383
:1062A00000F062F94FFA8AFA3A59012303FA0AF325
:1062B00013433B5108222846414600F04BF90F4A50
:1062C000136843F4804313602C2303FB0696F268A3
:1062D00096F82800136B43F00103136305B0BDE883
:1062E000F04F00F055B805B0BDE8F08F64432100D1
:1062F00028200D4020940D4004410D4030D0004036
:1063000001289CBF014B43F82010704770110020FA
:10631000012808D8044B2C2202FB0030C3689A697C
:106320009206FCD41960704764432100014B00229F
:106330001A60704700500D40014B08221A607047E8
:1063400000500D40024BA0221A6050221A60704784
:1063500000500D40074A084B1A60084B80321A6003
:10636000074B80321A60074B80321A60064B074A8F
:106370001A60704700E100E08411002078110020CD
:106380007C1100208011002008ED00E0002020009A
:10639000044B41091A6800F01F000123834042F8B2
:1063A0002130704784110020044B41091A6800F025
:1063B0001F000123834042F82130704778110020EC
:1063C000044B41091A6800F01F000123834042F882
:1063D0002130704780110020024B1868C0F38150B3
:1063E000704700BF04200D4008B5FFF7F5FF024BD2
:1063F00053F8200008BD00BFBC43210038B5164D3E
:10640000164C2B68032023F040032B6023680621E1
:1064100023F040032360012200F09CF82B68012246
:1064200023F080032B602368032023F08003236084
:10643000072100F08FF80A4A0A4B1A600A4B0B4AF0
:1064400019680A40002AF9D11A685101FCD41A6867
:106450005201FCD538BD00BF20C40D4000C40D4022
:106460000101020000200D4004200D400000010148
:10647000034B04481B6803F007031841704700BF33
:1064800004200D400048E801034B04481B68C3F397
:1064900002231841704700BF04200D400048E80166
:1064A000024B02EBC10243F8220070478811002022
:1064B000F8B507460E46094D002405EB411547FA8D
:1064C00004F3DB07E1B204D555F824300BB13046B4
:1064D00098470134082CF2D1F8BD00BF8811002084
:1064E0002DE9F8430703DFF83C8007F1804505F507
:1064F0005925D5F8186457F808404FEAC00924FA1E
:1065000009F4014646EA0400E4B2C0B2F6B204FA65
:1065100009F4FFF7CDFFC5F81C6447F80840BDE853
:10652000F88300BF18970D4002480021802209F02F
:106530004DBD00BF88110020034A044B1A60044B74
:10654000803A1A60704700BF80400D400C12002056
:1065500008120020034B01EBC0011B6843F8212007
:10656000704700BF0C120020034B01EBC0011B68F9
:1065700043F82120704700BF081200200E2870B594
:106580000BD1164B164E1C6844F002051D60356891
:1065900025F03F0343F001033360124E336823F0CC
:1065A000FF031A431143014331600F4B1B681B0665
:1065B000FBD50E4B0E4A1B6812680E2803F0FC0335
:1065C00043EA022308BF064A9BB204BF1560034A90
:1065D0009BB208BF146018B270BD00BF3400014404
:1065E000F486084008700D4000700D400C700D409E
:1065F00010700D4010B58F20064CFFF7E1FE8F2084
:10660000FFF7D2FE206818B101F098FD0023236047
:1066100010BD00BF10120020064A136843F00203A9
:106620001360536843F002035360936843F002031E
:106630009360704748200D4007B5FFF7EDFF0A4B08
:106640001A6842F002021A6000220192019A0F2A8F
:1066500002DC019A0132F8E71A6822F002021A609D
:1066600003B05DF804FB00BF54200D40064A1368D8
:1066700023F002031360536823F00203536093680E
:1066800023F002039360704748200D40084B93F9B4
:106690000020002A09DB074AED2111601160E32187
:1066A00011601A7862F07F021A700120704700BFF3
:1066B000992B0020388808400B4B1A689207FBD4AE
:1066C0001B685B065FBF094BED221A601A60084B1E
:1066D0001B6813B1054BEF221A60064A012013789C
:1066E00003F07F03137070474C86084038880840D9
:1066F0002C860840992B002038B5A0F10B04E3B29A
:106700000F2B054613D80B4B1B6813F03F0302D029
:10671000FFF7D2FF012304EB8404074A0B34146013
:106720000BB1FFF7B3FF054BE8B21D7000E0FF208F
:1067300040B238BD488608403C860840EB0B00203C
:1067400010B50B4B1B68990603D1FFF79FFF012380
:1067500000E00023074A1268D207FBD5064A1468F6
:10676000C4F300140BB1FFF7A7FF204610BD00BF14
:1067700048860840648608404C860840044B1868E8
:1067800000F02200A0F1200358425841704700BF9A
:106790004C860840024B186800F04000704700BF6C
:1067A0004C86084038B50C46002900F08880102837
:1067B00000F28780DFE800F0090F1A1C23394253EA
:1067C000586F738585787A7C7F003F4B1B68003358
:1067D00018BF012370E03D4B05221B6803F07F03C7
:1067E0000B3B93FBF2F30B33DBB265E0384B00E07D
:1067F000384B1A68043B1B6843EA02235CE0002321
:106800000B60354B354A1B6803F001030B601268BF
:10681000900644BF43F002030B60314B1B78002B02
:106820004BD00B6843F0040346E02E4B00201B784E
:106830000860002B41D001230B6038BD2A4B1A6839
:106840000023D2B2294901EBC3000079904202D85B
:1068500051F8333030E001330E2BF3D128E0244BD4
:106860001B685BB2493B27E0224B1B68990603D1AA
:10687000FFF70CFF012300E000231F4A1268D20734
:10688000FBD51E4A1568493DEDB20BB1FFF714FF69
:106890006DB2256011E01A4B93F900300CE0194BF2
:1068A0001B7803F07F0307E00B2305E01A2303E0C6
:1068B0006FF0170300E007232360002038BD02209B
:1068C00038BD012038BD00BF2C8608403C860840FA
:1068D000CC850840D48508400086084024860840BE
:1068E000982B0020EA0B002040860840CC43210072
:1068F00058860840488608406486084060860840FC
:10690000972B0020962B002038B505460C46134BDC
:106910001B689B07FBD4124B93F90030002B01DB63
:10692000FFF7B4FE0F4BEE221A60691E1A60A21C1C
:1069300043F8102C2144022000F03EFB013C0A49A0
:1069400024012143022000F049FB022000F050FB0B
:10695000022000F065FB002038BD00BF4C860840D7
:10696000992B00203888084002C001C0F8B5214B9F
:1069700093F90030002B0DDBFFF76EFB0446FFF7A9
:1069800085FEFFF769FB6FF009031B1BC342F8D4B8
:10699000012600E00026184B1B7823B9174D2B6801
:1069A000990604D405E0FFF7CBFE0028F6D10220BB
:1069B000F8BD134CE923236004272B689A0707D4FA
:1069C000013F17F0FF0703D00620FFF737FBF4E77E
:1069D0002B689B0704D4EE2323602360012403E08B
:1069E0002C6814F00204FBD10EB1FFF765FE2046BF
:1069F000F8BD00BF992B0020EA0B00204C86084010
:106A000038880840044B1A6810B142F0010201E0D6
:106A100022F001021A607047008608400B280DD151
:106A2000082A0DD161B1074B083111F8012D43F847
:106A3000042F054A9342F8D1002070470120704787
:106A400002207047A4850840C485084070B5304EC8
:106A5000336813F0400308D02E4D2B68DCB21B06C0
:106A600005D52D4BED221A601A60002070BD042C54
:106A7000F7D9023C8C42F4DCE4B2032C21D001199A
:106A80000139032000F0A0FA631E24491B010320F2
:106A9000194300F0A3FA032000F0AAFA032000F043
:106AA000BFFA032000F0C8FA0028FAD129681C4B6D
:106AB0004939C9B219702B681A4D18062B70D0D5F8
:106AC00006E02B6803702B6843702B688370EDE73A
:106AD00049B289B2042006F031FF2978032001F081
:106AE0007F0106F02BFF104B1B7873B933685A06F1
:106AF0000BD5074B1B681B0603D50C4801F01EFB8A
:106B000003E0054BED221A601A60204670BD00BFFD
:106B10004C860840288808403888084002C0010C8C
:106B2000972B0020962B0020982B0020E8040020B3
:106B30001E4B1870002831D01D4B1B681B03FBD562
:106B40001C4B1A6842F002021A601A6842F00102F5
:106B50001A601A6817495007FBD50A6822F001022B
:106B60000A601968134A4907FBD4116841F0020111
:106B70001160116841F0010111601A685207FCD5DB
:106B80000D4A8D20136823F004031360D2F8A83156
:106B900023F00403C2F8A831FFF706BC064A8D2093
:106BA000136843F004031360FFF7F2BB982B002037
:106BB00004200D40048808408C86084010B50C461F
:106BC00007285CD8DFE800F0040F1B1F263C425664
:106BD000012903D1FFF75AFD002010BD002950D133
:106BE000FFF76AFDF8E7A1F10B030F2B49D8C8B2F4
:106BF000FFF782FD431C0CBF0320002010BD8CB2A8
:106C0000E2B2214B02E08CB2204BE2B2240A1A60BD
:106C10005C60E1E731F0070333D101F00100FFF7D9
:106C2000F1FE1B4B14F0020F1A68C4F3800014BF6E
:106C300042F0200222F020021A60FFF779FFCBE732
:106C400031F001001DD1134B197010BD01F1180373
:106C50001F2B16D80D231049DA0051F83300844257
:106C600004DC8B181A790D4B1A60B5E713F1FF336A
:106C7000F1D2B1E7CCB20A4B49341C60ACE7012039
:106C800010BD022010BD00BFC8850840D085084057
:106C900024860840EA0B0020CC43210040860840AF
:106CA00058860840F8B5294F3D7815F001054AD1BE
:106CB000274B01241C605C609C60A3F59323A3F523
:106CC0001473F8221A600922C3F890211522703338
:106CD0001A6003F59B230B2203F59E731A60A3F53C
:106CE0009B23A3F5F07340221A601A687F2642F0B6
:106CF00020021A60D52243F81C5CDE62DA61154B73
:106D00001878FFF7F9FC144B8E201E60FFF740FB4C
:106D1000022000F079F91149022000F055F9032012
:106D200000F072F90D49032000F046F90C4B187879
:106D3000FFF7FEFE0B48294601F0E8F93B782046B4
:106D400023433B70F8BD0020F8BD00BF992B002005
:106D5000A8200D40EB0B00209486084028880840AE
:106D6000982B0020E804002038B503880446CBB1F6
:106D700040F20342934203D000230380032038BD36
:106D8000194B18781A4628B11B7873B1174B1B782A
:106D900058060AD5822908D1137843B1134B1A78C3
:106DA000520614D440F203432380012038BD06F07C
:106DB0006BFD06F0FFFC8021FFF748FE0028EDDDAB
:106DC00080B206F0DBFC0A4B1B699847E6E700221D
:106DD0001A70084B1D68FFF76FFCFFF763FFAB06E7
:106DE000E0D0FFF753FCDDE7982B0020992B002023
:106DF000C8442100488608400B282DE9F84F8A46F0
:106E000011D1082A40F0828000297FD0414B01F146
:106E1000FF3A53F8042D0AF8012F3F4A9342F8D164
:106E20000020BDE8F88F0C286DD1042A6ED100290E
:106E30006CD03A493A480B68DFF8EC9023F007032E
:106E40000B600368DFF8E4B043F008030360DBF88D
:106E50000040D9F800200B68DFF8D4C0DFF8D480F8
:106E600023F070030B60D8F80050DCF80030E4B277
:106E7000120244EA036392B2DFF8BCE01A43EBB2B9
:106E800042EA03430024DEF8002044EA03060B68CC
:106E9000D5B223F0070343F001030B6003682F46CC
:106EA00043F008030360DBF80000D9F800200B680A
:106EB000120223F0700343F010030B60D8F8005067
:106EC000DCF80030C1B241EA036392B21A43EBB27C
:106ED00042EA0343DEF8002044EA03085FFA82F93D
:106EE000FFF7BAF8B6EB080667EB0907F9030546A2
:106EF00041EA5641F0030B4A002308F0A3F9281A8F
:106F0000CAF800008CE70120BDE8F88F0220BDE838
:106F1000F88F00BFC8850840A88508401088084041
:106F2000048808400048E801188808401488084090
:106F300020880840248808401C88084008B5054B74
:106F40001B7813B9044801F0F9F8044B00221A60C9
:106F500008BD00BF982B0020E804002034880840BA
:106F6000064B07481A68042A1FBF06490A7842F0F0
:106F700040020A7000221A6001F0E0B82C88084034
:106F8000E8040020992B002010B5094C0021204670
:106F9000402209F01BF8074B01221A602E205C608A
:106FA000FFF7F6F9BDE810402F20FFF7F1B900BF59
:106FB0000000002004F00F4003289EBF014B000199
:106FC000195070470000002003289EBF024B03EBBE
:106FD00000104160704700BF0000002003289EBFE2
:106FE000024B03EB00108160704700BF00000020DF
:106FF00003289FBF034901230A6883409CBF1343B2
:107000000B60704728F00F4003289FBF03490123FE
:107010000A6883409CBF13430B60704720F00F4009
:1070200003289FBF034901230A6883409CBF134381
:107030000B60704714F00F4003289FBF044B03EB15
:107040000010806800F0070088BF0020704700BF74
:1070500000000020024B4FF0FF321A60704700BF63
:1070600004F50F40014B01221A6070474CF00F40AD
:1070700010B59020064CFFF7A3F99020FFF794F984
:10708000206818B101F05AF80023236010BD00BF3A
:107090001412002070B50E4C054626784EB93046C5
:1070A000C021FFF735F930460D21FFF731F90123F3
:1070B00023700020E9B2FFF72BF90A2D05D100203B
:1070C000C021FFF725F900232370284670BD00BFBB
:1070D0009A2B002013B56B460A46044604490868FB
:1070E000496803C32046991A08F096FE02B010BD05
:1070F000074A210000200149FFF702B999732000D7
:107100002DE9F74F0388064633B1B3F5A57F11D0BB
:10711000002303800320EFE0794A1380794A13802B
:10712000794A1380794B01221A704FF4A57333808A
:107130000120E1E082294FF0010AF9D1DFF8C8B15E
:107140007348BBF80050734B425D83F800A0432A9C
:10715000DFF8AC81D94607462AD16A4B1A88954296
:1071600026D2521B052A23DD00EB050C60466A4936
:107170000622CDF804C008F01DFEDDF804C0044668
:10718000B0B960462146062208F020FF5D4BA8F802
:1071900000401C805D4BABF8004083F800A05F4BC3
:1071A000185D01340BF097FB0D2CF8D1002497E00B
:1071B000B8F800209542F9D002D300231C462EE0F7
:1071C00000247B5DDB2B04D055490B550134A4B260
:1071D00001E0012300E000230135ADB2954255D214
:1071E000B4F5807F01D9002450E0002BE9D07B5D0D
:1071F000DD2B01D1DB2102E0DC2BECD1C021484B9F
:107200001955E3E7B4F5807F1DD863B9795DDB29B3
:1072100017D0434801550134A4B20135ADB2B5F5DC
:10722000887FEFD310E07B5DDD2B01D1DB2102E015
:10723000DC2B04D1C0213A4B19550134A4B20023F0
:10724000EBE70123E9E70024002188B290421DD238
:10725000B4F5807FC7D863B17B5CDD2B01D1DB2027
:1072600002E0DC2B0DD1C0202D4B18550134A4B207
:1072700007E0785CDB2806D0294D28550134A4B2FC
:1072800002E0002300E001230131DEE7013292B287
:10729000B2F5887F04BF0023A8F80030194B18BF4F
:1072A000A8F80020B8F8002019888A4216D01046A5
:1072B00003468B4212D0F85CC02807D11948A8F8C1
:1072C0000030A9F8002000F039FF09E001339BB23B
:1072D000B3F5887F4FF00000EBD1E9E7A9F8002073
:1072E000114B1C80002C3FF420AF104B1B6803B1E6
:1072F000984704F077FA18E703B0BDE8F08F00BFB5
:107300004C2700204A2700204E2700209B2B0020DE
:107310009C2B0020243C00200F4A2100164A21000B
:1073200020360020F80400200C360020181200201F
:10733000014B1860704700BF1812002038B5C020FC
:107340000BF0C9FA114B00241149A2B209889142ED
:1073500016D93C2A04BF0F4B1B6818785D1CC02847
:1073600004D1DB200BF0B7FADC2004E0DB2802D1EB
:107370000BF0B1FADD200BF0AEFA01342B46E3E757
:10738000C0200BF0A8FA002038BD00BF2036002036
:107390000C3600202C37002038B5264B1A781C46B6
:1073A000022A06D0032A12D1C02804BF01221A7073
:1073B0003DE000F12402D2B2012A06D903221A705C
:1073C0001D4B1A881D4B1A8031E0012302E0DB2897
:1073D00001D102232370194B184D1A88511C89B210
:1073E000B1F5887F08BF0021198015491B880988DD
:1073F0008B4205D1032323700F4B1B882B8016E093
:10740000104B5428985407D15B5C432B0FD10E4886
:1074100000F094FE012038BDC02808D1064B188822
:10742000824203D08142F2D11A80F0E72A80002004
:1074300038BD00BF9B2B00204C2700204A2700208E
:107440004E2700209C2B0020F80400200FB407B525
:1074500004AA52F8041B0448019200F04DF803B04E
:107460005DF804EB04B07047080500201FB5084C18
:107470008DE80300114602A81A460294CDF80CD0FC
:1074800000F03AF8009B00221A7004B010BD00BF53
:107490005D2921000EB43FB5094B07AA52F8041B21
:1074A0000190049304A801AB0392059300F024F823
:1074B000019B00221A7006B05DF804EB03B0704720
:1074C0009F29210070B505460C46102C07D92B6862
:1074D000686808491022984750B9103CF5E734B164
:1074E0002B6868682246BDE870400249184720466C
:1074F00070BD00BF8E4A21002DE9F04F80468FB04D
:10750000069107920026069B1B78002B00F05F83F4
:10751000069B1C4613F8012B1AB9069B9C4203D10B
:107520000FE0252AF5D1F8E7069BD8F80400E51A04
:107530000699D8F800302A469847002840F02A8358
:107540002E442378002B00F042836378611C002BCB
:1075500000F03D8300240A4611F8013B2B2B11D08B
:1075600006D8202B11D0232B12D144F00804F2E7C7
:107570002D2B04D0302B0BD144F01004EBE744F05A
:107580000104E8E744F00604E5E744F00204E2E71A
:10759000A3F1310108290DD8134600251A4613F826
:1075A000011BA1F13000092811D80A2202FB0515A0
:1075B000303DF3E72A2B09D1079B01321D68191DC5
:1075C000002D0791B8BF44F0010400E000251378B6
:1075D0002E2B1CD15178531CA1F1300009280ED854
:1075E000194600270A780B46A2F13000092801F15C
:1075F00001010FD80A2303FB0727303FF2E72A29AE
:1076000006D1931C079A111D0791176802E01346D3
:107610004FF0FF371A786C2A09D15A786C2A02D1B8
:1076200044F080040AE0013344F060040BE0682A6F
:1076300009D15A78682A03D144F02004023302E0C9
:10764000013344F040041A78642A3CD01FD8462AFB
:1076500048D00DD8252A5AD003D8002A00F0B78286
:1076600057E0412A4AD0452A53D144F4424450E0DD
:10767000582A31D004D8472A4BD144F4A13448E0E9
:10768000612A38D0632A44D144F4A06441E06E2AD0
:107690003AD007D8662A22D027D3672A28D0692A69
:1076A00011D036E0732A2CD006D86F2A11D0702A58
:1076B0002FD144F440742CE0752A07D0782A28D1C1
:1076C00044F4C85425E044F4245422E044F4106403
:1076D0001FE044F488541CE044F4B24419E044F43C
:1076E000007416E044F4844413E044F4024410E0CF
:1076F00044F481340DE044F4C1340AE044F4E1344C
:1077000007E044F4806404E044F4E06401E044F4FD
:10771000C0640133069304F4E063B3F5806F00F0B6
:10772000AA8116D8B3F5807F2BD0B3F5407F7FF4C4
:10773000EAAE079BA04914F4804F03F104029F486E
:1077400018BF08460DF1330107920F461A6800234F
:10775000C5E1B3F5C06F08D0B3F5E06F00F031823A
:10776000B3F5A06F7FF4CFAE00E2D8F80030D8F8C0
:107770000400934901229847002840F00B8201360B
:10778000C1E6002FACBF24F01004012714F400530D
:10779000039304F0E00337D0402B17D008D8DBB1B7
:1077A000202B2AD1079B1A1D079293F9002017E07E
:1077B000602B11D0802B20D1079B073323F00703C8
:1077C00003F108020792D3E900230AE0079B1A1D80
:1077D0000792B3F9002003E0079B1A1D07921A686D
:1077E000D317002A73F1000109DA524263EB430315
:1077F000CDE900234FF0010933E000220023CDE959
:1078000000234FF000092CE0402B16D007D8CBB155
:10781000202B20D1079B1A1D07921A78EEE7602BC8
:1078200010D0802B17D1079B073323F0070303F1F8
:1078300008020792D3E90023E1E7079B1A1D07928C
:107840001A88DBE7079B00211A1D07921B68184660
:10785000CDE90001D5E700220023CDE900234FF058
:10786000000904F4C053B3F5805F0CD0B3F5C05FDA
:1078700033D0B3F5006F4FD1DDE900230DF1360AA7
:10788000CDE9042304E0DDE900230DF1360A15E01B
:10789000DDE9042313433AD0DDE904010A22002381
:1078A00007F0D0FCDDE9040130320AF8012D002395
:1078B0000A2207F0C7FCCDE90401E9E752EA030117
:1078C00025D002F0070130310AF8011DD10841EA44
:1078D0004371D8080A460346F0E7384B14F4804F4A
:1078E0000DF1360A344908BF1946DDE9002352EA92
:1078F00003000CD002F00F00085C4FEA131E0AF8D8
:10790000010D100940EA037002467346EFE70DF1DE
:10791000360BCAEB0B0B03E00DF1360A4FF0000BF0
:1079200041F6080241F208035F4502EA04028CBFF7
:10793000CBEB070700279A4202D1002F08BF01278F
:1079400041F608018A4207EB0B030DD1DDE9000186
:1079500050EA010208D01B4914F4804F1A4A4FF034
:10796000020C18BF0A4602E04FF0000C6246039971
:10797000A1B1B9F1000F0AD104F0060102290AD021
:107980000629124904BF4FF0010C0A4606E04FF0E9
:10799000010C0F4A02E00F4A4FF0010C63449D4274
:1079A0008CBFED1A002514F0010922D1E30613D58E
:1079B0002F444D461DE000BF594A21006A4A21006C
:1079C0008C4A21007E4A21007B4A2100834A210003
:1079D000814A21002549210040462946CDF80CC0A6
:1079E0000092FFF76FFD009ADDF80CC0002840F010
:1079F000D180BCF1000F0DD01146D8F8003062469E
:107A0000D8F80400CDF800C09847DDF800C0002881
:107A100040F0C0803C465E44102CD8F800300DD9B0
:107A2000D8F804006C491022CDF800C0984700280F
:107A300040F0B080103CDDF800C0EDE75CB1D8F854
:107A4000040065492246CDF800C09847DDF800C023
:107A5000002840F09F80D8F80030D8F80400514644
:107A60005A4666449847002840F094803E44B9F155
:107A7000000F79D073E0079BD3F800A01A1D07927E
:107A8000BAF1000F09D05346994699F80020013306
:107A9000002AF9D1CAEB090903E0DFF840A14FF051
:107AA0000609002F02DBB94528BFB9464D458CBFFA
:107AB000C9EB0505002514F0010405D1404629460F
:107AC000FFF700FD002865D1D8F80030D8F8040091
:107AD00051464A46984700285CD14E443EE052EA5F
