:020000040020DA
:10200000687B0020C13120004701210045012100EB
:10201000450121004501210045012100000000008B
:102020000000000000000000000000004501210049
:102030004501210000000000450121007F0621002C
:10204000A1062100A7062100AD062100B30621004C
:1020500000000000850621008B06210045012100BB
:102060004501210000000000000000000000000009
:1020700000000000000000004501210000000000F9
:102080000000000000000000450121004501210082
:1020900045012100450121004501210045012100A4
:1020A0004501210045012100450121004501210094
:1020B0004501210045012100450121004501210084
:1020C0004501210045012100450121004501210074
:1020D0004501210000000000000000000000000099
:1020E00000000000000000000000000000000000F0
:1020F0000000000000000000195A2000295A2000AA
:1021000000000000000000000000000000000000CF
:1021100000000000000000000000000000000000BF
:1021200000000000000000000000000000000000AF
:10213000000000000000000000000000000000009F
:10214000000000000000000000000000000000008F
:10215000000000000000000000000000000000007F
:10216000000000000000000000000000000000006F
:10217000000000000000000000000000000000005F
:10218000000000000000000000000000000000004F
:10219000000000000000000000000000000000003F
:1021A000000000000000000000000000000000002F
:1021B000000000000000000000000000000000001F
:1021C000000000000000000000000000000000000F
:1021D00000000000000000000000000000000000FF
:1021E00000000000000000000000000000000000EF
:1021F00000000000000000000000000000000000DF
:1022000000000000000000000000000000000000CE
:1022100000000000000000000000000000000000BE
:1022200000000000000000000000000000000000AE
:10223000000000000000000000000000000000009E
:10224000000000000000000000000000000000008E
:10225000000000000000000000000000000000007E
:10226000000000000000000000000000000000006E
:10227000450121000159200025592000B14F2000BF
:10228000895B20004D4A200045012100000000002C
:102290002DE9F04F0F469FB083460B4600200021EA
:1022A000CDE904010392002219971A921C4613F8F3
:1022B000016B2D2E00F2F080DFE816F02E00EE000C
:1022C000EE00EE00EE00EE00EE00EE00EE00DD00AF
:1022D000DD00DD00DD00DD00EE00EE00EE00EE00D2
:1022E000EE00EE00EE00EE00EE00EE00EE00EE007E
:1022F000EE00EE00EE00EE00EE00EE00DD00EE007F
:10230000EE00EE00EE00EE00EE00EE00EE00EE005D
:10231000EE004400EE00DA00039B4FF000084FF09F
:10232000000953B100230693039B1F60069B23B152
:10233000414609F1004388469946404649461FB048
:10234000BDE8F08F00230693631C19936678002E76
:10235000E2D0302E1C4600F0A480002308940A939B
:10236000A6F130034FF0000A092B55462346544688
:1023700019D8082CC8BF0AEB8A0A05EB850203F1BD
:10238000010306EB42021993C4BF06EB4A06A6F10D
:10239000300A1E78D8BFA2F13005A6F13002092A12
:1023A00004F10104E5D9584607930CF0ABFDD0F8D1
:1023B000008058460CF0A6FD00680BF071FF079BEB
:1023C0000246414618460BF099FF8046002800F06F
:1023D000E480002084468646A146652E73D0452EB3
:1023E00071D00023B9F1000F47D0B9F1100FC846E2
:1023F000CCEB03032846A8BF4FF0100807930DF05D
:1024000049FB002C08BF4C46B8F1090FCDE9040187
:1024100013DD764B03EBC80353E912230DF0B0FB39
:10242000064650460F460DF035FB02460B46304639
:1024300039460DF0F3F9CDE90401B9F10F0F00F3BE
:10244000D780079B002B00F0A580079B40F3678592
:10245000162B00F3D284DDE904230798634901EBCE
:10246000C001D1E900010DF08BFB804689460DE0EB
:102470000123069368E7199318E718B90A9B002B04
:1024800000F0A1824FF000084FF00009039B002BE1
:102490003FF44CAF199F47E70023302E06937FF49B
:1024A0005CAF6378582B00F0A483782B00F0A183F5
:1024B000013419942678302EFAD0002EE2D0012370
:1024C00008940A934CE7B9F1000F4ED0199F7B1C7A
:1024D00019937E782B2E00F06D822D2E00F06482F1
:1024E0004FF00008A6F13003092B324600F20282B9
:1024F000302E06D1199B013319931E78302EFAD055
:102500003246313A082A3FF66CAF199B19460A4603
:10251000013219920793A6F130034E78A6F13001EB
:1025200009290BD80132199203EB830306EB43030D
:102530001678303BA6F130010929F3D90799521AD0
:10254000082A00F3518444F61F629342A8BF134641
:10255000C8F1000253404344B9F1000F7FF445AF86
:102560008BE74FF0000C4FF0010E002840F028825E
:102570000A9B002B3FF4D0AE8146A7E76FF00043E3
:1025800005934FF0FF3304932B0742BF059B43F0A5
:1025900000430593DDE9048978E758460CF0B2FC66
:1025A00000680BF07DFE199B1A1819921E5C002C16
:1025B00040F0E881302E204605D10132199216787C
:1025C0000130302EF9D0A6F13103082B00F2A082A1
:1025D000199B303E089300F1010C4FF0010905EB07
:1025E000850506EB45050020DAE100BF601E2100ED
:1025F000079BC8EB09089844B8F1000F40F39A8391
:1026000018F00F000AD0DDE90423C14901EBC00135
:10261000D1E900010DF0B4FACDE9040138F00F065C
:1026200040F0288200230A930095089922464B46E1
:1026300058460CF0DFFC1090002800F03B83079A0E
:102640000021002AC2F10003A8BF0B460F460C93DD
:1026500022EAE27307910B93109C584661680CF0D4
:1026600055FC8246002800F0A582DDE904232146BE
:102670009046994622690C31023292000C30CDE925
:1026800008890BF069FC1BA81CA98DE803004246D1
:102690004B4658460CF0BAFF1A90002800F08B8287
:1026A000584601210CF040FD0746002800F08282C8
:1026B0001B9A002AC0F212810C9B0B9903EB0208B3
:1026C0000A981C9B121A1A446FF47F708242C3F15D
:1026D000360380F2EC80801A1F28A3EB000300F37E
:1026E0000281012500228540119208EB0309C145B2
:1026F0004A46A8BF4246CE180A9B1E44B242134621
:10270000A8BF3346002B04DDC3EB0909F61AC3EB5F
:1027100008080C9BB3B1394658461A460CF0AEFD7A
:102720000746002800F04682584639461A9A0CF0AF
:1027300005FD0446002800F03D8258461A990CF029
:102740000DFC1A94B9F1000F08DD4A4658461A9953
:102750000CF0E4FD1A90002800F02D820B9B43B191
:10276000514658460B9A0CF089FD8246002800F02D
:102770002182002E08DD5146324658460CF0CEFD2F
:102780008246002800F01682B8F1000F08DD3946B5
:10279000424658460CF0C2FD0746002800F00A8267
:1027A00058461A9952460CF035FE0790002800F062
:1027B0000182079A0026D3683946D6600D930CF043
:1027C00005FEB042C0F2208400F0DD830798394650
:1027D0000CF070FF00224FF0804304460D460DF0D0
:1027E0004BFC002867D00D9B002B00F0A280B14667
:1027F000484DDDF814C0DFF81C810024464E474BDD
:102800000CEA06069E4200F027820A9B23B3B6F12B
:10281000D46F21D83CA3D3E90023484641460DF0AC
:102820002BFCB0B1484641460DF06CFC81460028B7
:1028300000F026830DF02EF9814688460D9B002B73
:1028400040F0198308F10043CDF850901593DDE96D
:10285000144505F1D6639D1BDDE908010CF04CFE23
:1028600002460B46204629460DF08AF902460B46E1
:10287000DDE908010CF0D2FF0C46CDE904010A9B0A
:1028800023B9254B23409E4200F01F8258461A99D7
:102890000CF064FB584651460CF060FB5846394634
:1028A0000CF05CFB584607990CF058FBD4E600226C
:1028B0001192012519E71A4B2046294600220DF0F6
:1028C0005FF90D9B8146884673BB01F100430E9072
:1028D0000F93DDE90E45DDF814C08FE70B9BDDF8A3
:1028E0003080991AECE60F480125801A05FA00F2AB
:1028F0001192FAE619970023B9F1000F7FF475AD34
:10290000BBE500BFAFF300800000C0FFFFFFDF4169
:10291000601E21000000F03F0000F07F0000E07F1B
:102920000000E03FE3FBFFFF02460B46CDE90E232C
:10293000CFE7049BDDE90401002B40F0DE80C1F30A
:1029400013038C46002B40F0DC8011912046294671
:102950000022B54B0DF086FBDDF844C0002840F0A6
:102960009883B24B2046294600220DF009F9814692
:10297000884601F10043DDF844C016901793DDE965
:1029800016453BE74046A146C446A6F13002092A57
:1029900013D8431C1646002A40F04D821846199B56
:1029A0005A1C19925E78F0E74FF00108BB1C19938E
:1029B000BE7897E54FF00008F8E74FF0010E0CE500
:1029C0004FF0000982E5BEF1000F7FF4A5AC493E4F
:1029D000252E3FF6A1AC01A353F826F05B2B200077
:1029E0001923200019232000192320001923200077
:1029F000232B200019232000192320001923200055
:102A00001923200019232000192320001923200056
:102A10001923200019232000192320001923200046
:102A20001923200019232000192320001923200036
:102A30001923200019232000192320001923200026
:102A40001923200019232000192320001923200016
:102A50001923200019232000192320005B2B2000BC
:102A600019232000192320001923200019232000F6
:102A7000232B2000B6F59A7F00F31C813611012E1E
:102A8000DFF8D08140F32383DDE9040147464FF0AE
:102A9000000A16F0010F0AF1010A4FEA660603D098
:102AA000D7E900230DF06CF8012E07F10807F0D1EB
:102AB000CDE90401059B08EBCA08A3F15473059303
:102AC000DDE90423D8E900010DF05AF821F00043B4
:102AD0001B0D574A1B059342CDE9040100F2EA8021
:102AE000A2F58012934240F2CF82524B059300230D
:102AF0000A934FF0FF33049396E5012800F0C38159
:102B00008C4600244C4D4FF00009DFF81C8175E61F
:102B1000652E3FF426AD4FF00009CC464FF0010E74
:102B20005DE41999454809E011F8013FA3F141041A
:102B3000192C98BF203393427FF4EEAB10F8012B91
:102B4000002AF1D14B1C19934B78282B00F0FD8201
:102B50003B4B0593002304931CE5199A394809E07F
:102B600012F8013FA3F14104192C98BF20338B4286
:102B70007FF4D2AB10F8011B0029F1D11992154650
:102B8000314809E012F8013FA3F14104192C98BF24
:102B900020338B4240F0988210F8011B0029F1D1BC
:102BA00001321992294B059300230493F2E4013179
:102BB00040F0B8821A98254B0022059322230492F4
:102BC000CBF80030DDE90489014658460CF0C6F91F
:102BD000584651460CF0C2F9584639460CF0BEF939
:102BE000584610990CF0BAF9584607990CF0B6F906
:102BF0004CE4069A1AAB01920093584619A9144A5C
:102C00001BAB0BF033FE10F0070605463FF43AAC61
:102C1000062E40F047810134002319944FF000083C
:102C20004FF00009069331E40000F03F0000E03F60
:102C30000000A07CFFFFEF7F0000F0BF38232100E1
:102C40000000F8FF2C232100302321000000F07F3A
:102C50003C232100281F2100ACF154730593DDE9CA
:102C60000423104619460CF047FC02460B4620464A
:102C700029460CF085FF02460B46DDE904010CF005
:102C8000CDFD21F000431B0DB34A1B059342CDE956
:102C90000401DDE90801CDE9120140F2A980AF4B42
:102CA000139A9A4200F0EB81AC4B05934FF0FF333F
:102CB0000493EBE5AA4B0022059304922223DDE95D
:102CC0000489CBF80030FFF7E1BB414648460DF0E0
:102CD000F1F90CF0EFFE0B460246414648460CF077
:102CE0009BFD0D9B8046894683B9049B73B9C4F351
:102CF00013045CB992A3D3E900230DF0B3F90028C3
:102D00003FF4C4ADDDE904891A985DE78EA3D3E9E9
:102D10000023404649460DF0A5F90028F2D18CA3C6
:102D2000D3E90023404649460DF0BAF900283FF4A4
:102D3000ADADE7E73FF476ACC8F1000717F00F023E
:102D40000AD0DDE90401874B03EBC203D3E900237A
:102D50000DF040F8CDE904013F113FF463AC1F2FA3
:102D600039DC17F0100300F0E7816A23002FD8BF89
:102D70000A9314DDDDE904017B4E0A9317F0010F7D
:102D80004FEA670703D0D6E900230CF0F9FE002FC5
:102D900006F10806F2DC0A9BCDE9040193B1DDE9F6
:102DA0000401C1F30A53C3F16B03002B0ADD1F2B8F
:102DB00040F3E8810022342B049240F3EB814FF082
:102DC0005C730593DDE90401002200230DF040F956
:102DD00000283FF429AC2223CBF800304FF0000844
:102DE0004FF00009FFF752BB44F61F63FFF7B0BB7B
:102DF000059B03F15474059441E5079AC9F1250335
:102E00009A423FF7F5ABDDE90423564CC9F10F09AF
:102E100004EBC901D1E900010CF0B2FE079BC9EB3C
:102E2000030904EBC904D4E900230CF0A9FE804691
:102E30008946FFF72BBB012B9C4414D0484402E089
:102E40005D00814510D009F1010909F1FF33082B1C
:102E500005EB8503F4DDB9F1100FDCBF0AEB8A0A3C
:102E60004FEA4A0AEDE74846082800F101097FDCED
:102E7000199BFFF7B4BB4A464346CDE91423E6E469
:102E8000DFF8E880DAE4DDE904239C46002B7FF4D8
:102E900038AE2223CBF800301A984FF000084FF0DC
:102EA000000991E61A9A3AB11CA835210CF02EFCC3
:102EB00058461A990CF052F81B9B062E3FF664AB4D
:102EC00001A252F826F000BF152F2000FD2E200091
:102ED000F12E2000E52E20007D252000FD2E200073
:102EE000152F20001E4B059300230493FFF74CBBC6
:102EF0001C9B04931D9B0593FFF746BB1D9A1C99D1
:102F000003F2334322F4801242EA035304910593FF
:102F1000FFF73ABB002305930493FFF735BB163345
:102F2000FFF666ABDDE90401079A0E4BA3EBC20383
:102F3000D3E900230CF04EFF80468946FFF7A6BA7E
:102F40009535A094FFFFCF3F9535A094FFFFDF3F5D
:102F500035E5AF350000E03FFFFF9F7CFFFFEF7FCF
:102F60000000F07F601E2100381E21000000F03FAD
:102F7000B9F1100FD7BF0AEB8A0A199B199B02EB14
:102F80004A0A00200CE50D9EAE46DDE90889002EB8
:102F900000F08880DDE90445824BC5F313019942B6
:102FA0002A4600F0A980119B002B00F08880059A2A
:102FB00013420DD0DDE904010A9A002E00F08A8048
:102FC0000BF01AFA42464B460CF028FC8046894624
:102FD0000A9BBBB1744B4046139300231293DDE967
:102FE000122349460CF0CCFD02460B46804689462A
:102FF000CDE9042331B9049B23B922231A98CBF8D5
:103000000030E1E51A98DFE50D9EDDE90889002E24
:10301000DED1049B002BDBD1DDE90401C1F31303F6
:103020000C46002BD4D1059B23F000431B0D1B0540
:10303000B3F1D66FCCD9079A536913B91369012B31
:10304000C6DD0799012258460CF068F93946079009
:103050000CF0BCF90028BBDD0A9B002B40F08780F8
:10306000524B2340A3F580136FEA13536FEA0353C7
:1030700005934FF0FF330493DDE90489A8E7129B21
:1030800001337FF411AE95E501F154730593FFF719
:10309000C9BA474B0022CDE91623DDF83490DFF89A
:1030A0001C816CE4DDE90401C1F313030C46002B21
:1030B0007FF479AF049B002B7FF475AFCCE7049AC3
:1030C0001EEA020F84D075E76B1C19936AE54FF076
:1030D000000AEFE40BF090F902460B4640464946E1
:1030E0000CF09AFB00220023804689460CF0B0FFCA
:1030F00000287FF4CEAE6BE70A9B049913B32B4BE9
:103100002B40B3F1D46F1DD81B0DC3F16B034FF0EF
:10311000FF3000FA03F399427FF445AF254B9A4202
:103120003FF445AD214B134003F580130593002375
:103130000493DDE904894BE7002FD8BF0A933FF7DA
:1031400019AE3FE64FF0FF33E5E719A81A491CAA6C
:103150000BF016FE05287FF4FBAC1D9B43F0FF43EC
:1031600043F4E00305931C9B0493FFF713BA0F4B42
:103170002340B3F1D66F3FF775AFB3F15C7F3FF7F4
:1031800029AF86E64FF0FF3202FA03F3049A1A40A1
:10319000049217E6203B4FF0FF3202FA03F30B4094
:1031A00005930FE6FFFF0F00000050390000F07F8D
:1031B0000000E0BFFFFFEF7F182321000000E03F89
:1031C00008B5094BFF221A600848094A4824E369F8
:1031D0000849121A98470848084AA3690021121A98
:1031E000984701F019F9FEE7B4200D404040002057
:1031F000B64B0020882A2100B84B002064730020C1
:1032000010B5044600200146024606F0D9FD044BE5
:103210000482186003F04EFE024B188010BD00BF00
:10322000C84B0020305F0020024B1888013080B26C
:1032300018807047305F0020F7B5044601232160F5
:10324000037100230B700E46016800790A7842EA88
:1032500080120A70206862790178120102F030024F
:103260000A430270A27A206802F00F0102780A4332
:1032700002702268A179517022892168120A8A702D
:1032800022682189D170A279002A00F0408122466B
:1032900052F80A5B0435A17A8B4205D212F8011F5D
:1032A000013305F8011BF6E7E37C03F0020303F0AA
:1032B000FF015BB194F86A30002100932A46012097
:1032C00004F16B030DF006F801210544E37C1A07B5
:1032D00008D5236C2A4600930320636C0CF0FAFF98
:1032E00003210544E37CDB060AD594F824302A4602
:1032F0000093042004F125030CF0ECFF04210544A5
:10330000E37C9F0606D52A46052000230CF0B2FF79
:1033100005210544E37C580606D52A460620636E3F
:103320000CF0A8FF0621054494F91330002B07DAAE
:103330002A460720B4F850300CF09CFF07210544C2
:10334000237DDA070AD5A36C2A4600932F23019325
:103350000820E36C0CF0CEFF08210544237D1B07F9
:103360000AD5E36D2A4600932F2301930B20236E89
:103370000CF0C0FF0B210544237DDF0606D52A464D
:103380000C20A38B0CF076FF0C210544237D5806FE
:1033900006D52A460E20236A0CF06CFF0E21054448
:1033A00094F91430002B0CDAD4F894302A460093A8
:1033B000262301930F20D4F898300CF09BFF0F21A7
:1033C0000544637D9A0707D52A461120B4F8683072
:1033D0000CF050FF11210544637DDB060AD5636DB7
:1033E0002A460093262301931420A36D0CF082FF3C
:1033F0001421054494F91530002B1CDA676F94F8FA
:1034000078303F010BB147F00807B4F87A3000205C
:103410001B09421C5B0892B201D01046F9E7002A52
:1034200018BF024602F00F0317202A463B430CF058
:1034300021FF17210544A37D1F071DD5D4F88070F7
:1034400094F884303F010BB147F00807B4F8863098
:1034500000201B09421C5B0892B201D01046F9E71C
:10346000002A18BF024602F00F031B202A463B43E6
:103470000CF000FF1B210544A37DD80607D52A4682
:103480001C20D4F88C300CF0F5FE1C210544E37DA3
:103490001A0708D5236B2A4600932320636B0CF090
:1034A00019FF2321054494F91730002B08DAA36B88
:1034B0002A4600932720E36B0CF00CFF27210544DC
:1034C000A37EDB0606D52A463C20D4F890300CF0CB
:1034D000D1FE05442368EB1A3E2B11DCB4F89E3074
:1034E00013B1FF2305F8013B2846D4F8A010B4F827
:1034F0009E200AF0A7FDB4F89E00AD1B284407E00B
:10350000044A054B0025256028461A6000E0042087
:1035100003B0F0BD70242100684400202DE9F04183
:103520008C46104904460F680D46BE4600F110084F
:10353000764620686168083403C64445B646F7D12C
:103540001146A7F812C01A46384606F003FC2C684C
:103550000021204610220AF0D9FD00236382BDE835
:10356000F08100BFC84B00202DE9F743884606468E
:1035700000219146A4220AF0C9FDC6F8008098F8FF
:1035800000309B09337198F80020012BC2F301121F
:10359000727198F8004004F00F07B77298F8012094
:1035A000B27198F8021098F8032042EA01223281A1
:1035B00001D0A14A02E0082F04D9A04AA04B8020E4
:1035C0001A6035E108F1040421463A4606F10B0081
:1035D0000AF0C2FC06F11300002108220AF096FD51
:1035E0003C44002708EB09039C4280F020812578A9
:1035F00005F0F003F02B14D10134C4EB0808C144EA
:103600001FFA89F9B9F1400F8ABF4023A6F89E90AE
:10361000A6F89E30B6F89E300020C6F8A040E054D0
:1036200006E12B090D2B05F00F0503D16378023459
:103630000D330AE00E2B03BFA378627803F20D135B
:10364000013404BF03EB022303340D2D03D114F81E
:10365000015B0D3508E00E2D01BF657805F20D12F6
:1036600014F8025B02EB05251F4406EBD70107F0B7
:103670000703012202FA03F0CB7C0E2F43EA00037A
:10368000CB746CD029D8062F00F0AB8017D8032F4D
:1036900000F084800BD8974240F0C0802A46082D65
:1036A00028BF082286F86A2006F16B006DE0042F1F
:1036B0005BD0052F40F0B28086F89C20B5E0082F43
:1036C0007DD06ED30B2F73D00C2F40F0A7802046F7
:1036D00029460CF03BFDB083A7E01B2F00F087804C
:1036E00026D8112F4AD009D80F2F40F097802623D3
:1036F000009306F1980006F1940166E0142F69D05A
:10370000172F40F08B80204629460CF01FFDC0F398
:10371000C00300F0070286F8783010239340A6F823
:103720007A3020F00F0393400009F36770677CE064
:10373000232F2ED008D81C2F70D1204629460CF0FC
:1037400005FDC6F88C0070E0272F22D03C2F65D1F4
:10375000204629460CF0FAFCC6F8900065E02046A9
:1037600029460CF0F3FC30625FE02A46082D28BFA2
:10377000082286F8242006F1250006E02046294686
:103780000CF0E4FCA6F868004FE021460AF0E4FBE8
:103790004BE02C4A2A4BA5201A6049E0746435643A
:1037A00043E0204629460CF0D1FCA6F850003CE04E
:1037B0002F23009306F1600006F15C0105E02F2342
:1037C000009306F14C0006F1480122462B460CF00E
:1037D000C8FC2AE02623009306F1580006F15401A4
:1037E000F3E7204629460CF0B1FC70661DE0204648
:1037F00029460CF0ABFCC0F3C00300F0070286F8CA
:10380000843010239340A6F8863020F00F039340B5
:103810000009C6F88830C6F8800006E0FB0704D52A
:10382000094A074B82201A6002E02C44DAE60020A5
:1038300003B0BDE8F08300BF9F242100B62421001F
:1038400068440020DB24210002252100014B186080
:10385000704700BF744C00202DE9F04F038887B0FB
:10386000814633B1B3F5AD7F13D00023038003202D
:103870009DE1A548A54900F0B1FD00F0A9F943F28A
:103880001630FFF7BDFC4FF4AD73A9F800300120EE
:103890008DE19F4B1B788B4240F083819D4D00232F
:1038A0002B709D4B1B789907EDD59C4E9C4B9D4CE6
:1038B000316820461A88FFF757FEB0460746287041
:1038C000994E002840F00781A379013B032B00F2B9
:1038D000DC80964B964A1B7802F108012833208938
:1038E000D25A00F07FF93060002800F0C8804023F1
:1038F000ADF80A30637903970497059723B98D488B
:1039000002214522238905E0FFF78EFC0346894802
:10391000012145220CF029FDA27A1AB18548864979
:103920000CF058FD04AB00937E4803A900220DF172
:103930000A030CF016FE40B1BDF80A30402B28BF38
:103940004023ADF80A30049B05937C4BD3F800C0AC
:10395000BCF1000F00F08F803268764FDFF8C4B101
:1039600005A90091BDF80A30584639467432E0473F
:10397000BA4600286ED02B78002B6BD19BF81630FE
:103980001A070DD597F90630002B09DBBB7D1B0705
:1039900006D4604BA1221A70694A6A4B1A6059E03A
:1039A00094F91530059A002B41DA049B9A4223D1F1
:1039B000BAF89E105F4F8A4205D38223BB71384606
:1039C00061490F2244E0BDF80A308A1A9A4294BF36
:1039D00000220122039938460CF0DCFD0499B7F867
:1039E0009E30BDF80A205B1AD7F8A0E09A4238460C
:1039F000714428BF1A462BE001320399BDF80A3002
:103A000006D1BAF89E209A4294BF0022012200E01B
:103A10000122484F38460CF0BDFDBDF80A20BAF827
:103A20009E30934216D93846D7F8A01010E08AB1DC
:103A3000013218BF012200213E4840230CF0AAFDAC
:103A4000BAF89E203B483F2ADAF8A01088BF4022EF
:103A50000CF0D7FD2B78002B3DD13768354807F1A6
:103A60003601FFF7E9FB80B2B886002833D1294B35
:103A7000C1221A702FE0A1232B70344A02E0A32345
:103A8000334A2B702F4B1A6025E0636823F07F4385
:103A900023F0FF0313B9C3232B700CE06379032BCE
:103AA00009D1224B224A1B7802F108002833D15A4F
:103AB000228900F0C7F9208900F018F9306040B180
:103AC000C76AD0F830A000F0AFF817B150461549DA
:103AD000B847002333602B780E4F30682BB900288D
:103AE0003FF4D1AE00F0B6F8CDE6C22B02D100F023
:103AF0009BF8C8E600F098F83B78C32B2AD1002346
:103B00003B7003212BE000BF944400201E252100C0
:103B10005A73002066630020546E0020606E0020FF
:103B2000406D0020784C0020CC4B0020B265002076
:103B3000546D0020D04B0020834C0020744C00209A
:103B40002F252100684400203F2521004F2521001A
:103B500060252100BF2B84BFA0233B7002212A785F
:103B6000238914480CF001FC134B144D1C682046AB
:103B70000AF096FB214602460E480CF042FD104B1F
:103B8000D8F800401B78214628330A485E5BFFF7CF
:103B900053FB314683B2224605F10800FFF7BEFC15
:103BA00071E688297FF46FAE00F0AEF86BE607B0DF
:103BB000BDE8F08F784C002068440020546D002050
:103BC000B26500200148002103F036B86C440020A3
:103BD000024B1A68024B1A60704700BFFC5100206C
:103BE000204D0020F8B507460D480D4616460CF04E
:103BF000DBFE044690B1294600230376878000F15E
:103C00001A0305F1100251F8040B914243F8040B1A
:103C1000F9D16685034821460CF094FE2046F8BD94
:103C20007C4400201C4D002010B5044660B10830D3
:103C300002F0DAFE214605480CF070FE2146BDE890
:103C4000104003480CF0C4BE10BD00BF1C4D002046
:103C50007C4400202DE9F041044600F11A07384663
:103C6000618D04F13602A38EFFF758FC94F83650AC
:103C7000C5F3011575BB237E032B1AD853B903F086
:103C800019F9C023B0FBF3F202FB130000F281101C
:103C9000E06002E0E3685B00E360124D124B2E68C7
:103CA0001B6804F108002B600CF0C2FD2E60BDE81B
:103CB000F081E66A3846618DD4F8308000F04AF829
:103CC0002046FFF7B1FF56B1404629463346BDE8CE
:103CD000F04118472046BDE8F041FFF7A5BFBDE819
:103CE000F08100BFFC510020204D002010B504469B
:103CF00004480CF009FE20B18388A34201D000687B
:103D0000F9E710BD1C4D002010B509480CF0FCFD72
:103D1000044664B104F108000CF093FD28B1237E41
:103D2000204601332376FFF795FF2468F1E710BDA5
:103D30001C4D002010B50446044821460CF048FEF6
:103D40002146BDE8104002480CF0E8BD8844002040
:103D5000F4500020F8B506460C480F460CF0D4FD90
:103D6000044600257CB104F11800314610220AF007
:103D7000C1F830B9238DBB4203D12046FFF7DAFFEB
:103D800001352468EEE72846F8BD00BFF450002056
:103D90002DE9F84307461348884691461E460CF025
:103DA000B3FD04460025D4B104F1180039461022B1
:103DB0000AF0A0F888B9238D43450ED194F82A3033
:103DC000B3420AD104F12B00494632460AF092F878
:103DD00018B92046FFF7AEFF01352468E3E728460F
:103DE000BDE8F883F45000202DE9F8430746144855
:103DF000894690460CF088FD04460025E4B14FB199
:103E000004F11800394610220AF074F890B9238D95
:103E10004B450FD1261D464508D030460AF040FAE2
:103E20004146024630460AF065F818B92046FFF7C9
:103E300081FF01352468E1E72846BDE8F88300BF2B
:103E4000F45000202DE9F04106460F480F469046F9
:103E50000CF05AFD0446002594B104F118003146D7
:103E600010220AF047F848B9238DBB4206D1A38E31
:103E7000434503D12046FFF75DFF01352468EBE79A
:103E80002846BDE8F08100BFF45000202DE9F04144
:103E90004668DAB0804630460D460AF001FA04461C
:103EA000314603A813220AF073FA122C07DC35B14D
:103EB00003AB18192946C4F113020AF069FA002469
:103EC000234608A8012145228DF81F400CF04DFA29
:103ED00023460122214631A80CF047FA03A931A854
:103EE0000CF0EDFA03A80AF0DBF906462D480CF0B9
:103EF0000BFD0446002C52D0251D28460AF0D0F9AF
:103F0000B04208D049DD98F80830DB0645D5A31942
:103F10001B792F2B41D103A8294632460AF0EEF92E
:103F200000283AD1FFF780F904F11801228DFFF73C
:103F300059FE054688B3A16B142391FBF3F203FBF2
:103F400012130BB98DF82530AB8831A8A386AB8846
:103F5000D8F81070ADF828300023009308A940234A
:103F600005F17402B8479DF92630002B05DBA16BE3
:103F700008A84B1CA3630CF0EDFA04F12B0194F894
:103F80002A2008A80CF026FA08A805F13601FFF748
:103F900053F9A8862846FFF75DFE2468AAE75AB0C1
:103FA000BDE8F081F45000202DE9F74F92468A7960
:103FB0000B46012A6ED19AF90620002A6ADBCA7CD8
:103FC000520667D54E6E002E48D1344A344D1278D1
:103FD000D1F860C0283232F805808F7AD1F85CB011
:103FE000624601F10B0905F108004146CDF804C015
:103FF000FFF7FAFE2B480CF0D7FC044600283ED011
:10400000BBF1130FDDF804C0A8BF4FF0130B6146DE
:104010005A460430A34409F09FFF8BF8046004F172
:10402000180E05F108030FCB8EE80F0049463A46FB
:10403000A4F8288084F82A7004F12B0009F08CFF82
:104040002146A68618480CF07DFC5046A16B4B1CFF
:10405000A36303B0BDE8F04F0CF07CBA012E19D178
:104060000E4A1249127801F108002832895A03F1E8
:104070000B029B7A03B0BDE8F04FFFF789BE5046B4
:104080000B49A32310228AF8063003B0BDE8F04F95
:104090000CF0B7BA03B0BDE8F08F00BFB2650020E6
:1040A000546D002088440020F4500020546D0020FE
:1040B000842521002DE9F74F0C9F8B4690461E4624
:1040C00000F0A6F90CF020FC002481462546B9F149
:1040D000000F7CD04DB13B689D4205D3B4423EBF3A
:1040E0002C2308F80430013401353B689D4205D388
:1040F000B4423EBF3C2308F8043001343A686B1CDC
:10410000934205D3B4423EBF2F2308F80430013454
:10411000D9F804C002356046CDF804C00AF0C0F8F2
:104120003B6800EB050A9A45DDF804C00FD9711C05
:104130005B1B08EB0400091B002BACBF63440CF1B4
:104140000003344A0CF038FB0444B4423FD23B68CD
:104150009A4505D3B4423EBF3E2308F804300134EB
:10416000D9F80C300AF1010543B31B7833B33B682F
:104170009D4205D3B4423EBF3B2308F804300134CE
:10418000D9F80C300AF1020A184601930AF088F8AF
:104190003A6800EB0A059542019B0FD9CAEB020A67
:1041A000711C08EB0400091BBAF1000FA8BF5344AF
:1041B000184A0CF001FB0444B44204E0B44203D9B1
:1041C0003A682B1B934203D8D9F800907FE74CB193
:1041D0004146584622460CF014FA584628210CF065
:1041E00010F909E045B1822158460CF0EDF8584627
:1041F00009490F220CF005FAB9F1000F03D14FF075
:10420000FF333B6002E03B681E443E6003B0BDE804
:10421000F08F00BF952521003F25210070B5028851
:104220000546C02A09D0D02A21D082B91B4B85214E
:10423000186802F0D9FCC02307E085290BD1184883
:104240000CF062FB044644B9D0232B8003E000232A
:104250000380032070BD012070BDE3692BB1A1680C
:1042600019B104F10C000CF0D1FA2468EBE78829AD
:10427000EAD10B480CF048FB0446002CE4D0A368BC
:1042800053B104F10C0630460CF0DBFA20B1E369BF
:10429000984730460CF0C3FA2468EEE7FC51002042
:1042A000F85000202DE9F04F3A4D87B00E46994660
:1042B00006A9002341F8043DEB6890460746DDF867
:1042C00040A09847029034480CF01EFB0446DDF8ED
:1042D00014B0002C51D063681846039309F0E0FF36
:1042E000029B02468342039B07D044DD217AC90624
:1042F00041D51BF800102F293DD11846594609F029
:10430000FDFF002837D12B6938469847C20704D5EE
:10431000D4F810C0BCF1000F14D1830704D5D4F831
:1043200014C0BCF1000F0DD1410704D5D4F818C05A
:10433000BCF1000F06D1020715D5D4F81CC0BCF1A2
:10434000000F10D04B46CDF800A03846314642460B
:10435000E047237A5B0617D520462B6E3946324656
:104360009847012005E06B693046D5F88C109847D6
:10437000002001240AE02468ABE76B693046D5F8D9
:1043800088109847012001E001200446204007B032
:10439000BDE8F08F501F2100FC50002038B50A4BBB
:1043A0001C7884B9094D012209481A700CF0A9FA49
:1043B000AB68084898476B6898472146BDE8384085
:1043C000054802F039BC38BD6E630020501F210043
:1043D000FC500020A5422000B844002010B504463F
:1043E0004160094821460CF0ADFA94F90830002BE1
:1043F00009DA216ACB6933B18B6823B1BDE810407B
:1044000002480CF09FBA10BDFC500020F85000206C
:1044100000487047FC500020F7B500F06DFC00F03C
:1044200061FD00F0BDFC00F06FFA01F09BFB0CF0A9
:104430001BFA00F04FFD00F0C9F801200CF0F3F872
:1044400002F06EFB00F044FC002000F055FB012060
:1044500000F052FB4949002000F024FC02F092FCDD
:104460000CF016F904200CF0DEF845480CF03DF98C
:1044700044480CF03AF900F0E9F9002002F02AFD76
:1044800001F064FA4048002102F0D6FB02F074F912
:104490000CF0F3F800F0AEFD00F0CAFD07F06EFD81
:1044A0006846082101F0A2FB9DF807309DF80670D0
:1044B000364C43EA07276B4603CB206061603448E3
:1044C00001F050FD0025615D3248013501F04AFDE3
:1044D000072D2E4EF7D1304DF179304801F042FDD5
:1044E000EC6A4DF6EC610220A04739460320A04754
:1044F0001A210120A047694608226B6B0B209847C0
:10450000274801F02FFD274B18680CF0EEF82648DD
:1045100001F028FD254B18680CF0E7F8244801F05D
:1045200021FD244B18680CF0E0F8234A336813602F
:104530007368536007F03CFA2048002102F07CFBCE
:104540001F48002102F078FB1E4B01219B6881204F
:1045500098470CF053F91C480CF046F900F0BEFBEC
:1045600002200CF060F800F0BFFB02F0F1FA10F04E
:10457000FF0FF8D101F08EFAF5E700BF416D200082
:10458000AA252100C4252100104500205C730020CD
:10459000E925210007262100442121000D262100C4
:1045A000132621009C2121001A262100A821210088
:1045B00021262100D02121004C6D0020A44500209F
:1045C000304500205C2021000022210008B500F0C9
:1045D000DDF8024B00221A7008BD00BF6F63002097
:1045E000024A13781843107000F0F4B86F6300208B
:1045F000034A137823EA0000107000F0EBB800BF04
:104600006F63002020B1012805D1044B1878704752
:10461000034B186870470020704700BF706300208C
:1046200020900D4010B5094A002013780133137013
:10463000074B197802F0D8FABDE81040054B064840
:104640001968064A002302F0CDB800BF706300204D
:1046500052730020285100200051002025462000E0
:10466000812810B50C462AD0B0F5807F39D080283B
:1046700039D102F047FA1D4B1D4A1870136800200B
:1046800023F00803136052F8203C032123F00803B1
:1046900042F8203C52F81C3C23F0080342F81C3C32
:1046A00052F8183C43F0080342F8183C042200F08A
:1046B00027FC10480021032200F0C4FB13E00E4B3E
:1046C0001A6831B142F008021A60002000F032FB93
:1046D00005E022F008021A60084600F037FB204689
:1046E00010BD064B1960012010BD00BF52730020A1
:1046F00020940D400147200010940D4028510020C7
:1047000008B50F480CF0C4F8C0B108210C480CF0F3
:10471000ADF80C4B196861B10B4B00221A700B4BB2
:104720000B481B681BB90B4A02F05CF801E002F071
:104730009BF8BDE80840084802F0A0BB08BD00BFD8
:1047400020510020285100207063002020900D404F
:1047500000510020254620005C202100084A1368F3
:1047600023F00403136052F8203C43F0040342F8A2
:10477000203C044B00221A60034B01221A70704740
:1047800020C40D4010C00D40716300200D4A0E4939
:10479000136823F0C003136052F8203C43F0C003B9
:1047A00042F8203C094B00221A600B6823F01003EA
:1047B0000B6051F8203C43F0100341F8203C044BBF
:1047C0001A60704720A40D4020C40D4000A30D4086
:1047D00040C00D4000F0020202F0FF010B4B12B18D
:1047E000FF221A6000E0196000F0040202F0FF01ED
:1047F000074B12B1FF221A6000E0196010F00100AF
:10480000044B1ABFFF221A601860704700A20D40C7
:1048100000A10D4040C00D40044B1868C0F30720B4
:10482000030904BF1030C0B2704700BF1C300D40F8
:10483000054B1868C0F3C21001289ABFC0F10200EE
:1048400040034FF40040704714300D402DE9F0470D
:1048500088B0FFF7E1FF174B48251C68AB68074697
:1048600098476B68804698470646FFF7E1FF054684
:1048700000F0D0FA824600F0D9FA814600F086FABC
:10488000B60AC4F34003AD0A04F001040293069093
:10489000009601950394CDF810A0CDF814904146F0
:1048A000C7F3071207F00F03034801F05BFB08B0E2
:1048B000BDE8F0871C300D402F262100F8B500F030
:1048C00083F80F4B0024D3E900673A46B04238BF63
:1048D0007A1C15460443C3E90045DFF828E0DEE909
:1048E0000001821B61EB070312196B41CEE9002323
:1048F00002F072F818B1BDE8F84001F0FDBFF8BD54
:10490000B84B0020C04B00200F4B104A1A6053F8E0
:10491000042C42F0050243F8042C53F8042C42F016
:10492000020243F8042C0A4A136843F0010313609F
:10493000084B00221A60042243F80C2C012243F891
:10494000082C0F22DA62704714E000E047E801000B
:1049500008200D400C000340034BD3E90023100A4C
:1049600040EA0360704700BFB84B0020034BD3E917
:104970000023D00B40EA4340704700BFC04B0020EB
:10498000054B18601C3B1A6842F001021A601A6855
:10499000D207FCD4704700BF2800034010B5064C76
:1049A000236823F001032360FFF788FF236843F0A7
:1049B0000103236010BD00BF10E000E0014B186848
:1049C000704700BF2C510020074B084A1968043378
:1049D0001B681268120442EA0323054A0B4310685D
:1049E00043EA0060704700BF40500D4048500D4002
:1049F0004C500D4010B50446114B1B68DB07FBD52E
:104A00000BF04AFEFFF7E0FF231A062BD8BFC41DA8
:104A10000C4B220E1A60C4F3074243F8042CC4F373
:104A2000072243F8082CE2B243F80C2C0BF030FEBE
:104A3000054B91201C60BDE8104000F07BB900BF21
:104A400050500D404C500D402C51002008B501F045
:104A500007F8064B002291201A6000F083F991209C
:104A600000F074F9BDE8084002F00AB92C510020AA
:104A7000064B1B681B075FBF054B186880F00800DA
:104A8000C0F3C00048BF0020704700BF18C00040FE
:104A900018D00040164A38B52C2303FB00234FF6EC
:104AA000BF72DC680546236C62649BB213F050024F
:104AB0000DD0A369DB0609D40E4B53F825301BB18A
:104AC0002068C0B29847F4E72368F2E738BD13F4D2
:104AD000D06F0BD04FF440732363FF236360E36A0E
:104AE000E262E362236B43F00103236338BD00BF3E
:104AF0006C202100305100202DE9F04F012885B0B5
:104B0000064600F2BF802C244443604B1D1995F9E2
:104B100020A005F12007BAF1000F9946C0F2B2803B
:104B200095F92230002BC0F2AD80594801F00AF807
:104B3000584A59F804301168EC680B431360516807
:104B40006B6895F921B00B4353609168AB6895F899
:104B500022800B4393600023C4F8C83F2B690BEB02
:104B6000CA021A6095F823305FFA88FC01939DF819
:104B70000430604619462A7DCDF80CC0029300F03F
:104B8000C9F9029BDDF80CC019466046082200F006
:104B9000B7F94FFA88F840494FEA08389DF90420E0
:104BA00058F80100012303FA02F2024348F80120F9
:104BB0004FEA0A3A5AF8010003FA0BF202434AF8A4
:104BC00001205022A263A26B95F8240042F4D06227
:104BD000A263022262634FF440722263AA69626296
:104BE000EA69A2627022E26242B2002A0C4614DB39
:104BF00095F92510294D41EAC201296079791203FE
:104C000015594FB2BB402B431351002200F078F9E5
:104C1000234A136843F4004313602C2303FB0693D9
:104C200093F8265020336FB2002F1CDB93F807A0B7
:104C3000EDB25FFA8AF82846414601223F0300F0B0
:104C400069F94FFA8AFA3A59012303FA0AF313432E
:104C50003B5108222846414600F052F9104A136899
:104C600043F4804313602C2303FB0696F26896F806
:104C70002800136B43F00103136305B0BDE8F04F48
:104C800000F058B805B0BDE8F08F00BF6C202100DF
:104C9000714A200028200D4020940D4004410D4011
:104CA00030D0004001289CBF014B43F820107047D2
:104CB00030510020012808D8044B2C2202FB003080
:104CC000C3689A699206FCD4196070476C20210071
:104CD000014B00221A60704700500D40014B082222
:104CE0001A60704700500D40024BA0221A605022FB
:104CF0001A60704700500D40074A084B1A60084B75
:104D000080321A60074B80321A60074B80321A607B
:104D1000064B074A1A60704700E100E0445100204A
:104D2000385100203C5100204051002008ED00E0A7
:104D300000202000044B41091A6800F01F000123E5
:104D4000834042F82130704744510020044B410910
:104D50001A6800F01F000123834042F82130704799
:104D600038510020044B41091A6800F01F0001234C
:104D7000834042F82130704740510020024B1868B0
:104D8000C0F38150704700BF04200D4008B5FFF705
:104D9000F5FF024B53F8200008BD00BFC4202100DE
:104DA00038B5164D164C2B68032023F040032B60BA
:104DB0002368062123F040032360012200F0A0F8BD
:104DC0002B68012223F080032B602368032023F04B
:104DD00080032360072100F093F80A4A0A4B1A6007
:104DE0000A4B0B4A19680A40002AF9D11A68510186
:104DF000FCD41A685201FCD538BD00BF20C40D4058
:104E000000C40D400101020000200D4004200D40AF
:104E100000000101034B04481B6803F0070318411D
:104E2000704700BF04200D400048E801034B0448D0
:104E30001B68C3F302231841704700BF04200D40D4
:104E40000048E801024B02EBC10243F82200704720
:104E500048510020F8B507460E46094D002405EBE1
:104E6000411547FA04F3DB07E1B204D555F82430C5
:104E70000BB1304698470134082CF2D1F8BD00BF81
:104E8000485100202DE9F04780464FEA0837DFF807
:104E9000409007F1804505F5592500F0E1FDD5F872
:104EA000186457F809404FEAC80A24FA0AF446EA97
:104EB0000400E4B2C0B24146F6B204FA0AF4FFF7C5
:104EC000C9FFC5F81C6447F80940BDE8F08700BF7A
:104ED00018970D4002480021802209F017B900BF41
:104EE00048510020034A044B1A60044B803A1A6070
:104EF000704700BF80400D40CC510020C8510020B9
:104F0000034B01EBC0011B6843F82120704700BF31
:104F1000CC510020034B01EBC0011B6843F821205A
:104F2000704700BFC85100200E2870B50BD1164B3A
:104F3000164E1C6844F002051D60356825F03F03DD
:104F400043F001033360124E336823F0FF031A432A
:104F50001143014331600F4B1B681B06FBD50E4B01
:104F60000E4A1B6812680E2803F0FC0343EA022372
:104F700008BF064A9BB204BF1560034A9BB208BF34
:104F8000146018B270BD00BF34000144F4860840BC
:104F900008700D4000700D400C700D4010700D40F9
:104FA000024B1868B0FA80F04009704700B708401B
:104FB00010B58F20064CFFF7D5FE8F20FFF7C6FEF9
:104FC000206818B101F050FE0023236010BD00BF1F
:104FD000D0510020064A136843F00203136053685F
:104FE00043F002035360936843F0020393607047F9
:104FF00048200D4007B50C4800F0A4FDFFF7EAFF7C
:105000000A4B1A6842F002021A6000220192019AC9
:105010000F2A02DC019A0132F8E71A6822F0020234
:105020001A6003B05DF804FBA14F200054200D402E
:10503000064A136823F002031360536823F0020347
:105040005360936823F002039360704748200D403B
:10505000084B93F90020002A09DB074AED21116073
:105060001160E32111601A7862F07F021A7001204A
:10507000704700BF75630020388808400B4B1A68E2
:105080009207FBD41B685B065FBF094BED221A60D9
:105090001A60084B1B6813B1054BEF221A60064AD1
:1050A0000120137803F07F03137070474C8608408B
:1050B000388808402C8608407563002038B5A0F178
:1050C0000B04E3B20F2B054613D80B4B1B6813F0F0
:1050D0003F0302D0FFF7D2FF012304EB8404074A09
:1050E0000B3414600BB1FFF7B3FF054BE8B21D7032
:1050F00000E0FF2040B238BD488608403C860840AA
:10510000B34B002010B50B4B1B68990603D1FFF77A
:105110009FFF012300E00023074A1268D207FBD556
:10512000064A1468C4F300140BB1FFF7A7FF20462A
:1051300010BD00BF48860840648608404C86084081
:10514000044B186800F02200A0F120035842584197
:10515000704700BF4C860840024B186800F04000C2
:10516000704700BF4C86084038B50C46002900F057
:105170008880102800F28780DFE800F0090F1A1CF1
:1051800023394253586F738585787A7C7F003F4B73
:105190001B68003318BF012370E03D4B05221B68DC
:1051A00003F07F030B3B93FBF2F30B33DBB265E0C1
:1051B000384B00E0384B1A68043B1B6843EA022373
:1051C0005CE000230B60354B354A1B6803F001039C
:1051D0000B601268900644BF43F002030B60314B32
:1051E0001B78002B4BD00B6843F0040346E02E4B9A
:1051F00000201B780860002B41D001230B6038BDD4
:105200002A4B1A680023D2B2294901EBC300007966
:10521000904202D851F8333030E001330E2BF3D1F5
:1052200028E0244B1B685BB2493B27E0224B1B68FC
:10523000990603D1FFF70CFF012300E000231F4A6A
:105240001268D207FBD51E4A1568493DEDB20BB175
:10525000FFF714FF6DB2256011E01A4B93F900308F
:105260000CE0194B1B7803F07F0307E00B2305E0EC
:105270001A2303E06FF0170300E0072323600020E8
:1052800038BD022038BD012038BD00BF2C86084043
:105290003C860840CC850840D485084000860840FC
:1052A0002486084074630020B24B002040860840EA
:1052B000D42021005886084048860840648608406B
:1052C00060860840736300207263002038B505468D
:1052D0000C46134B1B689B07FBD4124B93F9003011
:1052E000002B01DBFFF7B4FE0F4BEE221A60691EA4
:1052F0001A60A21C43F8102C2144022000F03EFB4F
:10530000013C0A4924012143022000F049FB02200C
:1053100000F050FB022000F065FB002038BD00BF0C
:105320004C860840756300203888084002C001C0E0
:10533000F8B5214B93F90030002B0DDBFFF744FB50
:105340000446FFF785FEFFF73FFB6FF009031B1BC9
:10535000C342F8D4012600E00026184B1B7823B97D
:10536000174D2B68990604D405E0FFF7CBFE002803
:10537000F6D10220F8BD134CE923236004272B68E3
:105380009A0707D4013F17F0FF0703D00620FFF765
:10539000F7FAF4E72B689B0704D4EE23236023601D
:1053A000012403E02C6814F00204FBD10EB1FFF7D6
:1053B00065FE2046F8BD00BF75630020B24B00209B
:1053C0004C86084038880840044B1A6810B142F0F7
:1053D000010201E022F001021A60704700860840D5
:1053E0000B280DD1082A0DD161B1074B083111F8F6
:1053F000012D43F8042F054A9342F8D1002070474D
:105400000120704702207047A4850840C4850840E9
:1054100070B5304E336813F0400308D02E4D2B6822
:10542000DCB21B0605D52D4BED221A601A60002058
:1054300070BD042CF7D9023C8C42F4DCE4B2032C9E
:1054400021D001190139032000F0A0FA631E24497C
:105450001B010320194300F0A3FA032000F0AAFA6D
:10546000032000F0BFFA032000F0C8FA0028FAD1A8
:1054700029681C4B4939C9B219702B681A4D180696
:105480002B70D0D506E02B6803702B6843702B6817
:105490008370EDE749B289B2042006F045FD297812
:1054A000032001F07F0106F03FFD104B1B7873B91C
:1054B00033685A060BD5074B1B681B0603D50C48EF
:1054C00001F0D2FB03E0054BED221A601A60204682
:1054D00070BD00BF4C8608402888084038880840C6
:1054E00002C0010C7363002072630020746300200B
:1054F000D84400201E4B1870002831D01D4B1B686B
:105500001B03FBD51C4B1A6842F002021A601A6892
:1055100042F001021A601A6817495007FBD50A6861
:1055200022F001020A601968134A4907FBD4116886
:1055300041F002011160116841F0010111601A6827
:105540005207FCD50D4A8D20136823F00403136025
:10555000D2F8A83123F00403C2F8A831FFF7F6BB54
:10556000064A8D20136843F004031360FFF7E2BB83
:105570007463002004200D40048808408C86084095
:1055800010B50C4607285CD8DFE800F0040F1B1F9D
:10559000263C4256012903D1FFF75AFD002010BDD9
:1055A000002950D1FFF76AFDF8E7A1F10B030F2B9B
:1055B00049D8C8B2FFF782FD431C0CBF032000206E
:1055C00010BD8CB2E2B2214B02E08CB2204BE2B2B1
:1055D000240A1A605C60E1E731F0070333D101F07F
:1055E0000100FFF7F1FE1B4B14F0020F1A68C4F321
:1055F000800014BF42F0200222F020021A60FFF760
:1056000079FFCBE731F001001DD1134B197010BDAC
:1056100001F118031F2B16D80D231049DA0051F899
:105620003300844204DC8B181A790D4B1A60B5E7FD
:1056300013F1FF33F1D2B1E7CCB20A4B49341C600D
:10564000ACE7012010BD022010BD00BFC885084096
:10565000D085084024860840B24B0020D420210089
:105660004086084058860840F8B5294F3D7815F027
:1056700001054AD1274B01241C605C609C60A3F5A6
:105680009323A3F51473F8221A600922C3F890211A
:10569000152270331A6003F59B230B2203F59E73CA
:1056A0001A60A3F59B23A3F5F07340221A601A68D1
:1056B0007F2642F020021A60D52243F81C5CDE628D
:1056C000DA61154B1878FFF7F9FC144B8E201E6039
:1056D000FFF730FB022000F079F91149022000F0B9
:1056E00055F9032000F072F90D49032000F046F946
:1056F0000C4B1878FFF7FEFE0B48294601F09CFA88
:105700003B78204623433B70F8BD0020F8BD00BF26
:1057100075630020A8200D40B34B002094860840FC
:105720002888084074630020D844002038B50388D6
:105730000446CBB140F20342934203D000230380DE
:10574000032038BD194B18781A4628B11B7873B15D
:10575000174B1B7858060AD5822908D1137843B114
:10576000134B1A78520614D440F2034323800120CD
:1057700038BD06F07FFB06F013FB8021FFF748FEE3
:105780000028EDDD80B206F0EFFA0A4B1B6998475E
:10579000E6E700221A70084B1D68FFF76FFCFFF761
:1057A00063FFAB06E0D0FFF753FCDDE77463002036
:1057B00075630020D0212100488608400B282DE980
:1057C000F84F8A4611D1082A40F0828000297FD004
:1057D000414B01F1FF3A53F8042D0AF8012F3F4ADB
:1057E0009342F8D10020BDE8F88F0C286DD1042A2F
:1057F0006ED100296CD03A493A480B68DFF8EC903A
:1058000023F007030B600368DFF8E4B043F00803FC
:105810000360DBF80040D9F800200B68DFF8D4C043
:10582000DFF8D48023F070030B60D8F80050DCF868
:105830000030E4B2120244EA036392B2DFF8BCE043
:105840001A43EBB242EA03430024DEF8002044EAA4
:1058500003060B68D5B223F0070343F001030B6086
:1058600003682F4643F008030360DBF80000D9F813
:1058700000200B68120223F0700343F010030B604A
:10588000D8F80050DCF80030C1B241EA036392B2AC
:105890001A43EBB242EA0343DEF8002044EA03086D
:1058A0005FFA82F9FFF790F8B6EB080667EB090795
:1058B000F903054641EA5641F0030B4A002307F07D
:1058C00061FD281ACAF800008CE70120BDE8F88FB6
:1058D0000220BDE8F88F00BFC8850840A8850840B1
:1058E00010880840048808400048E80118880840EB
:1058F0001488084020880840248808401C880840F4
:1059000008B5054B1B7813B9044801F0ADF9044BF9
:1059100000221A6008BD00BF74630020D844002034
:1059200034880840064B07481A68042A1FBF0649F6
:105930000A7842F040020A7000221A6001F094B91D
:105940002C880840D84400207563002010B5094C0D
:1059500000212046402208F0D9FB074B01221A60A3
:105960002E205C60FFF7E6F9BDE810402F20FFF71E
:10597000E1B900BF0040002004F00F4003289EBFA3
:10598000014B0001195070470040002003289EBFC2
:10599000024B03EB00104160704700BF0040002045
:1059A00003289EBF024B03EB00108160704700BFCD
:1059B0000040002003289FBF034901230A68834059
:1059C0009CBF13430B60704728F00F4003289FBF14
:1059D000034901230A6883409CBF13430B6070474F
:1059E00020F00F4003289FBF034901230A6883402A
:1059F0009CBF13430B60704714F00F4003289FBFF8
:105A0000044B03EB0010806800F0070088BF002003
:105A1000704700BF00400020024B4FF0FF321A6079
:105A2000704700BF04F50F40014B01221A60704718
:105A30004CF00F40094B1A6812F4801F1A46F9D136
:105A4000043B196821F4803119601168C903FCD442
:105A50001A6842F400321A60704700BF04200D40FB
:105A600010B50A4B1A681C4612F0030F0CD0084BF5
:105A70001A685101FBD41A685201FCD5FEF78EFF5B
:105A8000FFF7D8FF0023236010BD00BF58200D4052
:105A900004200D4038B5254B1C6814F03F0413D189
:105AA000234B53F8243023B1984768B10134052CB7
:105AB000F6D1204D2B783BB1FEF780FF0446FEF770
:105AC00083FF201A092801D830BF38BD002CFBD035
:105AD000194B1A6822F400321A60184A1168C90278
:105AE000FBD4196841F4803119601368DB03FCD5DD
:105AF000FEF76AFF201A092803D8BDE83840FFF7EF
:105B000099BF63280E4C02D92B78022B00D00123B9
:105B1000236001F05FF820B1FFF78CFF00232360C2
:105B200038BDFEF74BFF0028CED1F5E74886084088
:105B3000D45100207663002000200D4004200D4049
:105B400058200D400023064A52F82310814206D007
:105B500011B942F8230070470133052BF3D1704788
:105B6000D4510020054B00221A60054A136843F007
:105B700004031360034B02221A70704758200D4033
:105B800010ED00E07663002010B59020064CFFF782
:105B9000E9F89020FFF7DAF8206818B101F064F80E
:105BA0000023236010BD00BFE851002070B50E4CEB
:105BB000054626784EB93046C021FFF77BF83046BF
:105BC0000D21FFF777F8012323700020E9B2FFF7DA
:105BD00071F80A2D05D10020C021FFF76BF80023D2
:105BE0002370284670BD00BF7763002013B56B4655
:105BF0000A46044604490868496803C32046991ABE
:105C000008F0AAF902B010BD0127210000200149C7
:105C1000FFF748B8B15E20002DE9F74F038806462C
:105C200033B1B3F5A57F11D0002303800320EFE04B
:105C3000794A1380794A1380794A1380794B01227B
:105C40001A704FF4A57333800120E1E082294FF0F0
:105C5000010AF9D1DFF8C8B17348BBF80050734BA3
:105C6000425D83F800A0432ADFF8AC81D94607469D
:105C70002AD16A4B1A88954226D2521B052A23DD67
:105C800000EB050C60466A490622CDF804C008F016
:105C900031F9DDF804C00446B0B960462146062259
:105CA00008F034FA5D4BA8F800401C805D4BABF85F
:105CB000004083F800A05F4B185D01340AF025FD19
:105CC0000D2CF8D1002497E0B8F800209542F9D0C7
:105CD00002D300231C462EE000247B5DDB2B04D086
:105CE00055490B550134A4B201E0012300E0002323
:105CF0000135ADB2954255D2B4F5807F01D900246B
:105D000050E0002BE9D07B5DDD2B01D1DB2102E0EF
:105D1000DC2BECD1C021484B1955E3E7B4F5807F6B
:105D20001DD863B9795DDB2917D04348015501348B
:105D3000A4B20135ADB2B5F5887FEFD310E07B5D3D
:105D4000DD2B01D1DB2102E0DC2B04D1C0213A4B59
:105D500019550134A4B20023EBE70123E9E700243D
:105D6000002188B290421DD2B4F5807FC7D863B1BC
:105D70007B5CDD2B01D1DB2002E0DC2B0DD1C020D0
:105D80002D4B18550134A4B207E0785CDB2806D00F
:105D9000294D28550134A4B202E0002300E001237C
:105DA0000131DEE7013292B2B2F5887F04BF0023F1
:105DB000A8F80030194B18BFA8F80020B8F8002048
:105DC00019888A4216D0104603468B4212D0F85CDE
:105DD000C02807D11948A8F80030A9F8002000F021
:105DE00043FF09E001339BB2B3F5887F4FF0000019
:105DF000EBD1E9E7A9F80020114B1C80002C3FF4FF
:105E000020AF104B1B6803B1984703F0F9FF18E768
:105E100003B0BDE8F08F00BF345F0020325F002088
:105E2000365F0020786300207963002057730020DC
:105E30000927210010272100546D0020E84400208C
:105E4000406D0020EC510020014B1860704700BFEE
:105E5000EC51002038B5C0200AF057FC114B00244B
:105E60001149A2B20988914216D93C2A04BF0F4BAE
:105E70001B6818785D1CC02804D1DB200AF045FCA3
:105E8000DC2004E0DB2802D10AF03FFCDD200AF030
:105E90003CFC01342B46E3E7C0200AF036FC00202E
:105EA00038BD00BF546D0020406D0020606E0020A2
:105EB00038B5264B1A781C46022A06D0032A12D17E
:105EC000C02804BF01221A703DE000F12402D2B2C2
:105ED000012A06D903221A701D4B1A881D4B1A80FD
:105EE00031E0012302E0DB2801D102232370194BAA
:105EF000184D1A88511C89B2B1F5887F08BF00215E
:105F0000198015491B8809888B4205D1032323700A
:105F10000F4B1B882B8016E0104B5428985407D148
:105F20005B5C432B0FD10E4800F09EFE012038BD74
:105F3000C02808D1064B1888824203D08142F2D192
:105F40001A80F0E72A80002038BD00BF7863002067
:105F5000345F0020325F0020365F0020796300202C
:105F6000E84400200FB407B504AA52F8041B044803
:105F7000019200F04DF803B05DF804EB04B07047F7
:105F8000F84400201FB5084C8DE80300114602A814
:105F90001A460294CDF80CD000F03AF8009B00228B
:105FA0001A7004B010BD00BF910721000EB43FB5B8
:105FB000094B07AA52F8041B0190049304A801ABF3
:105FC0000392059300F024F8019B00221A7006B09A
:105FD0005DF804EB03B07047D307210070B50546A8
:105FE0000C46102C07D92B6868680849102298477E
:105FF00050B9103CF5E734B12B6868682246BDE81B
:10600000704002491847204670BD00BF8827210014
:106010002DE9F04F80468FB0069107920026069B2F
:106020001B78002B00F05F83069B1C4613F8012BA6
:106030001AB9069B9C4203D10FE0252AF5D1F8E757
:10604000069BD8F80400E51A0699D8F800302A46CD
:106050009847002840F02A832E442378002B00F034
:1060600042836378611C002B00F03D8300240A46C4
:1060700011F8013B2B2B11D006D8202B11D0232B4C
:1060800012D144F00804F2E72D2B04D0302B0BD1B1
:1060900044F01004EBE744F00104E8E744F00604A0
:1060A000E5E744F00204E2E7A3F1310108290DD845
:1060B000134600251A4613F8011BA1F130000928E8
:1060C00011D80A2202FB0515303DF3E72A2B09D12E
:1060D000079B01321D68191D002D0791B8BF44F0C0
:1060E000010400E0002513782E2B1CD15178531C9D
:1060F000A1F1300009280ED8194600270A780B466E
:10610000A2F13000092801F101010FD80A2303FB95
:106110000727303FF2E72A2906D1931C079A111D61
:106120000791176802E013464FF0FF371A786C2A80
:1061300009D15A786C2A02D144F080040AE0013374
:1061400044F060040BE0682A09D15A78682A03D128
:1061500044F02004023302E0013344F040041A7892
:10616000642A3CD01FD8462A48D00DD8252A5AD0B8
:1061700003D8002A00F0B78257E0412A4AD0452AC6
:1061800053D144F4424450E0582A31D004D8472A2D
:106190004BD144F4A13448E0612A38D0632A44D179
:1061A00044F4A06441E06E2A3AD007D8662A22D08F
:1061B00027D3672A28D0692A11D036E0732A2CD039
:1061C00006D86F2A11D0702A2FD144F440742CE0E5
:1061D000752A07D0782A28D144F4C85425E044F41D
:1061E000245422E044F410641FE044F488541CE07A
:1061F00044F4B24419E044F4007416E044F48444D6
:1062000013E044F4024410E044F481340DE044F41B
:10621000C1340AE044F4E13407E044F4806404E06B
:1062200044F4E06401E044F4C0640133069304F4F0
:10623000E063B3F5806F00F0AA8116D8B3F5807FD4
:106240002BD0B3F5407F7FF4EAAE079BA04914F44E
:10625000804F03F104029F4818BF08460DF1330137
:1062600007920F461A680023C5E1B3F5C06F08D046
:10627000B3F5E06F00F03182B3F5A06F7FF4CFAEDD
:1062800000E2D8F80030D8F804009349012298477A
:10629000002840F00B820136C1E6002FACBF24F08D
:1062A0001004012714F40053039304F0E00337D0E3
:1062B000402B17D008D8DBB1202B2AD1079B1A1D01
:1062C000079293F9002017E0602B11D0802B20D18A
:1062D000079B073323F0070303F108020792D3E972
:1062E00000230AE0079B1A1D0792B3F9002003E080
:1062F000079B1A1D07921A68D317002A73F1000131
:1063000009DA524263EB4303CDE900234FF0010960
:1063100033E000220023CDE900234FF000092CE0F8
:10632000402B16D007D8CBB1202B20D1079B1A1DAC
:1063300007921A78EEE7602B10D0802B17D1079BBD
:10634000073323F0070303F108020792D3E9002380
:10635000E1E7079B1A1D07921A88DBE7079B0021DC
:106360001A1D07921B681846CDE90001D5E70022E7
:106370000023CDE900234FF0000904F4C053B3F526
:10638000805F0CD0B3F5C05F33D0B3F5006F4FD151
:10639000DDE900230DF1360ACDE9042304E0DDE94F
:1063A00000230DF1360A15E0DDE9042313433AD04A
:1063B000DDE904010A22002306F0E4FFDDE904011F
:1063C00030320AF8012D00230A2206F0DBFFCDE966
:1063D0000401E9E752EA030125D002F00701303158
:1063E0000AF8011DD10841EA4371D8080A4603465C
:1063F000F0E7384B14F4804F0DF1360A344908BFEA
:106400001946DDE9002352EA03000CD002F00F0028
:10641000085C4FEA131E0AF8010D100940EA0370E8
:1064200002467346EFE70DF1360BCAEB0B0B03E0A8
:106430000DF1360A4FF0000B41F6080241F2080355
:106440005F4502EA04028CBFCBEB070700279A42A4
:1064500002D1002F08BF012741F608018A4207EB4D
:106460000B030DD1DDE9000150EA010208D01B4900
:1064700014F4804F1A4A4FF0020C18BF0A4602E08B
:106480004FF0000C62460399A1B1B9F1000F0AD197
:1064900004F0060102290AD00629124904BF4FF070
:1064A000010C0A4606E04FF0010C0F4A02E00F4AC9
:1064B0004FF0010C63449D428CBFED1A002514F08F
:1064C000010922D1E30613D52F444D461DE000BF3C
:1064D00053272100642721008627210078272100E7
:1064E000752721007D2721007B2721001F26210001
:1064F00040462946CDF80CC00092FFF76FFD009A88
:10650000DDF80CC0002840F0D180BCF1000F0DD0A8
:106510001146D8F800306246D8F80400CDF800C023
:106520009847DDF800C0002840F0C0803C465E443B
:10653000102CD8F800300DD9D8F804006C4910227E
:10654000CDF800C09847002840F0B080103CDDF83E
:1065500000C0EDE75CB1D8F8040065492246CDF8EB
:1065600000C09847DDF800C0002840F09F80D8F8B0
:106570000030D8F8040051465A466644984700282F
:1065800040F094803E44B9F1000F79D073E0079B4E
:10659000D3F800A01A1D0792BAF1000F09D0534694
:1065A000994699F800200133002AF9D1CAEB09096C
:1065B00003E0DFF840A14FF00609002F02DBB945E8
:1065C00028BFB9464D458CBFC9EB0505002514F021
:1065D000010405D140462946FFF700FD002865D19A
:1065E000D8F80030D8F8040051464A4698470028A9
:1065F0005CD14E443EE052EA030E0ED002F00F0E84
:1066000010F80EE04FEA131C01F801ED4FEA121EDC
:106610004EEA037E72466346EDE70B467F1A01BFE2
:106620003022012701F1FF3301F8012C03377822D2
:10663000BD4203F8012C4FF0300203F8022C88BF52
:10664000ED1B4FF0230298BF002514F00104A3F1C5
:10665000030903F8032C04D140462946FFF7BEFC8A
:1066600020BBD8F80030D8F8040049463A4698478D
:10667000E0B93E4424B140462946FFF7AFFCA8B933
:106680002E44CCE4079B012D03F104021B688CBF50
:1066900005F1FF35002514F0010407928DF8203034
:1066A00008D140462946FFF799FC10B14FF0FF3062
:1066B0001AE02E44D8F80030D8F8040008A90122C6
:1066C00098470028F2D16F1C2CB140462946FFF7AD
:1066D00085FC0028EAD13E44A1E4079B1A1D1B68F3
:1066E00007921E609BE430460FB0BDE8F08F00BFFC
:1066F000432721007F272100F8B503880646154669
:106700002BB14A2B15D0002303800320F8BD174876
:106710000AF0FAF804462CB1201DA1680AF076F8B8
:106720002468F8E7124B01221A704A2333800120B3
:10673000F8BD8829FBD10D480AF0E6F80446002C84
:10674000F3D0231D9D420ED1084821460AF0E6F8F9
:10675000084B62691F681A60A2691D460AB1E069A8
:1067600090472F60E1E72468E9E700BFF05100207F
:1067700089640020FC51002010B5064B0024064817
:106780001C700AF0BEF82146BDE81040034800F036
:1067900053BA00BF89640020F0510020004500205A
:1067A00070B50446E3610B4B049D1B786561A261E3
:1067B00043B1094D094B2E68201D2B600AF026F8C5
:1067C0002E6000E0A1602146BDE8704004480AF058
:1067D000B9B800BF89640020FC51002000450020AA
:1067E000F051002013B5034C24680094FFF7D8FF44
:1067F00002B010BDFC51002070B5094B05461B7856
:106800003BB1084C084B2668043023600AF007F8B7
:1068100026602946BDE8704004480AF093B800BFDE
:1068200089640020FC51002000450020F051002028
:1068300070B5094B05461B783BB1084C084B2668E0
:106840000430236009F0F4FF26602946BDE870405B
:1068500004480AF077B800BF89640020FC5100208A
:1068600000450020F051002010B5084B04461B786D
:106870001BB1043000F0B8F801E0C36003612146A9
:10688000BDE8104002480AF049B800BF8964002002
:10689000F051002010B50446FEF768F894E80C00AB
:1068A0001344C01A024B98428CBF0020012010BD37
:1068B000FEFFFF7F10B50E4C236813B90D4A13601D
:1068C00010BDFEF749F8216891E80C001A44131A2C
:1068D0008A6842B192E812002144091A8B4228BF0B
:1068E0000B469268F5E71844024B186010BD00BFD4
:1068F000F4510020F8510020014800F0B5B900BF64
:1069000010450020F8B5038805462BB1592B09D056
:10691000002303800320F8BD1E4A136059232B80F7
:106920000120F8BD872920D08229F7D1194F0026F0
:106930003C68002CF2D0204609F0AAFF90B1E06834
:106940008821224600F050F950B9E060A3680EB1EA
:10695000B36000E03B600023A360FFF7ABFFE5E717
:10696000FFF7CAFF2646A468E3E70A490B680BB99C
:106970000B60D3E7D868904201D19B68F7E70B60C2
:1069800099680029CAD0C86890420ABF89680B4636
:106990009960F5E7F451002010B50446FFF7ACFF0D
:1069A000E3680B4A4BB113683BB1A34203D1094AD8
:1069B0001268DA6007E09B68F6E7064B1B68E36045
:1069C00013681460A360BDE81040FFF773BF00BFF9
:1069D000F4510020FC510020024B1868003018BF11
:1069E00001207047F451002010B50B4A044613688B
:1069F000984206D18368136008E09A68A24203D0E7
:106A00001346002BF9D103E0A2689A60FFF752FF0A
:106A10000023A360E36010BDF451002038B5836803
:106A200004460D469BB10A4804600220A07304F19D
:106A30000C0098470238012801D9832D05D1204642
:106A40002146BDE8384000F005B80123A37338BDE6
:106A5000FC5100202DE9F8431C4A0446156889467C
:106A60002B4690461A4E3768A34204D00BB11B68E0
:106A7000FAE7BDE8F88334B3A37BABB10023A3737B
:106A800045B1AC4204D028468721224609F0E1FEF8
:106A90002D68F5E7A3683BB14C4505D0346004F19F
:106AA0000C0083212A469847D8F800309C4203D135
:106AB0002268064B05E0134623B11A68A242FAD1B8
:106AC00022681A603760BDE8F88300BF00520020DA
:106AD000FC51002010B5094B00221A70084B1C68AD
:106AE0005CB1E37B3BB101230022A373E273204638
:106AF0008221FFF793FF2468F2E710BD8C64002029
:106B000000520020024B1878421C1A70704700BFD8
:106B10008D640020014B1968FFF79CBFFC510020D9
:106B2000064B8A221A70064A00231370054A137016
:106B3000054A1360054A1360704700BF8D6400204A
:106B40008A6400208B64002000520020FC51002049
:106B50002DE9F0411A4D2B780BB1FFF7BBFF194C13
:106B600022783AB3184E0C213378184F59437818CD
:106B700017F8018001334768806803F01F03013A6A
:106B80003370227068B9124B1E689EB12B780BB11E
:106B9000FFF7A0FF304641463A4609F05AFE3668F4
:106BA000F3E7B8F1810F04BF0123837341463A46EE
:106BB00009F04FFE2B7820781844BDE8F08100BF23
:106BC0008C6400208B6400208A6400200452002022
:106BD00000520020024A034B10781B78184470477B
:106BE0008B6400208C640020F0B50B4E3378202B92
:106BF0000FD00A4C0C252478094F1C4404F01F04C4
:106C00006C4301333D19A86039556A603370002028
:106C1000F0BD0120F0BD00BF8B6400208A6400201D
:106C20000452002038B5034C256809F012FE256097
:106C300038BD00BFFC51002010B50A4609490C6858
:106C4000234683420DD00BB11B68FAE748B10460BC
:106C500008600121817383818121BDE81040FFF725
:106C6000E1BF10BD0052002038B1837B013B012BF6
:106C70009FBF024A0123C373137070478C640020C6
:106C800010B5084C206858B1002323608168436820
:106C90009847236823B1BDE810401868FDF7AABEE5
:106CA00010BD00BF8453002038B505880446672D09
:106CB00009D0792D2ED0002D32D1FFF723FF1B4BA9
:106CC00018701B4B1D601B4809F00BFE431C01D1C3
:106CD00067231DE00A28164B07D01A687E2AF2DCCB
:106CE000511C1960144B9854EDE7196800254A1C93
:106CF0001A60114A0D4B555428461978FFF774FF56
:106D00000E4B852118682A46FFF76EFF20B97923BC
:106D1000238009E0852907D1054B00221A60D2E7BC
:106D200000230380032038BD012038BD58730020A4
:106D300090530020885300200F650020FC51002054
:106D40000D2810B5014615D00B4C23782BB90B48F4
:106D500009F0B3FD48B9012306E00A2805D1074828
:106D600009F0ABFD08B1002323700548FFF77CFF55
:106D7000012010BD002010BD8E640020885300202B
:106D80002045002008B505480549802209F08EFD00
:106D9000BDE8084003480021FFF74EBF885300209C
:106DA0008F6400202045002070B505880446772DAB
:106DB00030D07E2D3FD0002D4DD1FFF7A3FE294BC3
:106DC0001870294B1D601D462B68284A264E52F824
:106DD00023204AB126480021C15493688020984757
:106DE000336801333360EFE7224A1370772320E0E2
:106DF0001F4AD256002A12DB1B4A13680133136064
:106E0000194B1C4A1B6812789342F1DB1A4B1B6822
:106E1000002BEBD0184A00231360134AEFE7114A06
:106E200000201178114A52F82320FFF7DDFE30B917
:106E30007E23238013E00B4B1B788B420FD10A4B30
:106E40000B491A688B5C03F07F038B540A4A136862
:106E500001331360D0E700230380032070BD0120BD
:106E600070BD00BF5973002094530020C844002017
:106E7000537300208F65002098530020094B1A7827
:106E80000023934204DA084951F82310814207D1C4
:106E900006490748CA5C62F07F02CA54FFF7E4BEA5
:106EA0000133EEE78F650020C844002053730020B3
:106EB00030450020054A136843F004031360044B77
:106EC0001B68906943EA002080B2704700700D4053
:106ED00014700D40174A136823F00C031360164B0F
:106EE00001221A601A68012AFCD1144B08221A6088
:106EF000E322C3F8142203F505731946104B1B68EF
:106F0000DB07FBD5102000230E4A0138126802F07F
:106F1000010243EA02034FEA43039BB2F4D1002B80
:106F2000F0D0094A180A03F0FE0310601360EF2343
:106F30000B60704700700D40A8200D40248608406B
:106F4000648608409C86084014700D402DE9FF417E
:106F50001F4C204D04F108030FCB8DE80F0029785A
:106F60006F4694F80780A1B13A23A3711A4B1A888F
:106F7000521A92B21A80A2F1280318122C312071F1
:106F8000214404F12C002C3A637107F05BF80023D4
:106F90002B70124809F0B8FC064690B1D6F804C030
:106FA000BCF1000F09D00C4B2A781B8838322C3BDF
:106FB0003846414622449BB2E047304609F0E1FCA6
:106FC000EAE7054B2870188004B0BDE8F08100BFE7
:106FD000546D0020B2650020406D00209C530020BD
:106FE000F8B52A4B2A4C1B7904F11806E371237E6D
:106FF00004F10805FF2B08D195E80F0086E80F0083
:107000002846314600F0BEFA1BE02F46B646214A1C
:107010003B4603CB7345106051601F4602F10802E6
:10702000F6D196E80F0085E80F001A4B1A4D03F1D0
:1070300010062A4618685968083303C2B342154639
:10704000F7D1164D297899B13A23A371144B1A88B8
:10705000521A92B21A80A2F1280318122C31207110
:107060006371104821442C3A06F0ECFF00232B708A
:107070002B7881222833E518E25400236B706B8053
:1070800009F048FDC0436880F8BD00BFD46B002004
:10709000546D0020385F00206C6D0020B265002028
:1070A000406D0020806D002038B504460B480D4629
:1070B00009F02AFC78B10379A34209D14379AB42A4
:1070C00004D183683BB19847002038BDFF2BF8D02E
:1070D00009F057FCEEE7012038BD00BFA0530020A7
:1070E0000146014809F02EBCA05300202DE9F74FBE
:1070F000484D81462B7888469246474C43B1283309
:10710000E35C3A2B0BD1454A002313802B707EE0C1
:10711000A3793A2B03D194F92830002BF3DA03F04A
:107120005DFE3F4E3F4AB446934606F1100E33468D
:1071300003CB7345106051601E4602F10802F6D180
:10714000364E2F78338804EB470030339BB2B3F5CB
:10715000A06F88BF4FF4A063338032882E4BD21BC0
:107160001946303A3030CDF804C0009306F06AFF7B
:107170009DE80810602222700022627062803A222C
:1071800017B183F8282000E09A71274A224B127920
:10719000E271228972B95A8962B99A8952B9DA8937
:1071A00042B91A8A32B95A8A22B99A8A12B9DB8A42
:1071B000002BA8D01D4B0FCB8CE80F009BF80030A4
:1071C000FF2B05D1B9F1040F9DD1B8F1020F9AD16F
:1071D0001449164800F0D6F92F78504607F12803D5
:1071E000E21804F8039082F8018009F09CFC3388CF
:1071F0002C37283BE0511A1263712B782271283307
:107200001C440023638009F085FCC043608003B008
:10721000BDE8F08FB2650020546D0020406D002065
:107220006C6D0020385F0020D46B00205C6D002066
:107230002DE9F0411E460F461B4905460C466023CA
:107240000B7000234B704B803A238B71174B904689
:107250001B7900F1100ECB71331D1A120A714B719C
:1072600001F11802134628686968083503C375459B
:107270001A46F7D10E482C3600F1100100F082F9C1
:107280000C4B1B782833E518E75400236B8085F8F6
:10729000018009F03FFCC043074B68801E80BDE8B9
:1072A000F04102F0BFBD00BF546D0020D46B002040
:1072B0005C6D0020B2650020406D002008B50448D8
:1072C000FFF70EFFBDE808400248FFF709BF00BF07
:1072D000404500204C4500202DE9F3410446154D62
:1072E00000910E4690461F46019523461248032101
:1072F000202209F09FFB01282B4616D12A6804F1B1
:107300001001107020462A68023250F8044B88425F
:1073100042F8044BF9D11868089B86744361099BB5
:1073200080F813800777836100E0002002B0BDE899
:10733000F08100BFA8530020D06C002070B5064635
:107340000B4D0C4B2B602C680B4B9C420BD22378C3
:1073500033B1A27CA01C3146D20806F0CBFD20B18F
:1073600020342C60EFE7002070BD012070BD00BF0D
:10737000A8530020D06C0020306D002013B5084CBD
:10738000802203460092019406480321202209F03E
:1073900051FB08B9206800E0002002B010BD00BF1A
:1073A000AC530020EC6B002010B50C4A0C4B136062
:1073B00013680C498B420DD2197849B1411C02D097
:1073C000997C814204D148F2FE015C888C4202D053
:1073D0002033ECE70023184610BD00BFAC5300205B
:1073E000EC6B00204C6C002037B504460F4D802319
:1073F0000093019523460E480521122209F01AFB3D
:1074000001282B460ED12A6804F110011070204685
:107410002A68023250F8044B884242F8044BF9D1F2
:10742000186800E0002003B030BD00BFA453002066
:10743000706C0020F7B50546204C802300930E4663
:10744000174601941E48032120222B4609F0F2FA28
:10745000012830D12A46236805F1100118702368ED
:10746000023352F8040B8A4243F8040BF9D1206826
:10747000C77416B90123037505E00023037531466F
:10748000183009F0BCF923680E48012199740223D1
:107490004370FF220023027043808380C3800381F6
:1074A0008372C17202736B7B4373EB89C381FFF7F5
:1074B0009BFF206800E0002003B0F0BDAC5300202B
:1074C000EC6B0020485F002013B5084C8022034677
:1074D0000092019406480521122209F0ABFA08B97E
:1074E000206800E0002002B010BD00BFA4530020BF
:1074F000706C002038B50546C8B10D480222002442
:107500004270FF230122C27244808480C4800481BF
:10751000847203730370EB7B43732B8AC381FFF781
:10752000D3FF044A106008B109F0A8FA2C7038BDE6
:10753000485F0020A453002010B50E4B0E4C236072
:1075400020680E4B98420ED203784BB1037D3BB9B5
:107550001830FFF79FF918B1074B1868FFF7CAFFFB
:1075600023682033EBE700F0E9FABDE81040044857
:1075700009F055B9EC6B0020AC5300204C6C002096
:10758000306D00202DE9F84348F2FE030A880546D5
:107590009A42884621D00B78FF2B1ED01B4B00242B
:1075A000A1461F461A4A1A603E681A4A964218D2E5
:1075B00033787BB1B37C012B0CD148F2FE03728887
:1075C0009A4207D04046B11C09F065FA484524BFED
:1075D0003446814620363E60E6E70120FFF7E4FEB0
:1075E00004464CB92C806C80AC80EC802C816C8182
:1075F000AC81EC81BDE8F883A31C123453F8042B52
:10760000A34245F8042BF9D1BDE8F883AC53002020
:10761000EC6B00204C6C002010B5FFF74BFC0446CF
:10762000FFF748FC054B24029A68A4B22044B0FB43
:10763000F2F302FB130000EB520010BDD46B0020EC
:1076400073B52F4C01F0BAFA00F08EF800216022D9
:107650002C4806F05BFD00212046F82206F056FD7E
:10766000294B20221A70294B18221A704FF4A0635C
:107670002360274B40262671A360FFF7CDFF42F21F
:107680001073236148F2FE03314640F2FF260025C5
:10769000E06025751F4C2A46238065802B46A58017
:1076A000E580204600950195FFF716FE20461A4911
:1076B00009F0E8F9294601222046FFF7BBFE4FF406
:1076C00080732046E38126806580A580E580258142
:1076D0006581A581FFF788FE4FF400732046268060
:1076E0006580A580E58025816581A581E381FFF71F
:1076F0007BFE0A480C2102B0BDE8704009F086B854
:10770000D46B0020D06C0020CD6C0020CC6C00200D
:10771000C0270900485F00204C6D0020306D00201C
:107720002DE9F04105460D480F46904609F0ECF86A
:10773000044688B1012D04D8094809F01BF9034615
:1077400001E0084B1B682846666839464246B04748
:10775000204609F016F9EBE7BDE8F0817C570020E0
:10776000F4530020F053002008B50B4809F00CF941
:107770000A4809F0C6F80A4B0A49186804F0FCF9EF
:10778000094809F001F9094809F0BBF8BDE80840CB
:10779000074809F0B6B800BF7845002078540020AB
:1077A00074450020D90A210058450020F4530020D8
:1077B0007C57002008B5034640B1054A5968106857
:1077C0000AF06AF8BDE8084009F0B7B908BD00BF83
:1077D00074450020014809F097B800BF7854002094
:1077E00008B509F0ACF9014638B1044B18680AF045
:1077F0003AF8003018BF012008BD08BD74450020CC
:107800002DE9F0418046FFF7E5FF002604463746A4
:107810009CB194F82450B5420AD3404604F10801C3
:10782000EA0806F067FB18B9802D08D02E462746D7
:10783000204609F04DF90446EAE73C4667B108489E
:1078400009F062F8844207D00548214609F066F83D
:107850000348214609F085F82046BDE8F08100BFC5
:107860007854002038B5044600283ED04368002BE9
:107870003BD01E48214609F051F86368586809F06A
:1078800043F8054630B14368A34207D0284609F0C3
:1078900078F8F6E704F1080002F00CFA636829466C
:1078A000586809F03BF86368586809F02DF828B962
:1078B00063680F4A5968106804F016FA21460D48AB
:1078C00009F086F829460C4809F082F80B4A204650
:1078D0001368013B1360FFF76DFF04F108010246D6
:1078E000BDE838400320FFF71BBF38BD78540020A7
:1078F000744500207845002084450020F053002086
:1079000010B5044680B1406870B108F0FDFF20B1A9
:107910004068FFF7A7FF6068F7E7044B2146BDE822
:107920001040186804F0E0B910BD00BF7445002095
:107930002DE9F84F074610468946904609F0FFF8B2
:10794000834610B90020BDE8F88F3846FFF758FF8E
:10795000044660B1FFF72EFF014628B140461022D1
:1079600006F0C8FA002859D02046FFF77BFF2D4BC0
:107970001A689A46102AE5D02B4E5946306809F00D
:1079800072FF054668B92B4630685946042204F058
:1079900021F905460028D5D000236860036008F06F
:1079A000B0FF224809F000F804460028CAD0204859
:1079B000214608F0D6FF1F4808F0F6FF834620B99D
:1079C00021461A4809F004F8BCE744606868594643
:1079D00008F0B8FFDAF800306560013330682946F6
:1079E000CAF8003004F096F93B4604F1080507F1A7
:1079F00010062A4618685968083303C2B342154670
:107A0000F7D100210C2284F8249004F1180006F02C
:107A10007DFB022039464246FFF782FE2046BDE844
:107A2000F88F00BFF05300207445002078450020F7
:107A3000785400208445002038B505460D4808F0EC
:107A400063FF0446A0B1AC420ED12146094808F0BC
:107A500065FF2146084808F0BBFF211D01200A46AA
:107A6000BDE83840FFF75CBE204608F08AFFE8E733
:107A700038BD00BFF45300205845002038B50546F6
:107A8000084808F041FF044648B1201D294610224D
:107A900006F030FA18B1204608F073FFF3E72046ED
:107AA00038BD00BFF4530020F8B505460F46FFF778
:107AB000E5FF044640B9134808F076FF0446F0B1EC
:107AC0001148214608F04DFF2B46261D05F1100EEA
:107AD000324618685968083303C273451646F7D111
